S01600007765656B315F6C65645F707573682E737265637E
S11300000C9446000C9465000C9465000C946500F7
S11300100C9465000C9465000C9465000C946500C8
S11300200C9465000C9465000C9465000C94F0022B
S11300300C9465000C9465000C9465000C946500A8
S11300400C9465000C9465000C9465000C94650098
S11300500C9465000C9465000C9465000C94650088
S11300600C9465000C9465000C9465000C94650078
S11300700C9465000C9465000C9465000C94650068
S11300800C9465000C9465000C94650011241FBE4B
S1130090CFEFD0E4DEBFCDBF11E0A0E0B1E0ECE5EE
S11300A0F7E000E00BBF02C007900D92A230B10749
S11300B0D9F721E0A2E0B1E001C01D92A332B2075A
S11300C0E1F70E94B8000C94AC030C940000883053
S11300D058F491E001C0990F8A95EAF7892FAAE2B2
S11300E0B0E0EBE2F0E031C0803160F498EF980FBB
S11300F081E001C0880F9A95EAF7A4E2B0E0E5E256
S1130100F0E023C0883160F490EF980F81E001C0E3
S1130110880F9A95EAF7A7E2B0E0E8E2F0E015C0AC
S1130120803270F42FE130E0281B310981E001C0F6
S1130130880F2A95EAF7A1E2B0E0E2E2F0E005C018
S113014080E0A0E0B0E0E0E0F0E06F3F19F49081DF
S1130150982709C0662319F09081982B04C0208148
S1130160982F9095922390839C91982B9C9308951B
S11301700E94210261E081E00E94670060E084E166
S11301800E946700C0E0D0E011E084E20E94E50232
S1130190803211F4D12703C0843009F4C127DD2350
S11301A0E1F060E081E0CC2379F00E94670061E037
S11301B084E10E94670082E390E00E94380361E0DA
S11301C081E00E94670013C00E94670082E390E010
S11301D00E94380361E081E00CC061E0CC2381F02F
S11301E084E10E94670082E390E00E94380360E0AB
S11301F084E10E94670082E390E00E943803C5CF47
S113020081E00E94670060E084E10E946700BDCF46
S113021081E090E06F9364E06A95F1F76F91019744
S1130220C9F708950F931F93CF93DF9317B13D98A8
S11302302898299AC0E0D0E00E9408012A9A0E94D6
S1130240080106B12A980E9408012A9A0E9408010E
S11302502A98249605FF10C09E0140E050E080914A
S1130260060190910701A0910801B0910901281796
S113027039074A075B0700F39E0140E050E0809194
S1130280060190910701A0910801B0910901281776
S113029039074A075B0728F082E390E0A0E0B0E06A
S11302A004C080E395E7A0E0B0E08093060190935A
S11302B00701A0930801B093090117B9DF91CF9109
S11302C01F910F91089528B190E08F709070880F5E
S11302D0991F880F991F237C282B28B92A9A0E94DA
S11302E008012A980E9408010895A2E0B0E0EBE713
S11302F0F1E00C948203182F4A8369830E94EB0176
S11303000E941201F7B008B1299869814A816623D5
S113031011F0289A01C0289887B18C6387B94130BD
S113032029F0812F82958F700E946301812F8F7035
S11303300E946301F7B808B92296E5E00C949E0385
S113034060E042E00E947501089560E041E00E948F
S1130350750108953D98459A80E395E7A0E0B0E0E3
S11303608093060190930701A0930801B0930901BB
S1130370209A219A229A8EE190E00E94380383E029
S11303800E94A50186E090E00E94380383E00E9469
S1130390A50182E090E00E94380383E00E94A50159
S11303A082E090E00E94380382E00E94A50182E08E
S11303B090E00E94380388E20E94A00188E00E9435
S11303C0A00181E00E94A00186E00E94A0018CE0CF
S11303D00E94A001089580910A01882329F481E0F4
S11303E080930A010E94AA01089581E00E94A0015D
S11303F08091020190910301009711F1A0E0B0E215
S113040008C0E0910201F0910301E20FF31FB083F1
S1130410AF5F2A2F30E08091000190E00197609156
S1130420010170E0869FA001879F500D969F500D9B
S11304301124241735072CF310920501109204019E
S113044008950E94F501089587B1837D87B988B125
S11304508C6288B985E090E06F9364E06A95F1F767
S11304606F910197C9F7089580910B01882329F4AE
S113047081E080930B010E9424020895BF92CF92E1
S1130480DF92EF92FF920F931F93B82EC6B0DC2C2D
S1130490D0940E9472037B018C010E9434028091EB
S11304A01701813021F1813038F0823009F445C0E0
S11304B0833009F081C063C02B2D30E04D2D50E016
S11304C040955095242335232115310509F474C032
S11304D0CB20C0921201E0921301F0921401009318
S11304E015011093160181E08093170165C0809176
S11304F0130190911401A0911501B0911601E81A0D
S1130500F90A0A0B1B0B8FE0E816F104010511052B
S113051008F452C0409112018D2D90E08095909581
S1130520242F30E082239323009731F182E08093DB
S11305301701C422C09212013FC0409112018D2DB7
S1130540842371F093E09093170180931201E09259
S11305501301F092140100931501109316012CC09D
S113056050E08B2D90E02D2D30E0209530958223A6
S113057093234817590701F1109217011DC0809168
S1130580130190911401A0911501B0911601E81A7C
S1130590F90A0A0B1B0B8FE0E816F104010511059B
S11305A058F0809112018D2119F01092170105C0A5
S11305B092E09093170101C080E01F910F91FF908A
S11305C0EF90DF90CF90BF9008950E943E0208956F
S11305D06F9364E06A95F1F76F910197C9F70895F5
S11305E02F928F939F932FB68091190190911A01A6
S11305F001968093190190931A0190E080911B0158
S1130600891F80931B01909121019C5F909321018C
S11306108091200180519742C0F0909321018093F2
S1130620200180911C0190911D01019680931C0171
S113063090931D0190E080911E01891F80931E01FB
S113064080911F01891F80931F012FBE9F918F915D
S11306502F901895CF93DF93EC0105C088EE93E0BB
S11306600E94E80221972097C9F7DF91CF9108955E
S11306700E942A030895E0E7F0E080818E7F808362
S1130680A0EBB0E08C9183608C93A1EBB0E08C91F3
S1130690807F8C938C9182608C93B89A80818160E6
S11306A080837894089580912201882329F481E03D
S11306B0809322010E943B0308950E945303E0E7C4
S11306C0F0E080818E7F808320911C0130911D0198
S11306D040911E0150911F01808181608083B90186
S11306E0CA0108950E945D0308952F923F924F928C
S11306F05F926F927F928F929F92AF92BF92CF92AE
S1130700DF92EF92FF920F931F93CF93DF93CDB7B6
S1130710DEB7CA1BDB0B0FB6F894DEBF0FBECDBF2E
S113072009942A88398848885F846E847D848C84FF
S11307309B84AA84B984C884DF80EE80FD800C8108
S11307401B81AA81B981CE0FD11D0FB6F894DEBFEB
S10F07500FBECDBFED010895F894FFCF5B
S105075C021085
S9030000FC
