S01800006D6F746F725F61737369676E6D656E742E7372656343
S11300000C9446000C9465000C9465000C946500F7
S11300100C94D2060C94D2060C94D2060C94D206FC
S11300200C9465000C9465000C9465000C94F40524
S11300300C9465000C9465000C9465000C946500A8
S11300400C9465000C9465000C9465000C94650098
S11300500C9465000C9465000C9465000C94650088
S11300600C9465000C9465000C9465000C94650078
S11300700C9465000C9465000C9465000C94650068
S11300800C9465000C9465000C94650011241FBE4B
S1130090CFEFD0E4DEBFCDBF11E0A0E0B1E0EAEEE7
S11300A0F8E100E00BBF02C007900D92AA31B1073E
S11300B0D9F721E0AAE1B1E001C01D92A435B2074D
S11300C0E1F70E9467000C94730C0C9400000E94EA
S11300D0F5030E941B0223E042E063E082E00E94F9
S11300E0C507C8E0D0E088E0E82E81E0F82E90E172
S11300F0C92E91E0D92E60E080E00E949B02FF921D
S1130100EF920E949D090E94CF07BC01882777FDCA
S11301108095982F0E94780261E080E00E949B0203
S1130120DF93CF93DF92CF920E949D098CE20E94CD
S1130130E9050F900F900F900F900F900F90803261
S113014041F4C93FD10514F428960DC0C0E0D1E0B4
S11301500AC0843059F4C8308FEFD80714F02897B8
S113016002C0C0E0DFEF0E941B023FC08830E9F507
S1130170AA24BB24AC1ABD0A8E010A151B0591F1F1
S11301801C161D061CF40150110902C00F5F1F4FFD
S113019060E080E00E949B02FF92EF920E949D0922
S11301A00E94CF07BC01882777FD8095982F0E9475
S11301B0780261E080E00E949B021F930F93DF921C
S11301C0CF920E949D09B801C8010E94250582E0D2
S11301D090E00E943C060F900F900F900F900F90AC
S11301E00F90CBCF0E941B02E801BE01CE010E94FA
S11301F0250581CF80E090E0089581E090E06F9341
S113020064E06A95F1F76F910197C9F708950F9328
S11302101F93CF93DF9317B13D982898299AC0E094
S1130220D0E00E94FD002A9A0E94FD0006B12A989F
S11302300E94FD002A9A0E94FD002A98249605FF38
S113024010C09E0140E050E080911E0190911F017A
S1130250A0912001B0912101281739074A075B07B3
S113026000F39E0140E050E080911E0190911F0137
S1130270A0912001B0912101281739074A075B0793
S113028028F082E390E0A0E0B0E004C080E395E7CA
S1130290A0E0B0E080931E0190931F01A093200181
S11302A0B093210117B9DF91CF911F910F91089558
S11302B028B190E08F709070880F991F880F991F54
S11302C0237C282B28B92A9A0E94FD002A980E9490
S11302D0FD000895A2E0B0E0E0E7F1E00C9401082D
S11302E0182F4A8369830E94E5010E940701F7B031
S11302F008B1299869814A81662311F0289A01C0BE
S1130300289887B18C6387B9413029F0812F829571
S11303108F700E945801812F8F700E945801F7B886
S113032008B92296E5E00C941D0860E042E00E94C2
S11303306A01089561E042E00E946A01089560E064
S113034041E00E946A0108953D98459A80E395E74B
S1130350A0E0B0E080931E0190931F01A0932001C0
S1130360B0932101209A219A229A8EE190E00E9472
S11303703C0683E00E949F0186E090E00E943C06D8
S113038083E00E949F0182E090E00E943C0683E0AB
S11303900E949F0182E090E00E943C0682E00E945D
S11303A09F0182E090E00E943C0688E20E94950151
S11303B088E00E94950181E00E94950186E00E94F8
S11303C095018CE00E949501089580912201882373
S11303D029F481E0809322010E94A401089581E020
S11303E00E94950180911A0190911B01009711F1CF
S11303F0A0E0B0E208C0E0911A01F0911B01E20F05
S1130400F31FB083AF5F2A2F30E08091000190E0AA
S113041001976091010170E0869FA001879F500DB4
S1130420969F500D1124241735072CF310921D01AB
S113043010921C0108950E94EF010895AAE0B0E013
S1130440E4E2F2E00C94FC079B01AC011AE06AE0E0
S1130450C62ED12CE12CF12C5E010894A11CB11CF8
S1130460022FCA01B901A70196010E94D2071150B7
S1130470F501E10FF11D005D922F990F892F880F6F
S1130480880F890F081B008321153105410551058B
S113049039F708C0F601E10FF11D80810E949A012D
S11304A01F5F04C06E010894C11CD11C1A3090F364
S11304B02A96EAE00C941808EF92FF920F931F9388
S11304C07B018C0197FF0BC010950095F094E0948C
S11304D0E11CF11C011D111D8DE20E949A01C8014D
S11304E0B7010E941E021F910F91FF90EF90089593
S11304F00E945C020895A5E0B0E0E1E8F2E00C940B
S11305000308182F80E8898380EC8A8384E98B832D
S113051084ED8C83FE01E60FF11D8181810F6D83D3
S11305200E94950110931D016D8160931C01259615
S1130530E3E00C941F080E947B020895A0E0B0E061
S1130540E4EAF2E00C94FE07D82E80911A0190910F
S11305501B01009709F4FAC02D2D2A3009F443C079
S11305602830C9F480911D01815080931D018F3F73
S113057051F480911C01815080931C0180910101F0
S1130580815080931D0180911C018F3F09F0D8C0D8
S113059010921C01D3C08D2D0E949A0180911C01E0
S11305A08823B9F090E001974091010150E0849FC5
S11305B09001859F300D949F300D112480911D0171
S11305C0E0911A01F0911B01E20FF31FE80FF11DF6
S11305D0D08280911D018F5F80931D019091010154
S11305E0891709F0B3C040911C01242F30E0809199
S11305F0000190E001972817390709F09CC0C0E07A
S1130600D0E041C080E06C2F0E947B02CC248E019C
S11306100F5F1F4F33C0EC2CFF2430E0C29FC0019A
S1130620C39F900DD29F900D1124E0911A01F09177
S11306301B01EE0DFF1DE80FF91F80810E949A0136
S113064080911A0190911B012091010130E0C29F19
S1130650F001C39FF00DD29FF00D11248E0D9F1D4C
S1130660E80FF91F029FD001039FB00D129FB00D38
S11306701124A80FB91F8C918083C3942091010188
S1130680C21648F2E80160910001862F90E00297BB
S1130690C817D9070CF4B6CF6230E0F1625080E09D
S11306A00E947B0200E010E231C0C02FD0E08091B4
S11306B0000190E0029750E0849F9001859F300DE7
S11306C0949F300D1124E0911A01F0911B01EC0F5D
S11306D0FD1FE20FF31F80810E949A0180910001A7
S11306E090E002974091010150E0849F9001859F22
S11306F0300D949F300D1124E0911A01F0911B01EB
S1130700EC0FFD1FE20FF31F10830F5F40910101F7
S1130710041758F260910001615080E00E947B024E
S113072010E004C080E20E949A011F5F80910101E1
S11307301817C0F303C04F5F40931C0110921D01B2
S113074080911D0160911C010E947B022D2D332795
S113075027FD3095C901CDB7DEB7E8E00C941A083F
S113076080911A0190911B01009711F00E94C30817
S11307702091000130E0215030408091010190E04F
S1130780AC01249FC001259F900D349F900D11242E
S11307900E942B0890931B0180931A01009721F16A
S11307A0A0E0B0E208C0E0911A01F0911B01E20F51
S11307B0F31FB083AF5F2A2F30E08091000190E0F7
S11307C001976091010170E0869FA001879F500D01
S11307D0969F500D1124241735072CF38EE992E0CF
S11307E06AEF70E00E94520908950E94B0030895D0
S11307F0FC011182108213821282158214821682E5
S1130800683068F489E290E0918380838BE290E021
S1130810938382838AE290E09583848323C060314A
S113082080F483E290E09183808385E290E0938377
S1130830828384E290E09583848370E06850704002
S113084011C06831C0F486E290E09183808388E22D
S113085090E09383828387E290E09583848370E0C1
S11308606051704081E090E002C0880F991F6A9542
S1130870E2F7868308956032C0F480E290E09183C9
S1130880808382E290E09383828381E290E0958387
S113089084832FE130E0261B310981E090E002C01F
S11308A0880F991F2A95E2F786830895FC01A48195
S11308B0B5818681662321F09C91982B9C930895A1
S11308C09C91809589238C930895FC016F3F31F4AA
S11308D0A281B3818C91968189270CC0A281B381B6
S11308E08681662321F09C91982B9C9308959C917A
S11308F0809589238C930895A7E0B0E0E2E8F4E0C2
S11309000C940108282FF62E8E010F5F1F4FC8018B
S1130910622F0E94F803C8016F2D0E946504C8016C
S113092061E00E9456042796E5E00C941D0883E0DC
S11309308093B00082E08093B100E4EBF0E0108299
S113094080818093B30087E160E00E947C0486E1AB
S113095060E00E947C0487E060E00E947C0486E002
S113096060E00E947C04089580912301882329F487
S113097081E0809323010E9497040895CF93DF932D
S1130980EC010E94B404D7FF05C0D095C195DF4F98
S113099091E001C090E0CF3FD10519F014F0CFEF02
S11309A0D0E0C093B300209731F48091B0008F77EA
S11309B08093B0000EC08091B00080688093B00036
S11309C0992319F087E161E002C087E160E00E94A9
S11309D07C04DF91CF910895CF93DF93EC010E94C3
S11309E0B404D7FF05C0D095C195DF4F91E001C095
S11309F090E0CF3FD10519F014F0CFEFD0E0C093D1
S1130A00B400209731F48091B0008F7D8093B000C2
S1130A100EC08091B00080628093B000992319F0D9
S1130A2086E161E002C086E160E00E947C04DF911F
S1130A30CF910895CF93DF93EB010E94BE04CE01C2
S1130A400E94EC04DF91CF9108950E941A05089545
S1130A5087B1837D87B988B18C6288B985E090E0DD
S1130A606F9364E06A95F1F76F910197C9F7089560
S1130A7080912401882329F481E0809324010E9439
S1130A8028050895BF92CF92DF92EF92FF920F93C1
S1130A901F93B82EC6B0DC2CD0940E9476067B013E
S1130AA08C010E94380580913001813021F1813020
S1130AB038F0823009F445C0833009F081C063C046
S1130AC02B2D30E04D2D50E04095509524233523B7
S1130AD02115310509F474C0CB20C0922B01E0929A
S1130AE02C01F0922D0100932E0110932F0181E02F
S1130AF08093300165C080912C0190912D01A091CB
S1130B002E01B0912F01E81AF90A0A0B1B0B8FE092
S1130B10E816F1040105110508F452C040912B01B7
S1130B208D2D90E080959095242F30E0822393239F
S1130B30009731F182E080933001C422C0922B01EE
S1130B403FC040912B018D2D842371F093E090934D
S1130B50300180932B01E0922C01F0922D0100933F
S1130B602E0110932F012CC050E08B2D90E02D2DE1
S1130B7030E020953095822393234817590701F1DB
S1130B80109230011DC080912C0190912D01A091F3
S1130B902E01B0912F01E81AF90A0A0B1B0B8FE002
S1130BA0E816F1040105110558F080912B018D21FF
S1130BB019F01092300105C092E09093300101C009
S1130BC080E01F910F91FF90EF90DF90CF90BF9046
S1130BD008950E94420508956F9364E06A95F1F7C1
S1130BE06F910197C9F708952F928F939F932FB612
S1130BF08091320190913301019680933201909358
S1130C00330190E080913401891F809334019091E5
S1130C103A019C5F90933A01809139018051974247
S1130C20C0F090933A0180933901809135019091FD
S1130C3036010196809335019093360190E08091BE
S1130C403701891F8093370180913801891F809370
S1130C5038012FBE9F918F912F901895CF93DF93DA
S1130C60EC0105C088EE93E00E94EC0521972097E3
S1130C70C9F7DF91CF9108950E942E060895E0E709
S1130C80F0E080818E7F8083A0EBB0E08C91836064
S1130C908C93A1EBB0E08C91807F8C938C918260DB
S1130CA08C93B89A80818160808378940895809130
S1130CB03B01882329F481E080933B010E943F0695
S1130CC008950E945706E0E7F0E080818E7F8083DC
S1130CD0209135013091360140913701509138010E
S1130CE0808181608083B901CA0108950E946106F0
S1130CF00895A7E0B0E0EFE7F6E00C940408682F4D
S1130D00CE0101960E94F80389819A81803291056F
S1130D1031F480916B009F81892B80936B008981D2
S1130D209A818332910531F480916C009F81892BE3
S1130D3080936C0089819A818632910531F4809187
S1130D406D009F81892B80936D0089819A818932FE
S1130D50910531F4809173009F81892B80937300F6
S1130D60ED81FE8190818F818095892380838FEF2F
S1130D70809368002796E2E00C942008A7E0B0E096
S1130D80E4ECF6E00C940408682FCE0101960E946E
S1130D90F803E981FA8190818F8189232796E2E023
S1130DA00C9420081F920F920FB60F920BB60F925D
S1130DB01124FF920F931F932F933F934F935F93AD
S1130DC06F937F938F939F93AF93BF93EF93FF930F
S1130DD0809142010E94BE06F82E809144010E9437
S1130DE0BE06182F809143010E94BE06082F8091F1
S1130DF045010E94BE064091470160914601509111
S1130E00490190914801F41651F02091400130912C
S1130E1041012F5F3F4F309341012093400106175A
S1130E2051F02091400130914101215030403093E4
S1130E30410120934001151751F020913E0130915A
S1130E403F012F5F3F4F30933F0120933E018917AD
S1130E5051F020913E0130913F01215030403093B8
S1130E603F0120933E01EF2DF0E0772767FD709559
S1130E70E617F70759F0602F70E0552747FD5095A6
S1130E806417750719F021E020933D01412F50E0CC
S1130E90292F332727FD30954217530769F0482F30
S1130EA050E020914901332727FD3095421753071D
S1130EB019F091E090933C01F092460100934701B0
S1130EC01093480180934901FF91EF91BF91AF9135
S1130ED09F918F917F916F915F914F913F912F914E
S1130EE01F910F91FF900F900BBE0F900FBE0F90AC
S1130EF01F901895A3E0B0E0E0E8F7E00C94040834
S1130F00809342016093430140934401209345013F
S1130F10F8942B834A8369830E9479066981862F1A
S1130F200E9479064A81842F0E9479062B81822FA0
S1130F300E947906109241011092400110923F01E3
S1130F4010923E0110923D0110923C0180914201A9
S1130F500E94BE0680934601809143010E94BE0612
S1130F6080934701809144010E94BE06809348010A
S1130F70809145010E94BE06809349018FEF8BBB8F
S1130F8078942396E2E00C9420080E947A0708954E
S1130F90F8948091400190914101789408950E94C1
S1130FA0C8070895A1E21A2EAA1BBB1BFD010DC0A0
S1130FB0AA1FBB1FEE1FFF1FA217B307E407F50705
S1130FC020F0A21BB30BE40BF50B661F771F881FE1
S1130FD0991F1A9469F760957095809590959B0177
S1130FE0AC01BD01CF0108952F923F924F925F92C1
S1130FF06F927F928F929F92AF92BF92CF92DF9225
S1131000EF92FF920F931F93CF93DF93CDB7DEB789
S1131010CA1BDB0B0FB6F894DEBF0FBECDBF09941D
S11310202A88398848885F846E847D848C849B8474
S1131030AA84B984C884DF80EE80FD800C811B8182
S1131040AA81B981CE0FD11D0FB6F894DEBF0FBEB1
S1131050CDBFED010895CF93DF938230910510F455
S113106082E090E0E0914C01F0914D0120E030E00D
S1131070A0E0B0E0309739F1408151814817590719
S1131080B8F04817590771F482819381109729F0B9
S113109013969C938E9312972CC090934D0180933A
S11310A04C0127C02115310531F04217530718F0C0
S11310B0A901DB0101C0EF019A01BD01DF0102803A
S11310C0F381E02DD7CF21153105F9F0281B390B19
S11310D02430310580F48A819B816115710521F0EA
S11310E0FB019383828304C090934D0180934C0150
S11310F0FE01329644C0FE01E20FF31F81939193E7
S113110022503109398328833AC020914A01309111
S11311104B01232B41F420910401309105013093BC
S11311204B0120934A0120910201309103012115C2
S1131130310541F42DB73EB74091060150910701A6
S1131140241B350BE0914A01F0914B01E217F307A0
S1131150A0F42E1B3F0B2817390778F0AC014E5F23
S11311605F4F2417350748F04E0F5F1F50934B0114
S113117040934A018193919302C0E0E0F0E0CF01F3
S1131180DF91CF910895CF93DF93009709F487C03F
S1131190FC01329713821282C0914C01D0914D010F
S11311A0209781F420813181280F391F80914A01D1
S11311B090914B018217930779F5F0934B01E093DB
S11311C04A016DC0DE0120E030E0AE17BF0750F4E5
S11311D012964D915C9113979D014115510509F1AA
S11311E0DA01F3CFB383A28340815181840F951F29
S11311F08A179B0771F48D919C911197840F951F09
S113120002969183808312968D919C911397938378
S113121082832115310529F4F0934D01E0934C01AB
S11312203EC0D9011396FC93EE9312974D915D91B4
S1131230A40FB51FEA17FB0779F480819181840F0D
S1131240951F0296D90111969C938E938281938166
S113125013969C938E931297E0E0F0E08A819B8131
S1131260009719F0FE01EC01F9CFCE010296288116
S11312703981820F931F20914A0130914B01281725
S1131280390769F4309729F410924D0110924C01FA
S113129002C013821282D0934B01C0934A01DF91A2
S11312A0CF9108950F931F93CF93DF93EC018B019C
S11312B0009731F46115710519F480E090E038C0AD
S11312C06EE070E081E090E00E94AA0BFC010097C0
S11312D0A1F380E883830115110571F01387028758
S11312E081E8838380914E0190914F01892B21F4F1
S11312F0F0934F01E0934E012097C9F0D187C08746
S11313008381826083838091500190915101892B64
S113131071F4F0935101E093500180915201909146
S11313205301892B21F4F0935301E0935201CF012F
S1131330DF91CF911F910F910895CF93DF93CDB794
S1131340DEB7FE01359661917191AF018091500134
S1131350909151010E94AF09DF91CF9108952F928E
S11313603F924F925F926F927F928F929F92AF9231
S1131370BF92CF92DF92EF92FF920F931F93CF937E
S1131380DF93CDB7DEB72C970FB6F894DEBF0FBE50
S1131390CDBF7C016B018A01FC0117821682838117
S11313A081FFBDC1CE0101964C01F7019381F60185
S11313B093FD859193FF81916F01882309F4ABC15B
S11313C0853239F493FD859193FF81916F018532C4
S11313D029F4B70190E00E94E30BE7CF512C312CA4
S11313E020E02032A0F48B3269F030F4803259F0DE
S11313F0833269F420612CC08D3239F0803339F4A2
S1131400216026C02260246023C0286021C027FDFB
S113141027C030ED380F3A3078F426FF06C0FAE0E2
S11314205F9E300D1124532E13C08AE0389E300D78
S11314301124332E20620CC08E3221F426FD6BC1A0
S1131440206406C08C3611F4206802C0883641F44A
S1131450F60193FD859193FF81916F018111C1CFB5
S1131460982F9F7D9554933028F40C5F1F4FFFE312
S1131470F9830DC0833631F0833771F0833509F079
S11314805BC022C0F801808189830E5F1F4F442412
S11314904394512C540115C03801F2E06F0E711CB5
S11314A0F801A080B18026FF03C0652D70E002C062
S11314B06FEF7FEFC5012C870E94D80B2C018301AD
S11314C02C852F77222E17C03801F2E06F0E711C85
S11314D0F801A080B18026FF03C0652D70E002C032
S11314E06FEF7FEFC5012C870E94C60B2C012C8562
S11314F02068222E830123FC1BC0832D90E0481614
S11315005906B0F4B70180E290E00E94E30B3A94EC
S1131510F4CFF50127FC859127FE81915F01B70186
S113152090E00E94E30B31103A94F1E04F1A510815
S11315304114510471F7E5C0843611F0893639F548
S1131540F80127FF07C060817181828193810C5F5C
S11315501F4F08C060817181882777FD8095982F7F
S11315600E5F1F4F2F76B22E97FF09C0909580957E
S1131570709561957F4F8F4F9F4F2068B22E2AE060
S113158030E0A4010E94150CA82EA81844C0853789
S113159029F42F7EB22E2AE030E025C0F22FF97F05
S11315A0BF2E8F36C1F018F4883579F0B4C0803777
S11315B019F0883721F0AFC02F2F2061B22EB4FE6E
S11315C00DC08B2D8460B82E09C024FF0AC09F2F44
S11315D09660B92E06C028E030E005C020E130E076
S11315E002C020E132E0F801B7FE07C060817181DA
S11315F0828193810C5F1F4F06C06081718180E0FE
S113160090E00E5F1F4FA4010E94150CA82EA8188D
S1131610FB2DFF77BF2EB6FE0BC02B2D2E7FA514FE
S113162050F4B4FE0AC0B2FC08C02B2D2E7E05C0B7
S11316307A2C2B2D03C07A2C01C0752C24FF0DC0ED
S1131640FE01EA0DF11D8081803311F4297E09C069
S113165022FF06C07394739404C0822F867809F025
S1131660739423FD13C020FF06C05A2C731418F47E
S1131670530C5718732C731468F4B70180E290E08C
S11316802C870E94E30B73942C85F5CF731410F40C
S1131690371801C0312C24FF12C0B70180E390E059
S11316A02C870E94E30B2C8522FF17C021FF03C067
S11316B088E590E002C088E790E0B7010CC0822F73
S11316C0867859F021FD02C080E201C08BE227FD3B
S11316D08DE2B70190E00E94E30BA51438F4B70142
S11316E080E390E00E94E30B5A94F7CFAA94F401AC
S11316F0EA0DF11D8081B70190E00E94E30BA11077
S1131700F5CF332009F451CEB70180E290E00E9476
S1131710E30B3A94F6CFF7018681978102C08FEFED
S11317209FEF2C960FB6F894DEBF0FBECDBFDF91AE
S1131730CF911F910F91FF90EF90DF90CF90BF90CA
S1131740AF909F908F907F906F905F904F903F905D
S11317502F9008950F931F93CF93DF93869F80015B
S1131760879F100D969F100D1124C8010E942B080D
S1131770EC01009729F0A80160E070E00E94D10B11
S1131780CE01DF91CF911F910F910895FC01059037
S1131790615070400110D8F7809590958E0F9F1F6F
S11317A00895DC0101C06D9341505040E0F7089565
S11317B0FC016150704001900110D8F7809590951C
S11317C08E0F9F1F08950F931F93CF93DF93182FAE
S11317D0092FEB018B8181FD03C08FEF9FEF20C0A8
S11317E082FF10C04E815F812C813D8142175307D7
S11317F07CF4E881F9819F012F5F3F4F398328836F
S1131800108306C0E885F985812F0995892B29F76E
S11318102E813F812F5F3F4F3F832E83812F902F57
S1131820DF91CF911F910F910895FA01AA272830D3
S113183051F1203181F1E8946F936E7F6E5F7F4F99
S11318408F4F9F4FAF4FB1E03ED0B4E03CD0670F15
S1131850781F891F9A1FA11D680F791F8A1F911D68
S1131860A11D6A0F711D811D911DA11D20D009F4B8
S113187068943F912AE0269F11243019305D3193FA
S1131880DEF6CF010895462F4770405D4193B3E0E3
S11318900FD0C9F7F6CF462F4F70405D4A3318F08A
S11318A0495D31FD4052419302D0A9F7EACFB4E03B
S11318B0A6959795879577956795BA95C9F70097F3
S11318C06105710508959B01AC010A2E0694579594
S11318D0479537952795BA95C9F7620F731F841FEB
S10D18E0951FA01D0895F894FFCF92
S11318EA0210000054012000456E636F64653A00DB
S10D18FA53706565643A256400002C
S9030000FC
