:100000000C944C000C946B000C946B000C946B00E3
:100010000C946B000C946B000C946B000C946B00B4
:100020000C946B000C946B000C946B000C94450BBF
:100030000C946B000C945D020C946B000C94A00269
:100040000C944E020C946B000C946B000C946B009F
:100050000C94D8080C94EB0A0C946B000C946B0075
:100060000C946B000C946B000C946B000C946B0064
:100070000C9403090C94140B0C946B000C946B00FF
:100080000C94E3020C946B000C946B006364696E37
:100090006F70737578585B0011241FBECFEFD0E4EA
:1000A000DEBFCDBF11E0A0E0B1E0E6E1F9E200E0A3
:1000B0000BBF02C007900D92AC3AB107D9F722E00E
:1000C000ACEAB1E001C01D92A132B207E1F70E9493
:1000D00084030C9489140C94000082E00E94DC06D6
:1000E000811103C00E94B20AF8CF0895462FBC01C7
:1000F00082E00E94E80A0C946D001092CE011092EA
:10010000CD0164E670E00E94140C709327016093A7
:1001100026010895009729F4109280001092810022
:10012000089522E8209380002DE12093810043E18F
:10013000489F9001499F300D1124309387002093F0
:100140008600C90137FD01969595879590938900A2
:100150008093880008950F931F93CF93DF93CDB7BB
:10016000DEB7A4970FB6F894DEBF0FBECDBF909157
:10017000D501E92FF0E027EF31E0E950FE4F808311
:100180009F5F9093D5018D3009F03AC1CE018196E1
:100190009F938F9303969F938F9301979F938F9332
:1001A0008AE291E09F938F933F932F930E94620E78
:1001B0008AA18F9389A18F938CA11F928F938BA17A
:1001C0001F928F9383E391E09F938F938E010F5F34
:1001D0001F4F1F930F930E94330EBC01C8010E9452
:1001E00076000FB6F894DEBF0FBECDBF8BA18A3567
:1001F00089F038F4803509F453C0843509F4B6C069
:10020000F1C0843709F4B2C08A3721F0803709F091
:10021000E9C046C08CA1893569F140F48734B9F052
:10022000823579F0813409F0D8C02BC0873679F057
:1002300018F4813631F1D1C0823719F08937D1F005
:10024000CCC01092D1011092D00160E005C0109294
:10025000CA011092C90161E080E00E946F0585E447
:1002600091E09F938F930E94210E0F900F90E7EFE4
:10027000F1E0BFC01092CC011092CB0160E088E0A9
:10028000ECCF1092CC011092CB011092CA011092C7
:10029000C9011092D1011092D0010E944C05E7CF04
:1002A0008CA1893531F140F48734D1F0823579F071
:1002B000813409F092C036C0873691F018F4813647
:1002C00089F18BC0823719F0893799F086C0809107
:1002D000D1018F938091D0018F938AE591E011C075
:1002E0008091CA018F938091C9018F9383E691E039
:1002F00008C08091CC018F938091CB018F938EE7C2
:1003000091E09F938F931F930F930E94330EBC0134
:10031000C8010E9476000F900F900F900F900F90E1
:100320000F90A5CF8091CC018F938091CB018F93BB
:100330008091CA018F938091C9018F938091D101DF
:100340008F938091D0018F938EE691E09F938F934E
:100350001F930F930E94330EBC01C8010E947600C8
:100360000FB6F894DEBF0FBECDBF81CF8CA189350B
:10037000F1F038F4873461F1823571F0813469F538
:100380001BC0873629F118F48136B1F026C08237B8
:1003900019F0893761F021C089A19AA11092D30187
:1003A0001092D201909329018093280160CF89A1F6
:1003B0009AA10E947D005BCF89A19AA11092D301DE
:1003C0001092D20190932901809328010E947D0010
:1003D00089A19AA10E948A004ACF6BE070E08EE466
:1003E00091E004C06DE070E08AE891E00E94760040
:1003F0003ECF119292E0E731F907D9F71092D5017B
:10040000A4960FB6F894DEBF0FBECDBFDF91CF919B
:100410001F910F91089582E00E94CC06E091D601D1
:100420008E1789F0F0E0E952FE4F80810E94AB0008
:100430008091D6018F3119F41092D601ECCF8F5FE5
:100440008093D601E8CF0895CF93DF9300D000D0FA
:10045000CDB7DEB719821A821B821C8219821A82DA
:100460001B821C8289819A81AB81BC818D3B954125
:10047000A105B10564F489819A81AB81BC810196A3
:10048000A11DB11D89839A83AB83BC83EBCF0F90F1
:100490000F900F900F90DF91CF9108951F920F92C0
:1004A0000FB60F9211248F9381E08093CF018F912B
:1004B0000F900FBE0F901F9018951F920F920FB6BE
:1004C0000F9211240BB60F922F933F934F935F938C
:1004D0006F937F938F939F93AF93BF93EF93FF930C
:1004E0008091C9019091CA0101969093CA018093AD
:1004F000C90161E080E00E946F058091CA018F937D
:100500008091C9018F938CE991E09F938F930E9412
:10051000210E0F900F900F900F90FF91EF91BF91D0
:10052000AF919F918F917F916F915F914F913F918B
:100530002F910F900BBE0F900FBE0F901F9018952C
:100540001F920F920FB60F9211240BB60F922F939A
:100550003F934F935F936F937F938F939F93AF934B
:10056000BF93EF93FF938091C9019091CA010196C7
:100570009093CA018093C90161E080E00E946F05F9
:100580008091CA018F938091C9018F938CE991E08A
:100590009F938F930E94210E0F900F900F900F90BA
:1005A000FF91EF91BF91AF919F918F917F916F914B
:1005B0005F914F913F912F910F900BBE0F900FBE07
:1005C0000F901F9018951F920F920FB60F92112443
:1005D0000BB60F922F933F934F935F936F937F933D
:1005E0008F939F93AF93BF93EF93FF938091CD0130
:1005F0009091CE0101969093CE018093CD012091F0
:100600002601309127012115310571F137FF02C014
:100610002F5F3F4F359527958217930729F582B1B4
:1006200091E0892782B98091CB019091CC0101960C
:100630009093CC018093CB011092CE011092CD010A
:1006400060E088E00E946F058091CC018F938091DB
:10065000CB018F9381EA91E09F938F930E94210EAB
:100660000F900F900F900F90FF91EF91BF91AF916E
:100670009F918F917F916F915F914F913F912F91BA
:100680000F900BBE0F900FBE0F901F9018958FB755
:1006900080688FBF08950A9A82E884BD84E085BD92
:1006A0008EE487BDEEE6F0E080818260808308956D
:1006B000089A80E8809390008BE0809391008AE70D
:1006C0008093990082E180939800E1E7F0E08081D7
:1006D000826080830895559A82E8809380008DE13E
:1006E0008093810088E39AE490938700809386004A
:1006F0008CE195E29093890080938800EFE6F0E02A
:1007000080818360808308950E94C9060E944C0501
:1007100012B80E944B030E9458030E946B030E9470
:10072000470340E855E260E070E082E00E94F7098C
:1007300040E267ED71E082E00E94D50804E110E03C
:1007400064E0F62EC6EAD1E00E94B20A0E940B02D3
:100750008091D401811142C08091CF018823A1F3FF
:100760008091D2019091D30101969093D30180930F
:10077000D20120912801309129012115310559F12B
:1007800037FF02C02F5F3F4F35952795821793079C
:1007900011F582B18F2582B98091D0019091D1015C
:1007A00001969093D1018093D0011092D3011092C1
:1007B000D20160E080E00E946F058091D1018F93AB
:1007C0008091D0018F93DF93CF930E94210E0F90E1
:1007D0000F900F900F901092CF01B6CF0E9424027D
:1007E0002091D2013091D3012F5F3F4F3093D3013D
:1007F0002093D2018091280190912901009709F45A
:10080000A3CFB8010E94140C2617370709F09CCF1C
:1008100082B18F2582B98091D0019091D10101964A
:100820009093D1018093D0011092D3011092D20104
:1008300060E080E00E946F058091D1018F938091EC
:10084000D0018F93DF93CF930E94210E0F900F90D2
:100850000F900F9079CF80E090E0089581E090E0D4
:100860006F9364E06A95F1F76F910197C9F7089566
:100870000F931F93CF93DF9317B13D982898299A30
:10088000C0E0D0E00E942E042A9A0E942E0406B1F5
:100890002A980E942E042A9A0E942E042A982496AE
:1008A00005FF10C09E0140E050E08091B0019091A2
:1008B000B101A091B201B091B301281739074A07DD
:1008C0005B0700F39E0140E050E08091B001909101
:1008D000B101A091B201B091B301281739074A07BD
:1008E0005B0728F082E390E0A0E0B0E004C080E382
:1008F00095E7A0E0B0E08093B0019093B101A093A0
:10090000B201B093B30117B9DF91CF911F910F914D
:10091000089528B190E08F709070880F991F880F0C
:10092000991F237C282B28B92A9A0E942E042A98E2
:100930000E942E040895A2E0B0E0E1EAF4E00C94F5
:10094000620C182F4A8369830E9416050E9438049E
:10095000F7B008B1299869814A81662311F0289A75
:1009600001C0289887B18C6387B9413029F0812F65
:1009700082958F700E948904812F8F700E94890454
:10098000F7B808B92296E5E00C947E0C60E042E0EE
:100990000E949B04089561E042E00E949B04089538
:1009A00060E041E00E949B0408953D98459A80E3F1
:1009B00095E7A0E0B0E08093B0019093B101A093DF
:1009C000B201B093B301209A219A229A8EE190E06D
:1009D0000E948D0B83E00E94D00486E090E00E948C
:1009E0008D0B83E00E94D00482E090E00E948D0B8A
:1009F00083E00E94D00482E090E00E948D0B82E0B0
:100A00000E94D00482E090E00E948D0B88E20E9458
:100A1000C60488E00E94C60481E00E94C60486E005
:100A20000E94C6048CE00E94C60408958091B4011F
:100A3000882329F481E08093B4010E94D5040895AD
:100A400081E00E94C6048091AC019091AD010097B5
:100A500011F1A0E0B0E208C0E091AC01F091AD016D
:100A6000E20FF31FB083AF5F2A2F30E080910001C7
:100A700090E001976091010170E0869FA001879F3F
:100A8000500D969F500D1124241735072CF310920A
:100A9000AF011092AE0108950E9420050895A5E0CF
:100AA000B0E0E5E5F5E00C94640C182F80E889834C
:100AB00080EC8A8384E98B8384ED8C83FE01E60FCE
:100AC000F11D8181810F6D830E94C6041093AF01D7
:100AD0006D816093AE012596E3E00C94800C0E943A
:100AE0004F050895A0E0B0E0E8E7F5E00C945F0C56
:100AF000D82E8091AC019091AD01009709F4FAC015
:100B00002D2D2A3009F443C02830C9F48091AF015B
:100B100081508093AF018F3F51F48091AE0181509D
:100B20008093AE018091010181508093AF0180914B
:100B3000AE018F3F09F0D8C01092AE01D3C08D2D09
:100B40000E94CB048091AE018823B9F090E0019718
:100B50004091010150E0849F9001859F300D949F4A
:100B6000300D11248091AF01E091AC01F091AD0105
:100B7000E20FF31FE80FF11DD0828091AF018F5F6C
:100B80008093AF0190910101891709F0B3C04091A2
:100B9000AE01242F30E08091000190E001972817EA
:100BA000390709F09CC0C0E0D0E041C080E06C2F64
:100BB0000E944F05CC248E010F5F1F4F33C0EC2CD9
:100BC000FF2430E0C29FC001C39F900DD29F900DC3
:100BD0001124E091AC01F091AD01EE0DFF1DE80F85
:100BE000F91F80810E94CB048091AC019091AD01EE
:100BF0002091010130E0C29FF001C39FF00DD29F10
:100C0000F00D11248E0D9F1DE80FF91F029FD001DA
:100C1000039FB00D129FB00D1124A80FB91F8C9126
:100C20008083C39420910101C21648F2E8016091CB
:100C30000001862F90E00297C817D9070CF4B6CFB1
:100C40006230E0F1625080E00E944F0500E010E267
:100C500031C0C02FD0E08091000190E0029750E0B9
:100C6000849F9001859F300D949F300D1124E09159
:100C7000AC01F091AD01EC0FFD1FE20FF31F80817D
:100C80000E94CB048091000190E002974091010105
:100C900050E0849F9001859F300D949F300D11246A
:100CA000E091AC01F091AD01EC0FFD1FE20FF31FDD
:100CB00010830F5F40910101041758F26091000109
:100CC000615080E00E944F0510E004C080E20E9465
:100CD000CB041F5F809101011817C0F303C04F5F61
:100CE0004093AE011092AF018091AF016091AE01CF
:100CF0000E944F052D2D332727FD3095C901CDB713
:100D0000DEB7E8E00C947B0C8091AC019091AD01D2
:100D1000009711F00E94470D2091000130E0215012
:100D200030408091010190E0AC01249FC001259FDB
:100D3000900D349F900D11240E94AF0C9093AD0143
:100D40008093AC01009721F1A0E0B0E208C0E091EF
:100D5000AC01F091AD01E20FF31FB083AF5F2A2F1A
:100D600030E08091000190E001976091010170E016
:100D7000869FA001879F500D969F500D1124241728
:100D800035072CF382E795E06BE274E00E94D60D04
:100D900008950E9484060895282F30E0F901EE0F8F
:100DA000FF1F43E0220F331F4A95E1F7E20FF31FC5
:100DB000EE5FFE4F82810895282F30E0F901EE0F9B
:100DC000FF1F73E0220F331F7A95E1F7E20FF31F45
:100DD000EE5FFE4F4181282F30E0F901EE0FFF1F3B
:100DE00053E0220F331F5A95E1F7E20FF31FEE5F36
:100DF000FE4F81E09381491380E00895282F30E071
:100E0000F901EE0FFF1FB3E0220F331FBA95E1F790
:100E1000E20FF31FEE5FFE4F4085518541155105EE
:100E200009F452C0282F30E0F901EE0FFF1F73E0E4
:100E3000220F331F7A95E1F7E20FF31FEE5FFE4FAB
:100E40007281282F30E0F901EE0FFF1FB3E0220F6F
:100E5000331FBA95E1F7E20FF31FEE5FFE4F948167
:100E6000791790F5282F30E0F901EE0FFF1F73E09E
:100E7000220F331F7A95E1F7E20FF31FEE5FFE4F6B
:100E80009281490F511DFA016083282F30E0F9014A
:100E9000EE0FFF1F53E0220F331F5A95E1F7E20FC9
:100EA000F31FEE5FFE4F92819F5F282F30E0F90124
:100EB000EE0FFF1FB3E0220F331FBA95E1F7E20FE9
:100EC000F31FEE5FFE4F9283282F30E0F901EE0F03
:100ED000FF1F73E0220F331F7A95E1F7E20FF31F34
:100EE000EE5FFE4F4281282F30E0F901EE0FFF1F29
:100EF00053E0220F331F5A95E1F7E20FF31FEE5F25
:100F0000FE4F9481491701F5282F30E0F901EE0FCB
:100F1000FF1F93E0220F331F9A95E1F7E20FF31FB3
:100F2000EE5FFE4F9581992379F0282F30E0F9018B
:100F3000EE0FFF1FB3E0220F331FBA95E1F7E20F68
:100F4000F31FEE5FFE4F128208950F931F93182F29
:100F5000823009F475C0882319F4E1ECF0E002C096
:100F6000E9ECF0E080818F778083812F90E0FC01B5
:100F7000EE0FFF1F03E0880F991F0A95E1F7E80FB6
:100F8000F91FEE5FFE4F808591850097A9F1212F13
:100F900030E0F901EE0FFF1FA3E0220F331FAA95E7
:100FA000E1F7E20FF31FEE5FFE4F9281212F30E059
:100FB000F901EE0FFF1F63E0220F331F6A95E1F77F
:100FC000E20FF31FEE5FFE4F84819817A8F4112300
:100FD00019F4E0ECF0E002C0E8ECF0E0808187FF7B
:100FE0000BC0112319F4E6ECF0E002C0EEECF0E0E7
:100FF0006081812F0E94FE06212F30E0F901EE0F63
:10100000FF1F43E0220F331F4A95E1F7E20FF31F62
:10101000EE5FFE4F8081882309F059C0112319F437
:10102000E1ECF0E002C0E9ECF0E0808180688083D0
:101030004EC080911B01882319F01092180147C0FF
:1010400080911E0190911F01009709F440C090917A
:10105000180180911A019817D0F58091B501882365
:10106000A9F40E94950B8093B50110E00BC00E947B
:10107000900BE02FF0E03197E11BF109EA54FE4FAD
:1010800080831F5F0091B501101788F3A091B5010F
:10109000AA23E9F080911801E0911E01F0911F014F
:1010A000E80FF11DA150A093B501B0E0AA54BE4FC6
:1010B0008C918083809118018F5F809318019091AB
:1010C000180180911A01981709F0BACFB2CF1F9179
:1010D0000F910895823051F0882319F4E1ECF0E08B
:1010E00002C0E9ECF0E090819F779083A82FB0E0F8
:1010F000FD01EE0FFF1F53E0AA0FBB1F5A95E1F74A
:10110000EA0FFB1FEE5FFE4F71876087682F70E06C
:10111000FB01EE0FFF1F93E0660F771F9A95E1F733
:10112000E60FF71FEE5FFE4F1282682F70E0FB01A3
:10113000EE0FFF1FA3E0660F771FAA95E1F7E60FFA
:10114000F71FEE5FFE4F4483482F50E0FA01EE0F89
:10115000FF1F63E0440F551F6A95E1F7E40FF51F89
:10116000EE5FFE4F25838230D9F0282F30E0F90161
:10117000EE0FFF1F43E0220F331F4A95E1F7E20F06
:10118000F31FEE5FFE4F9081992351F4882319F4E9
:10119000E1ECF0E002C0E9ECF0E08081806880835F
:1011A000089521E00E946A0808950E94D1080895D8
:1011B0001F920F920FB60F920BB60F9211242F931E
:1011C0003F934F935F936F937F938F939F93AF93CF
:1011D000BF93EF93FF936091C60080E00E94FE06EC
:1011E000FF91EF91BF91AF919F918F917F916F91FF
:1011F0005F914F913F912F910F900BBE0F900FBEBB
:101200000F901F9018951F920F920FB60F920BB66A
:101210000F9211242F933F934F935F936F937F937C
:101220008F939F93AF93BF93EF93FF936091CE0003
:1012300081E00E94FE06FF91EF91BF91AF919F91D7
:101240008F917F916F915F914F913F912F910F906F
:101250000BBE0F900FBE0F901F901895882319F4A6
:10126000E1ECF0E002C0E9ECF0E080818062808394
:101270000895882319F4E1ECF0E002C0E9ECF0E015
:1012800080818F7D80830895282F30E0F901EE0F53
:10129000FF1F93E0220F331F9A95E1F7E20FF31F30
:1012A000EE5FFE4F2681378121153105A1F1282FF0
:1012B00030E0F901EE0FFF1FA3E0220F331FAA95C4
:1012C000E1F7E20FF31FEE5FFE4F4181282F30E080
:1012D000F901EE0FFF1F63E0220F331F6A95E1F75C
:1012E000E20FF31FEE5FFE4F93814917A0F4282F02
:1012F00030E0F901EE0FFF1F43E0220F331F4A9544
:10130000E1F7E20FF31FEE5FFE4F9081992319F48E
:101310000E942E0908950E9439090895823031F102
:10132000282F30E0F901EE0FFF1F53E0220F331F8B
:101330005A95E1F7E20FF31FEE5FFE4F908199237C
:1013400049F4882319F4E1ECF0E002C0E9ECF0E0A4
:1013500098E908C0882319F4E1ECF0E002C0E9EC58
:10136000F0E098E190830E944409789408958823DE
:1013700019F0813041F404C080E00E948E09089584
:1013800081E00E948E090895A0E0B0E0EAECF9E067
:101390000C94600CD82E7A018B010E94B7098D2D18
:1013A000823001F1DD2019F4C4ECD0E002C0CCECB5
:1013B000D0E0C801B70128EF3FEF4FEF5FEF0E9489
:1013C000040C6050734D8E4C9E4FA8019701E4E0D1
:1013D000220F331F441F551FEA95D1F70E94280C96
:1013E00039832883CDB7DEB7E7E00C947C0C0E94EC
:1013F000C4090895282F30E0F901EE0FFF1F73E0B4
:10140000220F331F7A95E1F7E20FF31FEE5FFE4FD5
:10141000468157814115510509F465C0282F30E0F8
:10142000F901EE0FFF1F93E0220F331F9A95E1F7AA
:10143000E20FF31FEE5FFE4F6181282F30E0F901CC
:10144000EE0FFF1FA3E0220F331FAA95E1F7E20F73
:10145000F31FEE5FFE4F9381691708F044C08823A5
:1014600019F4E0ECF0E002C0E8ECF0E0908195FFC8
:101470003AC0882319F4A6ECB0E002C0AEECB0E0AC
:10148000282F30E0F901EE0FFF1F63E0220F331F1A
:101490006A95E1F7E20FF31FEE5FFE4F9181490F6E
:1014A000511DFA0190819C93282F30E0F901EE0F35
:1014B000FF1F93E0220F331F9A95E1F7E20FF31F0E
:1014C000EE5FFE4F91819F5F282F30E0F901EE0F14
:1014D000FF1FA3E0220F331FAA95E1F7E20FF31FCE
:1014E000EE5FFE4F91830E94440908951F93182FC9
:1014F000823031F00E943909812F0E94FA091DC003
:1015000080911C0190911D010097B9F03091170155
:1015100020911901321788F406C0809117018F5F5E
:1015200080931701EDCF20911701820F911DFC01CF
:1015300080810E949C0B882381F71F91089580E091
:101540000E94760A81E00E94760A82E00E94760A72
:1015500080E00E94A50781E00E94A50782E00E942A
:10156000A50708950E949F0A0895282F30E0F901E9
:10157000EE0FFF1F93E0220F331F9A95E1F7E20F62
:10158000F31FEE5FFE4F77836683282F30E0F9016B
:10159000EE0FFF1FA3E0220F331FAA95E1F7E20F22
:1015A000F31FEE5FFE4F1182282F30E0F901EE0F9E
:1015B000FF1F63E0220F331F6A95E1F7E20FF31F6D
:1015C000EE5FFE4F4383823011F00E94440908957C
:1015D0000E94B50A08951F920F920FB60F920BB694
:1015E0000F9211242F933F934F935F936F937F93A9
:1015F0008F939F93AF93BF93EF93FF9380E00E94ED
:10160000FA09FF91EF91BF91AF919F918F917F91D7
:101610006F915F914F913F912F910F900BBE0F9063
:101620000FBE0F901F9018951F920F920FB60F923A
:101630000BB60F9211242F933F934F935F936F93A9
:101640007F938F939F93AF93BF93EF93FF9381E02B
:101650000E94FA09FF91EF91BF91AF919F918F91F5
:101660007F916F915F914F913F912F910F900BBEA2
:101670000F900FBE0F901F9018956F9364E06A95BE
:10168000F1F76F910197C9F708952F928F939F9368
:101690002FB68091BF019091C00101968093BF0148
:1016A0009093C00190E08091C101891F8093C10196
:1016B0009091C7019C5F9093C7018091C6018051B2
:1016C0009742C0F09093C7018093C6018091C201F8
:1016D0009091C30101968093C2019093C30190E061
:1016E0008091C401891F8093C4018091C501891F25
:1016F0008093C5012FBE9F918F912F901895CF9306
:10170000DF93EC0105C088EE93E00E943D0B21972A
:101710002097C9F7DF91CF9108950E947F0B08951C
:101720008FEF64E00E94DF0B089583E867E00E947A
:10173000DF0B0E94900B08951F93182F982F909500
:10174000991F9927991F85E8891B65E00E94DF0B87
:10175000812F8F7765E00E94DF0B1F9108956F93B3
:1017600064E06A95F1F76F910197C9F70895A1E0D8
:10177000B0E0EDEBFBE00C94640C182F249909C049
:101780002C9907C02C9A8EE190E069830E94AF0BE0
:10179000698184B1806A84B92698812F83708065BD
:1017A0006C7A862B8CBD81E012FF80E08DBD81E0DC
:1017B00090E00E947F0B2196E3E00C94800C0F9345
:1017C0001F93082F162F0CB406FC04C080E064E0C1
:1017D0000E94B70B0CB404FC03C08CB580618CBDB7
:1017E0000EBD03C00CB404FE0BC00DB407FEFACF4F
:1017F000112321F0812F90E00E94AF0B8EB501C024
:1018000080E01F910F910895DB018F939F930E94B9
:101810004A0CBF91AF91A29F800D911DA39F900D87
:10182000B29F900D1124089597FB072E16F4009493
:1018300007D077FD09D00E948C0C07FC05D03EF440
:10184000909581959F4F0895709561957F4F08956C
:10185000A1E21A2EAA1BBB1BFD010DC0AA1FBB1FB4
:10186000EE1FFF1FA217B307E407F50720F0A21B26
:10187000B30BE40BF50B661F771F881F991F1A9493
:1018800069F760957095809590959B01AC01BD01BD
:10189000CF0108950E94A00CA59F900DB49F900DBC
:1018A000A49F800D911D112408952F923F924F9275
:1018B0005F926F927F928F929F92AF92BF92CF92E0
:1018C000DF92EF92FF920F931F93CF93DF93CDB7E9
:1018D000DEB7CA1BDB0B0FB6F894DEBF0FBECDBF61
:1018E00009942A88398848885F846E847D848C8432
:1018F0009B84AA84B984C884DF80EE80FD800C813B
:101900001B81AA81B981CE0FD11D0FB6F894DEBF1D
:101910000FBECDBFED010895AA1BBB1B51E107C04F
:10192000AA1FBB1FA617B70710F0A61BB70B881F6F
:10193000991F5A95A9F780959095BC01CD010895FE
:10194000A29FB001B39FC001A39F700D811D112400
:10195000911DB29F700D811D1124911D0895CF938B
:10196000DF938230910510F482E090E0E09119025B
:10197000F0911A0220E030E0A0E0B0E0309739F1B9
:101980004081518148175907B8F04817590771F439
:1019900082819381109729F013969C938E931297CE
:1019A0002CC090931A028093190227C0211531058B
:1019B00031F04217530718F0A901DB0101C0EF0114
:1019C0009A01BD01DF010280F381E02DD7CF2115FF
:1019D0003105F9F0281B390B2430310580F48A8158
:1019E0009B816115710521F0FB019383828304C003
:1019F00090931A0280931902FE01329644C0FE01B0
:101A0000E20FF31F81939193225031093983288388
:101A10003AC02091170230911802232B41F42091F3
:101A20002201309123013093180220931702209154
:101A30002001309121012115310541F42DB73EB728
:101A40004091240150912501241B350BE091170290
:101A5000F0911802E217F307A0F42E1B3F0B281792
:101A6000390778F0AC014E5F5F4F2417350748F017
:101A70004E0F5F1F5093180240931702819391936A
:101A800002C0E0E0F0E0CF01DF91CF910895CF9365
:101A9000DF93009709F487C0FC013297138212820A
:101AA000C0911902D0911A02209781F420813181CE
:101AB000280F391F809117029091180282179307FF
:101AC00079F5F0931802E09317026DC0DE0120E073
:101AD00030E0AE17BF0750F412964D915C9113970A
:101AE0009D014115510509F1DA01F3CFB383A283BA
:101AF00040815181840F951F8A179B0771F48D9146
:101B00009C911197840F951F029691838083129662
:101B10008D919C911397938382832115310529F42C
:101B2000F0931A02E09319023EC0D9011396FC9378
:101B3000EE9312974D915D91A40FB51FEA17FB0725
:101B400079F480819181840F951F0296D9011196B5
:101B50009C938E938281938113969C938E9312977C
:101B6000E0E0F0E08A819B81009719F0FE01EC0132
:101B7000F9CFCE01029628813981820F931F2091DF
:101B80001702309118022817390769F4309729F4A1
:101B900010921A021092190202C013821282D0937C
:101BA0001802C0931702DF91CF9108950F931F93EE
:101BB000CF93DF93EC018B01009731F46115710530
:101BC00019F480E090E038C06EE070E081E090E0D1
:101BD0000E945313FC010097A1F380E88383011551
:101BE000110571F01387028781E8838380911B02BE
:101BF00090911C02892B21F4F0931C02E0931B02AC
:101C00002097C9F0D187C0878381826083838091C8
:101C10001D0290911E02892B71F4F0931E02E09335
:101C20001D0280911F0290912002892B21F4F093D4
:101C30002002E0931F02CF01DF91CF911F910F91FE
:101C40000895CF93DF93CDB7DEB7FE01359661914E
:101C50007191AF0180911D0290911E020E94840E2D
:101C6000DF91CF9108950F931F93CF93DF93CDB75B
:101C7000DEB72E970FB6F894DEBF0FBECDBF0D892D
:101C80001E8986E08C831A8309838FEF9FE79E83EA
:101C90008D83AE01475E5F4F6F89788DCE010196CF
:101CA0000E94840EEF81F885E00FF11F10822E96BE
:101CB0000FB6F894DEBF0FBECDBFDF91CF911F915D
:101CC0000F910895CF93DF93CDB7DEB72E970FB660
:101CD000F894DEBF0FBECDBF85E08C838B899C89D5
:101CE0009A838983AE01495E5F4F6D897E89CE01FB
:101CF00001960E941C122E960FB6F894DEBF0FBEFE
:101D0000CDBFDF91CF9108952F923F924F925F9276
:101D10006F927F928F929F92AF92BF92CF92DF92FB
:101D2000EF92FF920F931F93CF93DF93CDB7DEB760
:101D30002C970FB6F894DEBF0FBECDBF7C016B01B0
:101D40008A01FC0117821682838181FFBDC1CE0109
:101D500001964C01F7019381F60193FD859193FF64
:101D600081916F01882309F4ABC1853239F493FD69
:101D7000859193FF81916F01853229F4B70190E03D
:101D80000E94DD13E7CF512C312C20E02032A0F44B
:101D90008B3269F030F4803259F0833269F420617B
:101DA0002CC08D3239F0803339F4216026C0226096
:101DB000246023C0286021C027FD27C030ED380FE4
:101DC0003A3078F426FF06C0FAE05F9E300D112409
:101DD000532E13C08AE0389E300D1124332E20621A
:101DE0000CC08E3221F426FD6BC1206406C08C36F7
:101DF00011F4206802C0883641F4F60193FD859104
:101E000093FF81916F018111C1CF982F9F7D9554D0
:101E1000933028F40C5F1F4FFFE3F9830DC0833626
:101E200031F0833771F0833509F05BC022C0F801CF
:101E3000808189830E5F1F4F44244394512C5401A9
:101E400015C03801F2E06F0E711CF801A080B1805E
:101E500026FF03C0652D70E002C06FEF7FEFC50164
:101E60002C870E9494132C0183012C852F77222E1E
:101E700017C03801F2E06F0E711CF801A080B1802C
:101E800026FF03C0652D70E002C06FEF7FEFC50134
:101E90002C870E9482132C012C852068222E83011E
:101EA00023FC1BC0832D90E048165906B0F4B701FF
:101EB00080E290E00E94DD133A94F4CFF50127FC14
:101EC000859127FE81915F01B70190E00E94DD13AB
:101ED00031103A94F1E04F1A51084114510471F74E
:101EE000E5C0843611F0893639F5F80127FF07C0BF
:101EF00060817181828193810C5F1F4F08C0608176
:101F00007181882777FD8095982F0E5F1F4F2F7660
:101F1000B22E97FF09C090958095709561957F4F7F
:101F20008F4F9F4F2068B22E2AE030E0A4010E941C
:101F30002814A82EA81844C0853729F42F7EB22E65
:101F40002AE030E025C0F22FF97FBF2E8F36C1F096
:101F500018F4883579F0B4C0803719F0883721F04B
:101F6000AFC02F2F2061B22EB4FE0DC08B2D846028
:101F7000B82E09C024FF0AC09F2F9660B92E06C054
:101F800028E030E005C020E130E002C020E132E08E
:101F9000F801B7FE07C060817181828193810C5F77
:101FA0001F4F06C06081718180E090E00E5F1F4F7F
:101FB000A4010E942814A82EA818FB2DFF77BF2E7D
:101FC000B6FE0BC02B2D2E7FA51450F4B4FE0AC014
:101FD000B2FC08C02B2D2E7E05C07A2C2B2D03C001
:101FE0007A2C01C0752C24FF0DC0FE01EA0DF11DF5
:101FF0008081803311F4297E09C022FF06C07394CA
:10200000739404C0822F867809F0739423FD13C063
:1020100020FF06C05A2C731418F4530C5718732C55
:10202000731468F4B70180E290E02C870E94DD13FE
:1020300073942C85F5CF731410F4371801C0312C2C
:1020400024FF12C0B70180E390E02C870E94DD13CB
:102050002C8522FF17C021FF03C088E590E002C055
:1020600088E790E0B7010CC0822F867859F021FDF7
:1020700002C080E201C08BE227FD8DE2B70190E053
:102080000E94DD13A51438F4B70180E390E00E94AC
:10209000DD135A94F7CFAA94F401EA0DF11D808163
:1020A000B70190E00E94DD13A110F5CF332009F4B1
:1020B00051CEB70180E290E00E94DD133A94F6CF52
:1020C000F7018681978102C08FEF9FEF2C960FB6A4
:1020D000F894DEBF0FBECDBFDF91CF911F910F915E
:1020E000FF90EF90DF90CF90BF90AF909F908F9038
:1020F0007F906F905F904F903F902F90089520FDBC
:1021000009C0FC0123FD05C022FF02C07383628366
:1021100051834083089544FD10C046FD10C0DB018B
:10212000FC01AA0FBB1FEE1FFF1F1094D1F76A0F0F
:102130007B1F8E1F9F1F31E003C033E001C034E0DE
:10214000660F771F881F991F3150D1F7620F711DDD
:10215000811D911D08950F931F93CF93DF938C01E1
:10216000C8010E949F13EC0197FD08C00E946F13E5
:10217000892BB1F7B801CE010E940F14CE01DF9177
:10218000CF911F910F9108958F929F92AF92CF920E
:10219000DF92EF92FF920F931F93CF93DF93EC01A7
:1021A000A62E4A01022F0E949F13AC0155274B32E5
:1021B000510521F04D32510551F40068AA9411F4F3
:1021C00080E067C0CE010E949F1397FDF9CF102FCA
:1021D0001D7F302F307301F58033F1F4FF24FA9422
:1021E000FA0C09F442C0CE010E949F1397FD3DC036
:1021F000382F3F7D383551F41264AA94AA94A9F17E
:10220000CE010E949F1397FF07C02FC006FF02C098
:10221000126001C01261AF2CC12CD12C760120EDCF
:10222000280F283080F014FF04C0BE010E940F1454
:1022300019C02A3040F016FFF8CF2F7D3FEE320F45
:10224000363098F72750412FC701B6010E948B10F6
:102250006B017C011260AA9459F0CE010E949F1379
:1022600097FFDDCF11FD04C0ABCFC12CD12C76017F
:1022700017FF08C0F094E094D094C094C11CD11C06
:10228000E11CF11C212FB701A601C4010E947F109F
:1022900081E0DF91CF911F910F91FF90EF90DF9040
:1022A000CF90AF909F908F9008957F928F929F9242
:1022B000AF92BF92CF92DF92EF92FF920F931F9354
:1022C000CF93DF93CDB7DEB7A1970FB6F894DEBFFB
:1022D0000FBECDBF5C017A018E010F5F1F4F6801F9
:1022E00080E2D8011D928A95E9F7F501738040E0FC
:1022F00050E0812CB0E0912C81E090E0F90173FC7A
:10230000A59173FEA1918F017A2F9F01A11103C0A6
:1023100080E090E07DC0AE3519F44115510559F1CA
:10232000E92DF0E0E417F5073CF4AD3569F1AD3285
:1023300019F4BB2319F103C0B11101C08A2EE72F94
:10234000E695E695E69586010E0F111DF801A72F7B
:10235000A7708C0102C0000F111FAA95E2F7D801E7
:10236000B081BA2BB083781559F0781510F47F5FDF
:10237000E6CF7150E4CF9924939403C0B1E001C03B
:10238000B0E04F5F5F4FBACFBB2319F08E81806200
:102390008E83911003C09924939415C0F601CE0149
:1023A0008196208120952193E817F907D1F7F3CF83
:1023B000E114F10429F0D7018C93F70131967F01E4
:1023C000615001F1912CC50169A30E949F1369A17D
:1023D00097FD16C0282F269526952695F601E20F23
:1023E000F11D208130E0AC014770552702C03595C2
:1023F00027954A95E2F720FDDBCFB5010E940F1427
:10240000911086CFE114F10411F0D7011C92C8019C
:10241000A1960FB6F894DEBF0FBECDBFDF91CF916E
:102420001F910F91FF90EF90DF90CF90BF90AF90F2
:102430009F908F907F9008954F925F927F928F929E
:102440009F92AF92BF92CF92DF92EF92FF920F9343
:102450001F93CF93DF931F92CDB7DEB78C012B0173
:102460007A01FC0117821682A12CF801D380F201B7
:10247000D3FC8591D3FE8191382F2F01882309F455
:10248000FCC090E039830E946F133981892B21F0C1
:10249000C8010E94AB10E9CF353241F4F201D3FC00
:1024A0003591D3FE31912F01353269F4C80139835A
:1024B0000E949F13398197FDDEC03817B1F2B80131
:1024C0000E940F14DAC03A3241F4D3FC3591D3FEA6
:1024D00031912F01BB24B39401C0B12C712C20ED9C
:1024E000230F2A3090F4FB2DF260BF2E672D70E091
:1024F00080E090E040E20E948B10762EF201D3FC47
:102500003591D3FE31912F01EACFB1FE03C0711096
:1025100003C0B3C077247A94383619F03C3661F0A2
:1025200014C0F201D3FC3591D3FE31912F0138361E
:1025300061F4FB2DF860BF2E8B2D8460B82EF20164
:10254000D3FC3591D3FE31912F01332309F495C08B
:10255000632F70E08CE890E039830E947713398113
:10256000892B09F48AC0B0FC07C0F701C080D18074
:10257000C70102967C0102C0C12CD12C3E3651F419
:10258000F8014681578160E070E02B2DC6010E9462
:102590007F106BCF3336A1F4B1FC02C07724739463
:1025A000C8010E949F1397FD66C0C114D10429F091
:1025B000F6018083C60101966C017A9489F757C0B1
:1025C0003B3559F49201A601672DC8010E945511AF
:1025D0002C01009709F04BC045C0C80139830E9407
:1025E000AB10398197FD47C03F3669F128F4343686
:1025F00031F1393679F12BC0333769F03537F9F0DD
:1026000026C0C114D10429F0F6018082C6010196CA
:102610006C017A9471F0C8010E949F134C0197FDE0
:1026200008C00E946F13892B61F3B801C4010E9496
:102630000F14C114D104D9F0F601108218C0FB2D7B
:10264000F062BF2E07C08B2D8061B82E03C09B2D7A
:102650009064B92E2B2DA601672DC8010E94C410CD
:10266000811105C0F8018381807329F406C0B0FC94
:10267000FCCEA394FACEAA2019F08A2D90E002C0D5
:102680008FEF9FEF0F90DF91CF911F910F91FF90F0
:10269000EF90DF90CF90BF90AF909F908F907F9002
:1026A0005F904F9008950F931F93CF93DF93869F72
:1026B0008001879F100D969F100D1124C8010E9464
:1026C000AF0CEC01009729F0A80160E070E00E94D7
:1026D0008D13CE01DF91CF911F910F91089591112C
:1026E00015C1803219F089508550D0F70895FC014A
:1026F0000590061621F00020D9F7C0010895319702
:10270000CF010895FC010590615070400110D8F789
:10271000809590958E0F9F1F0895DC0101C06D93E9
:1027200041505040E0F70895FC0161507040019025
:102730000110D8F7809590958E0F9F1F0895CF9325
:10274000DF93EC012B8120FF33C026FF0AC02F7BD3
:102750002B838E819F8101969F838E838A8190E057
:1027600029C022FF0FC0E881F9818081992787FD68
:102770009095009719F420622B831AC03196F98343
:10278000E8830EC0EA85FB85099597FF09C02B8178
:10279000019611F480E101C080E2822B8B8308C096
:1027A0002E813F812F5F3F4F3F832E83992702C0A9
:1027B0008FEF9FEFDF91CF9108950F931F93CF93EA
:1027C000DF93182F092FEB018B8181FD03C08FEF61
:1027D0009FEF20C082FF10C04E815F812C813D8120
:1027E000421753077CF4E881F9819F012F5F3F4F27
:1027F00039832883108306C0E885F985812F0995E0
:10280000892B29F72E813F812F5F3F4F3F832E83F6
:10281000812F902FDF91CF911F910F910895FB0190
:10282000238120FF12C026FD10C08F3F3FEF93078A
:1028300061F082832F7D206423832681378121509C
:10284000310937832683992708958FEF9FEF0895E5
:10285000FA01AA27283051F1203181F1E8946F93D1
:102860006E7F6E5F7F4F8F4F9F4FAF4FB1E03ED077
:10287000B4E03CD0670F781F891F9A1FA11D680F15
:10288000791F8A1F911DA11D6A0F711D811D911D48
:10289000A11D20D009F468943F912AE0269F1124BD
:1028A0003019305D3193DEF6CF010895462F477021
:1028B000405D4193B3E00FD0C9F7F6CF462F4F707C
:1028C000405D4A3318F0495D31FD4052419302D0DA
:1028D000A9F7EACFB4E0A695979587957795679580
:1028E000BA95C9F700976105710508959B01AC0180
:1028F0000A2E06945795479537952795BA95C9F7A7
:10290000620F731F841F951FA01D089599278827A4
:062910000895F894FFCFCA
:10291600021000000000000000000000000000009F
:1029260000000000000001000000000000000000A0
:102936000000210220000A00E80325632025632009
:102946002564004F703A256320433A256320563AA2
:1029560025640D0A0020202020202020200042612E
:102966006420436F6C6F720D0A005265643A2564E9
:102976000D0A00477265656E3A25640D0A005265B8
:10298600643A256420477265656E3A256420596568
:102996006C6C6F773A25640D0A0042616420436FC0
:1029A6006D6D616E640D0A00256C7500473A2564ED
:0C29B60000593A256400523A25640000E4
:00000001FF
