:100000000C9446000C9465000C9465000C946500FB
:100010000C9465000C9465000C9465000C946500CC
:100020000C9465000C9465000C9465000C94E60833
:100030000C9465000C9465000C9465000C946500AC
:100040000C9465000C9465000C9465000C9465009C
:100050000C94AF060C948C080C9465000C9465000D
:100060000C9465000C9465000C9465000C9465007C
:100070000C94DA060C94B5080C9465000C94650099
:100080000C9465000C9465000C94650011241FBE4F
:10009000CFEFD0E4DEBFCDBF11E0A0E0B1E0E8E5F6
:1000A000FDE100E00BBF02C007900D92AE33B10737
:1000B000D9F721E0AEE3B1E001C01D92A539B20746
:1000C000E1F70E94E7000C94AA0E0C9400008B321A
:1000D00019F08D32F1F03FC080916901882361F001
:1000E0008091280190912901863991050CF0C297E1
:1000F000909329018093280180916801882359F108
:1001000080912601909127018639910504F1C297CB
:100110001EC080916901882369F080912801909127
:1001200029018F3927E092070CF4C2969093290198
:100130008093280180916801882369F080912601CD
:10014000909127018F3927E092070CF4C296909383
:100150002701809326010E948402809129018F93B8
:10016000809128018F938AE291E09F938F930E9460
:10017000D40B809127018F93809126018F9383E385
:1001800091E09F938F930E94D40B8DB79EB70896F2
:100190000FB6F8949EBF0FBE8DBF089582E00E94F7
:1001A000C504E0916A018E1789F0F0E0E559FE4F31
:1001B00080810E94670080916A018F3119F410924A
:1001C0006A01ECCF8F5F80936A01E8CF08950E94A7
:1001D000FE030E948402809129018F93809128015F
:1001E0008F938AE291E09F938F930E94D40B80912A
:1001F00027018F93809126018F9383E391E09F9352
:100200008F930E94D40B81E881B912B840E855E27F
:1002100060E070E082E00E94CE0740E26BE671E0B1
:1002200082E00E94AC064DB75EB7485F5F4F0FB6E5
:10023000F8945EBF0FBE4DBF00E010E0C0E0D0E01C
:10024000FF24F3940E9489080E94CE0084E20E9459
:10025000C204803231F4809169018F258093690155
:1002600007C0843029F4809168018F25809368014C
:100270000E94680920916901222379F020912801C8
:1002800030912901AB01421B530B4C175D0734F031
:1002900022B1205822B9EB0101C0179820916801C2
:1002A000222379F02091260130912701AB01421BD6
:1002B000530B4017510734F222B12F2522B98B017D
:1002C000C1CF1098BFCF80E090E0089581E090E02A
:1002D0006F9364E06A95F1F76F910197C9F70895FC
:1002E0000F931F93CF93DF9317B13D982898299AC6
:1002F000C0E0D0E00E9466012A9A0E94660106B121
:100300002A980E9466012A9A0E9466012A982496D9
:1003100005FF10C09E0140E050E0809142019091A5
:100320004301A0914401B0914501281739074A07BC
:100330005B0700F39E0140E050E080914201909104
:100340004301A0914401B0914501281739074A079C
:100350005B0728F082E390E0A0E0B0E004C080E317
:1003600095E7A0E0B0E08093420190934301A09311
:100370004401B093450117B9DF91CF911F910F91BF
:10038000089528B190E08F709070880F991F880FA2
:10039000991F237C282B28B92A9A0E9466012A9843
:1003A0000E9466010895A2E0B0E0E9EDF1E00C944E
:1003B000290A182F4A8369830E944E020E94700105
:1003C000F7B008B1299869814A81662311F0289A0B
:1003D00001C0289887B18C6387B9413029F0812FFB
:1003E00082958F700E94C101812F8F700E94C10180
:1003F000F7B808B92296E5E00C94450A60E042E0BF
:100400000E94D301089561E042E00E94D301089563
:1004100060E041E00E94D30108953D98459A80E351
:1004200095E7A0E0B0E08093420190934301A09350
:100430004401B0934501209A219A229A8EE190E0DE
:100440000E942E0983E00E94080286E090E00E944C
:100450002E0983E00E94080282E090E00E942E09AB
:1004600083E00E94080282E090E00E942E0982E070
:100470000E94080282E090E00E942E0988E20E9419
:10048000FE0188E00E94FE0181E00E94FE0186E0FC
:100490000E94FE018CE00E94FE01089580914601B9
:1004A000882329F481E0809346010E940D0208957B
:1004B00081E00E94FE0180913E0190913F010097F2
:1004C00011F1A0E0B0E208C0E0913E01F0913F01DF
:1004D000E20FF31FB083AF5F2A2F30E0809100015D
:1004E00090E001976091010170E0869FA001879FD5
:1004F000500D969F500D1124241735072CF31092A0
:1005000041011092400108950E9458020895A5E00B
:10051000B0E0EDE8F2E00C942B0A182F80E8898314
:1005200080EC8A8384E98B8384ED8C83FE01E60F63
:10053000F11D8181810F6D830E94FE0110934101A5
:100540006D81609340012596E3E00C94470AA0E09A
:10055000B0E0EDEAF2E00C94260AD82E80913E013C
:1005600090913F01009709F4FAC02D2D2A3009F42B
:1005700043C02830C9F480914101815080934101EA
:100580008F3F51F4809140018150809340018091D0
:100590000101815080934101809140018F3F09F01A
:1005A000D8C010924001D3C08D2D0E9403028091CB
:1005B00040018823B9F090E001974091010150E09B
:1005C000849F9001859F300D949F300D1124809160
:1005D0004101E0913E01F0913F01E20FF31FE80F6E
:1005E000F11DD082809141018F5F809341019091F4
:1005F0000101891709F0B3C040914001242F30E078
:100600008091000190E001972817390709F09CC0FC
:10061000C0E0D0E041C080E06C2F0E948702CC2473
:100620008E010F5F1F4F33C0EC2CFF2430E0C29FC0
:10063000C001C39F900DD29F900D1124E0913E0107
:10064000F0913F01EE0DFF1DE80FF91F80810E9420
:10065000030280913E0190913F012091010130E021
:10066000C29FF001C39FF00DD29FF00D11248E0D9B
:100670009F1DE80FF91F029FD001039FB00D129F2D
:10068000B00D1124A80FB91F8C918083C3942091C1
:100690000101C21648F2E80160910001862F90E046
:1006A0000297C817D9070CF4B6CF6230E0F1625058
:1006B00080E00E94870200E010E231C0C02FD0E04D
:1006C0008091000190E0029750E0849F9001859F07
:1006D000300D949F300D1124E0913E01F0913F01C7
:1006E000EC0FFD1FE20FF31F80810E940302809137
:1006F000000190E002974091010150E0849F900139
:10070000859F300D949F300D1124E0913E01F091B2
:100710003F01EC0FFD1FE20FF31F10830F5F4091AD
:100720000101041758F260910001615080E00E94BD
:10073000870210E004C080E20E9403021F5F8091E4
:1007400001011817C0F303C04F5F4093400110929E
:10075000410180914101609140010E9487022D2D4D
:10076000332727FD3095C901CDB7DEB7E8E00C94FB
:10077000420A80913E0190913F01009711F00E9442
:10078000FA0A2091000130E02150304080910101AF
:1007900090E0AC01249FC001259F900D349F900DE7
:1007A00011240E94620A90933F0180933E010097BA
:1007B00021F1A0E0B0E208C0E0913E01F0913F01DC
:1007C000E20FF31FB083AF5F2A2F30E0809100016A
:1007D00090E001976091010170E0869FA001879FE2
:1007E000500D969F500D1124241735072CF387EADE
:1007F00092E063E671E00E94890B08950E94B903BC
:10080000089587B1837D87B988B18C6288B985E006
:1008100090E06F9364E06A95F1F76F910197C9F7E3
:10082000089580914701882329F481E0809347014E
:100830000E9401040895BF92CF92DF92EF92FF923F
:100840000F931F93B82EC6B0DC2CD0940E94680979
:100850007B018C010E94110480915301813021F1B0
:10086000813038F0823009F445C0833009F081C00E
:1008700063C02B2D30E04D2D50E040955095242342
:1008800035232115310509F474C0CB20C0924E01E7
:10089000E0924F01F09250010093510110935201E8
:1008A00081E08093530165C080914F019091500188
:1008B000A0915101B0915201E81AF90A0A0B1B0BE1
:1008C0008FE0E816F1040105110508F452C04091CB
:1008D0004E018D2D90E080959095242F30E082235D
:1008E0009323009731F182E080935301C422C09298
:1008F0004E013FC040914E018D2D842371F093E055
:100900009093530180934E01E0924F01F092500179
:1009100000935101109352012CC050E08B2D90E0B8
:100920002D2D30E0209530958223932348175907C9
:1009300001F1109253011DC080914F01909150011F
:10094000A0915101B0915201E81AF90A0A0B1B0B50
:100950008FE0E816F1040105110558F080914E0171
:100960008D2119F01092530105C092E0909353012C
:1009700001C080E01F910F91FF90EF90DF90CF902A
:10098000BF9008950E941B040895282F30E0F901BC
:10099000EE0FFF1F43E0220F331F4A95E1F7E20FEE
:1009A000F31FEE5FFE4F82810895282F30E0F9019A
:1009B000EE0FFF1FB3E0220F331FBA95E1F7E20FEE
:1009C000F31FEE5FFE4F408551854115510509F437
:1009D00052C0282F30E0F901EE0FFF1F73E0220F05
:1009E000331F7A95E1F7E20FF31FEE5FFE4F72813E
:1009F000282F30E0F901EE0FFF1FB3E0220F331F65
:100A0000BA95E1F7E20FF31FEE5FFE4F948179177D
:100A100090F5282F30E0F901EE0FFF1F73E0220F51
:100A2000331F7A95E1F7E20FF31FEE5FFE4F9281DD
:100A3000490F511DFA016083282F30E0F901EE0FB4
:100A4000FF1F53E0220F331F5A95E1F7E20FF31F08
:100A5000EE5FFE4F92819F5F282F30E0F901EE0F8D
:100A6000FF1FB3E0220F331FBA95E1F7E20FF31F28
:100A7000EE5FFE4F9283282F30E0F901EE0FFF1F4B
:100A800073E0220F331F7A95E1F7E20FF31FEE5F59
:100A9000FE4F4281282F30E0F901EE0FFF1F53E097
:100AA000220F331F5A95E1F7E20FF31FEE5FFE4F5F
:100AB0009481491701F5282F30E0F901EE0FFF1F4F
:100AC00093E0220F331F9A95E1F7E20FF31FEE5FD9
:100AD000FE4F9581992379F0282F30E0F901EE0F30
:100AE000FF1FB3E0220F331FBA95E1F7E20FF31FA8
:100AF000EE5FFE4F128208950F931F93182F8230DE
:100B000009F475C0882319F4E1ECF0E002C0E9ECC7
:100B1000F0E080818F778083812F90E0FC01EE0FE1
:100B2000FF1F03E0880F991F0A95E1F7E80FF91FEF
:100B3000EE5FFE4F808591850097A9F1212F30E06F
:100B4000F901EE0FFF1FA3E0220F331FAA95E1F773
:100B5000E20FF31FEE5FFE4F9281212F30E0F9018B
:100B6000EE0FFF1F63E0220F331F6A95E1F7E20FDC
:100B7000F31FEE5FFE4F84819817A8F4112319F438
:100B8000E0ECF0E002C0E8ECF0E0808187FF0BC011
:100B9000112319F4E6ECF0E002C0EEECF0E0608125
:100BA000812F0E94D504212F30E0F901EE0FFF1FA5
:100BB00043E0220F331F4A95E1F7E20FF31FEE5F88
:100BC000FE4F8081882309F059C0112319F4E1EC0C
:100BD000F0E002C0E9ECF0E08081806880834EC0E4
:100BE00080911B01882319F01092180147C0809151
:100BF0001E0190911F01009709F440C090911801C7
:100C000080911A019817D0F5809154018823A9F496
:100C10000E9470098093540110E00BC00E946B0980
:100C2000E02FF0E03197E11BF109EB5AFE4F808392
:100C30001F5F00915401101788F3A0915401AA235B
:100C4000E9F080911801E0911E01F0911F01E80F79
:100C5000F11DA150A0935401B0E0AB5ABE4F8C914E
:100C60008083809118018F5F809318019091180103
:100C700080911A01981709F0BACFB2CF1F910F9146
:100C80000895823051F0882319F4E1ECF0E002C0BD
:100C9000E9ECF0E090819F779083A82FB0E0FD0110
:100CA000EE0FFF1F53E0AA0FBB1F5A95E1F7EA0FA3
:100CB000FB1FEE5FFE4F71876087682F70E0FB01BE
:100CC000EE0FFF1F93E0660F771F9A95E1F7E60F8F
:100CD000F71FEE5FFE4F1282682F70E0FB01EE0FF0
:100CE000FF1FA3E0660F771FAA95E1F7E60FF71F36
:100CF000EE5FFE4F4483482F50E0FA01EE0FFF1FD6
:100D000063E0440F551F6A95E1F7E40FF51FEE5FAE
:100D1000FE4F25838230D9F0282F30E0F901EE0F05
:100D2000FF1F43E0220F331F4A95E1F7E20FF31F45
:100D3000EE5FFE4F9081992351F4882319F4E1EC82
:100D4000F0E002C0E9ECF0E08081806880830895E3
:100D500021E00E94410608950E94A80608951F926E
:100D60000F920FB60F920BB60F9211242F933F9351
:100D70004F935F936F937F938F939F93AF93BF93A3
:100D8000EF93FF936091C60080E00E94D504FF912D
:100D9000EF91BF91AF919F918F917F916F915F91F3
:100DA0004F913F912F910F900BBE0F900FBE0F9060
:100DB0001F9018951F920F920FB60F920BB60F92BD
:100DC00011242F933F934F935F936F937F938F9350
:100DD0009F93AF93BF93EF93FF936091CE0081E019
:100DE0000E94D504FF91EF91BF91AF919F918F9198
:100DF0007F916F915F914F913F912F910F900BBE1B
:100E00000F900FBE0F901F901895882319F4E1ECF6
:100E1000F0E002C0E9ECF0E0808180628083089518
:100E2000882319F4E1ECF0E002C0E9ECF0E0808105
:100E30008F7D80830895282F30E0F901EE0FFF1F8A
:100E400093E0220F331F9A95E1F7E20FF31FEE5F55
:100E5000FE4F2681378121153105A1F1282F30E081
:100E6000F901EE0FFF1FA3E0220F331FAA95E1F750
:100E7000E20FF31FEE5FFE4F4181282F30E0F901B2
:100E8000EE0FFF1F63E0220F331F6A95E1F7E20FB9
:100E9000F31FEE5FFE4F93814917A0F4282F30E037
:100EA000F901EE0FFF1F43E0220F331F4A95E1F7D0
:100EB000E20FF31FEE5FFE4F9081992319F40E9419
:100EC000050708950E9410070895823031F1282FF8
:100ED00030E0F901EE0FFF1F53E0220F331F5A9548
:100EE000E1F7E20FF31FEE5FFE4F9081992349F483
:100EF000882319F4E1ECF0E002C0E9ECF0E098E9B5
:100F000008C0882319F4E1ECF0E002C0E9ECF0E05D
:100F100098E190830E941B0778940895882319F024
:100F2000813041F404C080E00E946507089581E0AB
:100F30000E9465070895A0E0B0E0E1EAF7E00C94B4
:100F4000270AD82E7A018B010E948E078D2D8230C0
:100F500001F1DD2019F4C4ECD0E002C0CCECD0E00B
:100F6000C801B70128EF3FEF4FEF5FEF0E94DF09A5
:100F70006050734D8E4C9E4FA8019701E4E0220F04
:100F8000331F441F551FEA95D1F70E94EF0939839B
:100F90002883CDB7DEB7E7E00C94430A0E949B0795
:100FA0000895282F30E0F901EE0FFF1F73E0220FA4
:100FB000331F7A95E1F7E20FF31FEE5FFE4F468194
:100FC00057814115510509F465C0282F30E0F9011A
:100FD000EE0FFF1F93E0220F331F9A95E1F7E20F08
:100FE000F31FEE5FFE4F6181282F30E0F901EE0F15
:100FF000FF1FA3E0220F331FAA95E1F7E20FF31FB3
:10100000EE5FFE4F9381691708F044C0882319F4FE
:10101000E0ECF0E002C0E8ECF0E0908195FF3AC02F
:10102000882319F4A6ECB0E002C0AEECB0E0282FA3
:1010300030E0F901EE0FFF1F63E0220F331F6A95C6
:10104000E1F7E20FF31FEE5FFE4F9181490F511D53
:10105000FA0190819C93282F30E0F901EE0FFF1FD9
:1010600093E0220F331F9A95E1F7E20FF31FEE5F33
:10107000FE4F91819F5F282F30E0F901EE0FFF1F97
:10108000A3E0220F331FAA95E1F7E20FF31FEE5FF3
:10109000FE4F91830E941B0708951F93182F8230E3
:1010A00031F00E941007812F0E94D1071DC080914E
:1010B0001C0190911D010097B9F03091170120910A
:1010C0001901321788F406C0809117018F5F809351
:1010D0001701EDCF20911701820F911DFC01808136
:1010E0000E947709882381F71F91089580E00E946C
:1010F0004D0881E00E944D0882E00E944D0880E08A
:101100000E947C0581E00E947C0582E00E947C05B3
:1011100008950E94760808951F920F920FB60F92BD
:101120000BB60F9211242F933F934F935F936F93BE
:101130007F938F939F93AF93BF93EF93FF9380E041
:101140000E94D107FF91EF91BF91AF919F918F9135
:101150007F916F915F914F913F912F910F900BBEB7
:101160000F900FBE0F901F9018951F920F920FB601
:101170000F920BB60F9211242F933F934F935F93CF
:101180006F937F938F939F93AF93BF93EF93FF934F
:1011900081E00E94D107FF91EF91BF91AF919F91A4
:1011A0008F917F916F915F914F913F912F910F9010
:1011B0000BBE0F900FBE0F901F9018956F9364E0B9
:1011C0006A95F1F76F910197C9F708952F928F9360
:1011D0009F932FB680915E0190915F01019680935D
:1011E0005E0190935F0190E080916001891F809380
:1011F0006001909166019C5F90936601809165010A
:1012000080519742C0F09093660180936501809170
:101210006101909162010196809361019093620156
:1012200090E080916301891F809363018091640144
:10123000891F809364012FBE9F918F912F901895E5
:10124000CF93DF93EC0105C088EE93E00E94DE08A7
:1012500021972097C9F7DF91CF9108950E94200927
:101260000895E0E7F0E080818E7F8083A0EBB0E01E
:101270008C9183608C93A1EBB0E08C91807F8C93F8
:101280008C9182608C93B89A8081816080837894FD
:10129000089580916701882329F481E08093670194
:1012A0000E94310908950E944909E0E7F0E0808139
:1012B0008E7F8083209161013091620140916301B2
:1012C00050916401808181608083B901CA010895D1
:1012D0000E94530908958FEF64E00E94BA090895AF
:1012E00083E867E00E94BA090E946B0908951F9382
:1012F000182F982F9095991F9927991F85E8891B7A
:1013000065E00E94BA09812F8F7765E00E94BA09D3
:101310001F9108956F9364E06A95F1F76F910197BB
:10132000C9F70895A1E0B0E0E8E9F9E00C942B0AD0
:10133000182F249909C02C9907C02C9A8EE190E0AF
:1013400069830E948A09698184B1806A84B9269878
:10135000812F837080656C7A862B8CBD81E012FFB3
:1013600080E08DBD81E090E00E9420092196E3E0BD
:101370000C94470A0F931F93082F162F0CB406FCEA
:1013800004C080E064E00E9492090CB404FC03C035
:101390008CB580618CBD0EBD03C00CB404FE0BC0C7
:1013A0000DB407FEFACF112321F0812F90E00E94A7
:1013B0008A098EB501C080E01F910F910895DB016D
:1013C0008F939F930E94110ABF91AF91A29F800DAE
:1013D000911DA39F900DB29F900D11240895A1E23D
:1013E0001A2EAA1BBB1BFD010DC0AA1FBB1FEE1F9F
:1013F000FF1FA217B307E407F50720F0A21BB30BEA
:10140000E40BF50B661F771F881F991F1A9469F765
:1014100060957095809590959B01AC01BD01CF01C1
:1014200008950E94530AA59F900DB49F900DA49F0C
:10143000800D911D112408952F923F924F925F923B
:101440006F927F928F929F92AF92BF92CF92DF92D4
:10145000EF92FF920F931F93CF93DF93CDB7DEB739
:10146000CA1BDB0B0FB6F894DEBF0FBECDBF0994CD
:101470002A88398848885F846E847D848C849B8424
:10148000AA84B984C884DF80EE80FD800C811B8132
:10149000AA81B981CE0FD11D0FB6F894DEBF0FBE61
:1014A000CDBFED010895A29FB001B39FC001A39FDE
:1014B000700D811D1124911DB29F700D811D11248D
:1014C000911D0895CF93DF938230910510F482E04F
:1014D00090E0E0918D01F0918E0120E030E0A0E0FD
:1014E000B0E0309739F14081518148175907B8F081
:1014F0004817590771F482819381109729F0139648
:101500009C938E9312972CC090938E0180938D01A3
:1015100027C02115310531F04217530718F0A901F2
:10152000DB0101C0EF019A01BD01DF010280F381FF
:10153000E02DD7CF21153105F9F0281B390B2430C8
:10154000310580F48A819B816115710521F0FB01D1
:101550009383828304C090938E0180938D01FE015A
:10156000329644C0FE01E20FF31F81939193225003
:101570003109398328833AC020918B0130918C0145
:10158000232B41F4209122013091230130938C01CF
:1015900020938B01209120013091210121153105EB
:1015A00041F42DB73EB74091240150912501241BF1
:1015B000350BE0918B01F0918C01E217F307A0F459
:1015C0002E1B3F0B2817390778F0AC014E5F5F4F99
:1015D0002417350748F04E0F5F1F50938C0140933E
:1015E0008B018193919302C0E0E0F0E0CF01DF91A5
:1015F000CF910895CF93DF93009709F487C0FC0142
:10160000329713821282C0918D01D0918E01209762
:1016100081F420813181280F391F80918B019091B5
:101620008C018217930779F5F0938C01E0938B017D
:101630006DC0DE0120E030E0AE17BF0750F4129617
:101640004D915C9113979D014115510509F1DA0106
:10165000F3CFB383A28340815181840F951F8A17F2
:101660009B0771F48D919C911197840F951F0296A1
:101670009183808312968D919C911397938382839B
:101680002115310529F4F0938E01E0938D013EC0C0
:10169000D9011396FC93EE9312974D915D91A40F8F
:1016A000B51FEA17FB0779F480819181840F951F9C
:1016B0000296D90111969C938E9382819381139601
:1016C0009C938E931297E0E0F0E08A819B810097D3
:1016D00019F0FE01EC01F9CFCE0102962881398183
:1016E000820F931F20918B0130918C0128173907AD
:1016F00069F4309729F410928E0110928D0102C086
:1017000013821282D0938C01C0938B01DF91CF9111
:1017100008950F931F93CF93DF93EC018B010097F4
:1017200031F46115710519F480E090E038C06EE085
:1017300070E081E090E00E94E10DFC010097A1F3D0
:1017400080E883830115110571F01387028781E812
:10175000838380918F0190919001892B21F4F093E4
:101760009001E0938F012097C9F0D187C0878381D2
:10177000826083838091910190919201892B71F411
:10178000F0939201E09391018091930190919401E3
:10179000892B21F4F0939401E0939301CF01DF9121
:1017A000CF911F910F910895CF93DF93CDB7DEB7FF
:1017B000FE01359661917191AF01809191019091F7
:1017C00092010E94E60BDF91CF9108952F923F92F4
:1017D0004F925F926F927F928F929F92AF92BF9241
:1017E000CF92DF92EF92FF920F931F93CF93DF93ED
:1017F000CDB7DEB72C970FB6F894DEBF0FBECDBFC6
:101800007C016B018A01FC0117821682838181FFB2
:10181000BDC1CE0101964C01F7019381F60193FD04
:10182000859193FF81916F01882309F4ABC18532C3
:1018300039F493FD859193FF81916F01853229F4ED
:10184000B70190E00E941A0EE7CF512C312C20E016
:101850002032A0F48B3269F030F4803259F08332B8
:1018600069F420612CC08D3239F0803339F4216065
:1018700026C02260246023C0286021C027FD27C025
:1018800030ED380F3A3078F426FF06C0FAE05F9E5C
:10189000300D1124532E13C08AE0389E300D1124D0
:1018A000332E20620CC08E3221F426FD6BC12064E1
:1018B00006C08C3611F4206802C0883641F4F60167
:1018C00093FD859193FF81916F018111C1CF982F75
:1018D0009F7D9554933028F40C5F1F4FFFE3F983ED
:1018E0000DC0833631F0833771F0833509F05BC06A
:1018F00022C0F801808189830E5F1F4F44244394E6
:10190000512C540115C03801F2E06F0E711CF80122
:10191000A080B18026FF03C0652D70E002C06FEF8C
:101920007FEFC5012C870E940F0E2C0183012C85AF
:101930002F77222E17C03801F2E06F0E711CF801CC
:10194000A080B18026FF03C0652D70E002C06FEF5C
:101950007FEFC5012C870E94FD0D2C012C8520688E
:10196000222E830123FC1BC0832D90E048165906CC
:10197000B0F4B70180E290E00E941A0E3A94F4CFDE
:10198000F50127FC859127FE81915F01B70190E069
:101990000E941A0E31103A94F1E04F1A5108411486
:1019A000510471F7E5C0843611F0893639F5F80134
:1019B00027FF07C060817181828193810C5F1F4F77
:1019C00008C060817181882777FD8095982F0E5F10
:1019D0001F4F2F76B22E97FF09C090958095709576
:1019E00061957F4F8F4F9F4F2068B22E2AE030E0E5
:1019F000A4010E944C0EA82EA81844C0853729F4D3
:101A00002F7EB22E2AE030E025C0F22FF97FBF2EC4
:101A10008F36C1F018F4883579F0B4C0803719F0EA
:101A2000883721F0AFC02F2F2061B22EB4FE0DC039
:101A30008B2D8460B82E09C024FF0AC09F2F9660AA
:101A4000B92E06C028E030E005C020E130E002C039
:101A500020E132E0F801B7FE07C060817181828128
:101A600093810C5F1F4F06C06081718180E090E020
:101A70000E5F1F4FA4010E944C0EA82EA818FB2D2C
:101A8000FF77BF2EB6FE0BC02B2D2E7FA51450F472
:101A9000B4FE0AC0B2FC08C02B2D2E7E05C07A2CE5
:101AA0002B2D03C07A2C01C0752C24FF0DC0FE0124
:101AB000EA0DF11D8081803311F4297E09C022FFD7
:101AC00006C07394739404C0822F867809F07394CF
:101AD00023FD13C020FF06C05A2C731418F4530CB6
:101AE0005718732C731468F4B70180E290E02C87C8
:101AF0000E941A0E73942C85F5CF731410F43718C6
:101B000001C0312C24FF12C0B70180E390E02C8784
:101B10000E941A0E2C8522FF17C021FF03C088E502
:101B200090E002C088E790E0B7010CC0822F867871
:101B300059F021FD02C080E201C08BE227FD8DE259
:101B4000B70190E00E941A0EA51438F4B70180E3A3
:101B500090E00E941A0E5A94F7CFAA94F401EA0D6D
:101B6000F11D8081B70190E00E941A0EA110F5CFFF
:101B7000332009F451CEB70180E290E00E941A0EA2
:101B80003A94F6CFF7018681978102C08FEF9FEFDD
:101B90002C960FB6F894DEBF0FBECDBFDF91CF916C
:101BA0001F910F91FF90EF90DF90CF90BF90AF907B
:101BB0009F908F907F906F905F904F903F902F906D
:101BC00008950F931F93CF93DF93869F8001879F84
:101BD000100D969F100D1124C8010E94620AEC019D
:101BE000009729F0A80160E070E00E94080ECE0185
:101BF000DF91CF911F910F910895FC0105906150E5
:101C000070400110D8F7809590958E0F9F1F089512
:101C1000DC0101C06D9341505040E0F70895FC0194
:101C20006150704001900110D8F7809590958E0F0B
:101C30009F1F08950F931F93CF93DF93182F092FA2
:101C4000EB018B8181FD03C08FEF9FEF20C082FFEE
:101C500010C04E815F812C813D81421753077CF477
:101C6000E881F9819F012F5F3F4F398328831083DB
:101C700006C0E885F985812F0995892B29F72E81E2
:101C80003F812F5F3F4F3F832E83812F902FDF9126
:101C9000CF911F910F910895FA01AA27283051F191
:101CA000203181F1E8946F936E7F6E5F7F4F8F4F8D
:101CB0009F4FAF4FB1E03ED0B4E03CD0670F781FEC
:101CC000891F9A1FA11D680F791F8A1F911DA11DD1
:101CD0006A0F711D811D911DA11D20D009F468940A
:101CE0003F912AE0269F11243019305D3193DEF6B2
:101CF000CF010895462F4770405D4193B3E00FD068
:101D0000C9F7F6CF462F4F70405D4A3318F0495D52
:101D100031FD4052419302D0A9F7EACFB4E0A69535
:101D20009795879577956795BA95C9F70097610557
:101D3000710508959B01AC010A2E069457954795AD
:101D400037952795BA95C9F7620F731F841F951FA2
:081D5000A01D0895F894FFCFD7
:101D58000210000000000000000000000000000069
:101D6800000000000000010000000000000000006A
:101D7800000095012000E803F40141373A25692065
:0E1D88006D73000A41303A2569206D7300002A
:00000001FF
