:100000000C9446000C9465000C9465000C946500FB
:100010000C94320C0C94320C0C94320C0C94320C68
:100020000C9465000C9465000C9465000C94350BE1
:100030000C9465000C9465000C9465000C946500AC
:100040000C9465000C9465000C9465000C9465009C
:100050000C94EC080C94DB0A0C9465000C9465007D
:100060000C9465000C9465000C9465000C9465007C
:100070000C9417090C94040B0C9465000C94650007
:100080000C9465000C9465000C94650011241FBE4F
:10009000CFEFD0E4DEBFCDBF11E0A0E0B1E0ECEBEC
:1000A000F4E200E00BBF02C007900D92AA33B10743
:1000B000D9F721E0AAE3B1E001C01D92A53CB20747
:1000C000E1F70E94BB010C945C120C940000FF92BB
:1000D0000F931F93CF93DF93F82EC8E2D1E000E394
:1000E00011E0209177013091780121153105E1F17E
:1000F000FF2019F02150310902C02F5F3F4F30938C
:1001000078012093770160E080E00E94B103DF93E3
:10011000CF930E94860F0E942F0DBC01882777FD88
:100120008095982F0E948E0361E080E00E94B103C9
:10013000809178018F93809177018F931F930F9314
:100140000E94860F8091770190917801BC010E94F6
:100150003B0681E090E00E947D0B0F900F900F9086
:100160000F900F900F90BDCFDF91CF911F910F9106
:10017000FF900895DF92EF92FF920F931F93CF931A
:10018000DF93D82E882321F090E6E92EF12C04C0CD
:1001900080EAE82EFF24FA94C8E2D1E000E311E0FF
:1001A00020917701309178012E153F05E1F1DD2096
:1001B00019F02F5F3F4F02C0215031093093780171
:1001C0002093770160E080E00E94B103DF93CF933A
:1001D0000E94860F0E942F0DBC01882777FD809515
:1001E000982F0E948E0361E080E00E94B10380910D
:1001F00078018F93809177018F931F930F930E94C3
:10020000860F8091770190917801BC010E943B0696
:1002100081E090E00E947D0B0F900F900F900F9067
:100220000F900F90BDCFDF91CF911F910F91FF9055
:10023000EF90DF90089580E00E94BA000E94390D8F
:10024000AA2797FDA095BA2F80937301909374010C
:10025000A0937501B0937601809173019091740120
:10026000A0917501B091760140912601509127012E
:1002700080569F4FAF4FBF4F662757FD6095762F33
:1002800084179507A607B7072CF481E090E00E9439
:100290007D0BD4CF80E00E94670081E080937901DC
:1002A000089581E00E94BA000E94390DAA2797FDA7
:1002B000A095BA2F8093730190937401A093750158
:1002C000B09376018091730190917401A0917501B2
:1002D000B091760188389105A105B1052CF081E037
:1002E00090E00E947D0BE0CF81E00E9467001092B9
:1002F0007901089540E855E260E070E081E00E94F5
:100300001D0A61E081E00E94D80940E26BE771E0DC
:1003100081E00C94E9088C3469F0853529F0883443
:1003200079F45998519A089580917901882341F080
:100330000C94510180917901811102C00C941B0130
:10034000089581E00E940207E0917A018E1791F0F2
:10035000F0E0E558FE4F808190E00E948B01809193
:100360007A018F3119F410927A01EBCF8F5F80936D
:100370007A01E7CF08950E940B050E947A010E943E
:10038000310321E040E061E080E00E94250DC8E2F9
:10039000D1E000E311E00E94390DAA2797FDA09556
:1003A000BA2F8093730190937401A0937501B09359
:1003B000760160E080E00E94B103DF93CF930E945A
:1003C000860F609173017091740180917501909115
:1003D00076010E948E0361E080E00E94B10380916B
:1003E00078018F93809177018F931F930F930E94D1
:1003F000860F84E20E94FF060F900F900F900F90DF
:100400000F900F90803219F40E941B0104C08430B9
:1004100011F40E9451010E94D80A0E94A101BBCF91
:1004200080E090E0089581E090E06F9364E06A9549
:10043000F1F76F910197C9F708950F931F93CF9329
:10044000DF9317B13D982898299AC0E0D0E00E9428
:1004500013022A9A0E94130206B12A980E941302DC
:100460002A9A0E9413022A98249605FF10C09E0122
:1004700040E050E080913E0190913F01A091400109
:10048000B0914101281739074A075B0700F39E0125
:1004900040E050E080913E0190913F01A0914001E9
:1004A000B0914101281739074A075B0728F082E31A
:1004B00090E0A0E0B0E004C080E395E7A0E0B0E009
:1004C00080933E0190933F01A0934001B09341017E
:1004D00017B9DF91CF911F910F91089528B190E046
:1004E0008F709070880F991F880F991F237C282B7D
:1004F00028B92A9A0E9413022A980E94130208958A
:10050000A2E0B0E0E6E8F2E00C94DB0D182F4A839D
:1005100069830E94FB020E941D02F7B008B129986E
:1005200069814A81662311F0289A01C0289887B111
:100530008C6387B9413029F0812F82958F700E949A
:100540006E02812F8F700E946E02F7B808B9229652
:10055000E5E00C94F70D60E042E00E94800208950F
:1005600061E042E00E948002089560E041E00E9464
:10057000800208953D98459A80E395E7A0E0B0E0B9
:1005800080933E0190933F01A0934001B0934101BD
:10059000209A219A229A8EE190E00E947D0B83E0BE
:1005A0000E94B50286E090E00E947D0B83E00E94ED
:1005B000B50282E090E00E947D0B83E00E94B502CC
:1005C00082E090E00E947D0B82E00E94B50282E012
:1005D00090E00E947D0B88E20E94AB0288E00E94BE
:1005E000AB0281E00E94AB0286E00E94AB028CE08D
:1005F0000E94AB02089580914201882329F481E092
:10060000809342010E94BA02089581E00E94AB02E9
:1006100080913A0190913B01009711F1A0E0B0E286
:1006200008C0E0913A01F0913B01E20FF31FB08363
:10063000AF5F2A2F30E08091000190E00197609138
:10064000010170E0869FA001879F500D969F500D7D
:100650001124241735072CF310923D0110923C0110
:1006600008950E9405030895AAE0B0E0EAE3F3E0EC
:100670000C94D60D9B01AC011AE06AE0C62ED12C79
:10068000E12CF12C5E010894A11CB11C022FCA01BF
:10069000B901A70196010E94A10D1150F501E10FCA
:1006A000F11D005D922F990F892F880F880F890FF8
:1006B000081B0083211531054105510539F708C094
:1006C000F601E10FF11D80810E94B0021F5F04C09E
:1006D0006E010894C11CD11C1A3090F32A96EAE0EE
:1006E0000C94F20DEF92FF920F931F937B018C01FC
:1006F00097FF0BC010950095F094E094E11CF11C5D
:10070000011D111D8DE20E94B002C801B7010E94B7
:1007100034031F910F91FF90EF9008950E94720390
:100720000895A5E0B0E0E7E9F3E00C94DD0D182FA3
:1007300080E8898380EC8A8384E98B8384ED8C83D1
:10074000FE01E60FF11D8181810F6D830E94AB02D6
:1007500010933D016D8160933C012596E3E00C947C
:10076000F90D0E9491030895A0E0B0E0EAEBF3E0F8
:100770000C94D80DD82E80913A0190913B010097AE
:1007800009F4FAC02D2D2A3009F443C02830C9F4E9
:1007900080913D01815080933D018F3F51F48091C4
:1007A0003C01815080933C018091010181508093F4
:1007B0003D0180913C018F3F09F0D8C010923C016F
:1007C000D3C08D2D0E94B00280913C018823B9F0E6
:1007D00090E001974091010150E0849F9001859F36
:1007E000300D949F300D112480913D01E0913A012C
:1007F000F0913B01E20FF31FE80FF11DD0828091D1
:100800003D018F5F80933D0190910101891709F0AF
:10081000B3C040913C01242F30E08091000190E072
:1008200001972817390709F09CC0C0E0D0E041C00B
:1008300080E06C2F0E949103CC248E010F5F1F4F2C
:1008400033C0EC2CFF2430E0C29FC001C39F900D49
:10085000D29F900D1124E0913A01F0913B01EE0DF1
:10086000FF1DE80FF91F80810E94B00280913A01BC
:1008700090913B012091010130E0C29FF001C39FA4
:10088000F00DD29FF00D11248E0D9F1DE80FF91F62
:10089000029FD001039FB00D129FB00D1124A80F2D
:1008A000B91F8C918083C39420910101C21648F234
:1008B000E80160910001862F90E00297C817D907E0
:1008C0000CF4B6CF6230E0F1625080E00E949103F8
:1008D00000E010E231C0C02FD0E08091000190E034
:1008E000029750E0849F9001859F300D949F300DBA
:1008F0001124E0913A01F0913B01EC0FFD1FE20F52
:10090000F31F80810E94B0028091000190E0029765
:100910004091010150E0849F9001859F300D949F8C
:10092000300D1124E0913A01F0913B01EC0FFD1FD5
:10093000E20FF31F10830F5F40910101041758F27B
:1009400060910001615080E00E94910310E004C0BA
:1009500080E20E94B0021F5F809101011817C0F36E
:1009600003C04F5F40933C0110923D0180913D01D7
:1009700060913C010E9491032D2D332727FD309576
:10098000C901CDB7DEB7E8E00C94F40D80913A01CF
:1009900090913B01009711F00E94AC0E2091000154
:1009A00030E0215030408091010190E0AC01249F63
:1009B000C001259F900D349F900D11240E94140EAC
:1009C00090933B0180933A01009721F1A0E0B0E2BF
:1009D00008C0E0913A01F0913B01E20FF31FB083B0
:1009E000AF5F2A2F30E08091000190E00197609185
:1009F000010170E0869FA001879F500D969F500DCA
:100A00001124241735072CF384EB93E060E172E0A6
:100A10000E943B0F08950E94C6040895FC011182B4
:100A2000108213821282158214821682683068F452
:100A300089E290E0918380838BE290E093838283CC
:100A40008AE290E09583848323C0603180F483E25E
:100A500090E09183808385E290E09383828384E2B7
:100A600090E09583848370E06850704011C06831D5
:100A7000C0F486E290E09183808388E290E09383E3
:100A8000828387E290E09583848370E060517040B8
:100A900081E090E002C0880F991F6A95E2F7868393
:100AA00008956032C0F480E290E09183808382E216
:100AB00090E09383828381E290E0958384832FE1A9
:100AC00030E0261B310981E090E002C0880F991FB9
:100AD0002A95E2F786830895FC01A481B581868179
:100AE000662321F09C91982B9C9308959C9180956E
:100AF00089238C930895FC016F3F31F4A281B38167
:100B00008C91968189270CC0A281B381868166234E
:100B100021F09C91982B9C9308959C91809589231A
:100B20008C930895A7E0B0E0E8E9F5E00C94DB0DC4
:100B3000282FF62E8E010F5F1F4FC801622F0E94D3
:100B40000E05C8016F2D0E947B05C80161E00E945F
:100B50006C052796E5E00C94F70D83E08093B000D8
:100B600082E08093B100E4EBF0E01082808180931A
:100B7000B30087E160E00E94920586E160E00E9498
:100B8000920587E060E00E94920586E060E00E94A6
:100B90009205089580914301882329F481E0809390
:100BA00043010E94AD050895CF93DF93EC010E94AD
:100BB000CA05D7FF05C0D095C195DF4F91E001C0B0
:100BC00090E0CF3FD10519F014F0CFEFD0E0C09303
:100BD000B300209731F48091B0008F778093B000FC
:100BE0000EC08091B00080688093B000992319F006
:100BF00087E161E002C087E160E00E949205DF9139
:100C0000CF910895CF93DF93EC010E94CA05D7FFDF
:100C100005C0D095C195DF4F91E001C090E0CF3F76
:100C2000D10519F014F0CFEFD0E0C093B4002097B5
:100C300031F48091B0008F7D8093B0000EC0809120
:100C4000B00080628093B000992319F086E161E0E2
:100C500002C086E160E00E949205DF91CF91089585
:100C6000CF93DF93EB010E94D405CE010E940206D0
:100C7000DF91CF9108950E943006089587B1837D5A
:100C800087B988B18C6288B985E090E06F9364E0A1
:100C90006A95F1F76F910197C9F708958091440122
:100CA000882329F481E0809344010E943E06089540
:100CB000BF92CF92DF92EF92FF920F931F93B82EC5
:100CC000C6B0DC2CD0940E94B70B7B018C010E9433
:100CD0004E0680915001813021F1813038F0823010
:100CE00009F445C0833009F081C063C02B2D30E08A
:100CF0004D2D50E040955095242335232115310585
:100D000009F474C0CB20C0924B01E0924C01F092E8
:100D10004D0100934E0110934F0181E080935001EB
:100D200065C080914C0190914D01A0914E01B09110
:100D30004F01E81AF90A0A0B1B0B8FE0E816F104C1
:100D40000105110508F452C040914B018D2D90E032
:100D500080959095242F30E082239323009731F1E2
:100D600082E080935001C422C0924B013FC0409169
:100D70004B018D2D842371F093E09093500180936B
:100D80004B01E0924C01F0924D0100934E01109303
:100D90004F012CC050E08B2D90E02D2D30E02095A0
:100DA0003095822393234817590701F1109250017F
:100DB0001DC080914C0190914D01A0914E01B091C8
:100DC0004F01E81AF90A0A0B1B0B8FE0E816F10431
:100DD0000105110558F080914B018D2119F01092F9
:100DE000500105C092E09093500101C080E01F9136
:100DF0000F91FF90EF90DF90CF90BF9008950E94E9
:100E000058060895282F30E0F901EE0FFF1F43E048
:100E1000220F331F4A95E1F7E20FF31FEE5FFE4FFB
:100E200082810895282F30E0F901EE0FFF1FB3E013
:100E3000220F331FBA95E1F7E20FF31FEE5FFE4F6B
:100E4000408551854115510509F452C0282F30E0E5
:100E5000F901EE0FFF1F73E0220F331F7A95E1F7C0
:100E6000E20FF31FEE5FFE4F7281282F30E0F90191
:100E7000EE0FFF1FB3E0220F331FBA95E1F7E20F29
:100E8000F31FEE5FFE4F9481791790F5282F30E025
:100E9000F901EE0FFF1F73E0220F331F7A95E1F780
:100EA000E20FF31FEE5FFE4F9281490F511DFA01D1
:100EB0006083282F30E0F901EE0FFF1F53E0220F6F
:100EC000331F5A95E1F7E20FF31FEE5FFE4F928159
:100ED0009F5F282F30E0F901EE0FFF1FB3E0220FD4
:100EE000331FBA95E1F7E20FF31FEE5FFE4F9283D7
:100EF000282F30E0F901EE0FFF1F73E0220F331FA0
:100F00007A95E1F7E20FF31FEE5FFE4F4281282F43
:100F100030E0F901EE0FFF1F53E0220F331F5A9507
:100F2000E1F7E20FF31FEE5FFE4F9481491701F5E1
:100F3000282F30E0F901EE0FFF1F93E0220F331F3F
:100F40009A95E1F7E20FF31FEE5FFE4F958199232B
:100F500079F0282F30E0F901EE0FFF1FB3E0220FE8
:100F6000331FBA95E1F7E20FF31FEE5FFE4F1282D7
:100F700008950F931F93182F823009F475C08823AA
:100F800019F4E1ECF0E002C0E9ECF0E080818F7749
:100F90008083812F90E0FC01EE0FFF1F03E0880F9C
:100FA000991F0A95E1F7E80FF91FEE5FFE4F808564
:100FB00091850097A9F1212F30E0F901EE0FFF1F75
:100FC000A3E0220F331FAA95E1F7E20FF31FEE5FB4
:100FD000FE4F9281212F30E0F901EE0FFF1F63E0F9
:100FE000220F331F6A95E1F7E20FF31FEE5FFE4F0A
:100FF00084819817A8F4112319F4E0ECF0E002C002
:10100000E8ECF0E0808187FF0BC0112319F4E6ECD7
:10101000F0E002C0EEECF0E06081812F0E94120748
:10102000212F30E0F901EE0FFF1F43E0220F331FA5
:101030004A95E1F7E20FF31FEE5FFE4F80818823B0
:1010400009F059C0112319F4E1ECF0E002C0E9EC19
:10105000F0E08081806880834EC080911B018823EE
:1010600019F01092180147C080911E0190911F0144
:10107000009709F440C09091180180911A019817C7
:10108000D0F5809151018823A9F40E94BF0B809371
:10109000510110E00BC00E94BA0BE02FF0E0319735
:1010A000E11BF109EE5AFE4F80831F5F0091510151
:1010B000101788F3A0915101AA23E9F0809118013B
:1010C000E0911E01F0911F01E80FF11DA150A093C6
:1010D0005101B0E0AE5ABE4F8C91808380911801CF
:1010E0008F5F809318019091180180911A019817D1
:1010F00009F0BACFB2CF1F910F910895823051F00D
:10110000882319F4E1ECF0E002C0E9ECF0E0908112
:101110009F779083A82FB0E0FD01EE0FFF1F53E0F3
:10112000AA0FBB1F5A95E1F7EA0FFB1FEE5FFE4FB8
:1011300071876087682F70E0FB01EE0FFF1F93E05F
:10114000660F771F9A95E1F7E60FF71FEE5FFE4FE8
:101150001282682F70E0FB01EE0FFF1FA3E0660F05
:10116000771FAA95E1F7E60FF71FEE5FFE4F448366
:10117000482F50E0FA01EE0FFF1F63E0440F551FA8
:101180006A95E1F7E40FF51FEE5FFE4F258382308D
:10119000D9F0282F30E0F901EE0FFF1F43E0220FB6
:1011A000331F4A95E1F7E20FF31FEE5FFE4F908188
:1011B000992351F4882319F4E1ECF0E002C0E9EC42
:1011C000F0E0808180688083089521E00E947E089D
:1011D00008950E94E50808951F920F920FB60F928E
:1011E0000BB60F9211242F933F934F935F936F93FE
:1011F0007F938F939F93AF93BF93EF93FF936091F0
:10120000C60080E00E941207FF91EF91BF91AF915D
:101210009F918F917F916F915F914F913F912F910E
:101220000F900BBE0F900FBE0F901F9018951F923E
:101230000F920FB60F920BB60F9211242F933F937C
:101240004F935F936F937F938F939F93AF93BF93CE
:10125000EF93FF936091CE0081E00E941207FF910F
:10126000EF91BF91AF919F918F917F916F915F911E
:101270004F913F912F910F900BBE0F900FBE0F908B
:101280001F901895882319F4E1ECF0E002C0E9EC16
:10129000F0E08081806280830895882319F4E1EC76
:1012A000F0E002C0E9ECF0E080818F7D808308955A
:1012B000282F30E0F901EE0FFF1F93E0220F331FBC
:1012C0009A95E1F7E20FF31FEE5FFE4F268137811B
:1012D00021153105A1F1282F30E0F901EE0FFF1F94
:1012E000A3E0220F331FAA95E1F7E20FF31FEE5F91
:1012F000FE4F4181282F30E0F901EE0FFF1F63E020
:10130000220F331F6A95E1F7E20FF31FEE5FFE4FE6
:1013100093814917A0F4282F30E0F901EE0FFF1F49
:1013200043E0220F331F4A95E1F7E20FF31FEE5F10
:10133000FE4F9081992319F40E94420908950E945A
:101340004D090895823031F1282F30E0F901EE0F78
:10135000FF1F53E0220F331F5A95E1F7E20FF31FEF
:10136000EE5FFE4F9081992349F4882319F4E1EC54
:10137000F0E002C0E9ECF0E098E908C0882319F435
:10138000E1ECF0E002C0E9ECF0E098E190830E942B
:10139000580978940895882319F0813041F404C0E5
:1013A00080E00E94A209089581E00E94A2090895A8
:1013B000282F30E0F901EE0FFF1FB3E0220F331F9B
:1013C000BA95E1F7E20FF31FEE5FFE4F60830E94D4
:1013D000CB090895A0E0B0E0E0EFF9E00C94D90D5E
:1013E000D82E7A018B010E94CB098D2D823001F11C
:1013F000DD2019F4C4ECD0E002C0CCECD0E0C80190
:10140000B70128EF3FEF4FEF5FEF0E94910D605063
:10141000734D8E4C9E4FA8019701E4E0220F331FBD
:10142000441F551FEA95D1F70E94A10D39832883E7
:10143000CDB7DEB7E7E00C94F50D0E94EA090895F8
:10144000282F30E0F901EE0FFF1F73E0220F331F4A
:101450007A95E1F7E20FF31FEE5FFE4F4681578169
:101460004115510509F465C0282F30E0F901EE0F50
:10147000FF1F93E0220F331F9A95E1F7E20FF31F4E
:10148000EE5FFE4F6181282F30E0F901EE0FFF1F64
:10149000A3E0220F331FAA95E1F7E20FF31FEE5FDF
:1014A000FE4F9381691708F044C0882319F4E0ECDB
:1014B000F0E002C0E8ECF0E0908195FF3AC08823AC
:1014C00019F4A6ECB0E002C0AEECB0E0282F30E09A
:1014D000F901EE0FFF1F63E0220F331F6A95E1F75A
:1014E000E20FF31FEE5FFE4F9181490F511DFA018C
:1014F00090819C93282F30E0F901EE0FFF1F93E0BD
:10150000220F331F9A95E1F7E20FF31FEE5FFE4FB4
:1015100091819F5F282F30E0F901EE0FFF1FA3E0BC
:10152000220F331FAA95E1F7E20FF31FEE5FFE4F84
:1015300091830E94580908951F93182F823031F02B
:101540000E944D09812F0E94200A1DC080911C011C
:1015500090911D010097B9F0309117012091190168
:10156000321788F406C0809117018F5F80931701AE
:10157000EDCF20911701820F911DFC0180810E9407
:10158000C60B882381F71F91089580E00E949C0A72
:1015900081E00E949C0A82E00E949C0A80E00E94F6
:1015A000B90781E00E94B90782E00E94B907089557
:1015B0000E94C50A08951F920F920FB60F920BB6A4
:1015C0000F9211242F933F934F935F936F937F93C9
:1015D0008F939F93AF93BF93EF93FF9380E00E940D
:1015E000200AFF91EF91BF91AF919F918F917F91D1
:1015F0006F915F914F913F912F910F900BBE0F9084
:101600000FBE0F901F9018951F920F920FB60F925A
:101610000BB60F9211242F933F934F935F936F93C9
:101620007F938F939F93AF93BF93EF93FF9381E04B
:101630000E94200AFF91EF91BF91AF919F918F91EE
:101640007F916F915F914F913F912F910F900BBEC2
:101650000F900FBE0F901F9018956F9364E06A95DE
:10166000F1F76F910197C9F708952F928F939F9388
:101670002FB680915B0190915C01019680935B0194
:1016800090935C0190E080915D01891F80935D01E2
:10169000909163019C5F90936301809162018051FE
:1016A0009742C0F0909363018093620180915E0144
:1016B00090915F01019680935E0190935F0190E0AD
:1016C00080916001891F8093600180916101891F71
:1016D000809361012FBE9F918F912F901895CF938A
:1016E000DF93EC0105C088EE93E00E942D0B21975B
:1016F0002097C9F7DF91CF9108950E946F0B08954D
:10170000E0E7F0E080818E7F8083A0EBB0E08C91F9
:1017100083608C93A1EBB0E08C91807F8C938C9153
:1017200082608C93B89A80818160808378940895D8
:1017300080916401882329F481E0809364010E94F0
:10174000800B08950E94980BE0E7F0E080818E7F87
:10175000808320915E0130915F0140916001509142
:101760006101808181608083B901CA0108950E946E
:10177000A20B08958FEF64E00E946C0D089583E83A
:1017800067E00E946C0D0E94BA0B08951F93182FFA
:10179000982F9095991F9927991F85E8891B65E0D7
:1017A0000E946C0D812F8F7765E00E946C0D1F9158
:1017B0000895A7E0B0E0EFEDFBE00C94DE0D682F9C
:1017C000CE0101960E940E0589819A818032910591
:1017D00031F480916B009F81892B80936B0089810C
:1017E0009A818332910531F480916C009F81892B1D
:1017F00080936C0089819A818632910531F48091C1
:101800006D009F81892B80936D0089819A81893237
:10181000910531F4809173009F81892B809373002F
:10182000ED81FE8190818F818095892380838FEF68
:10183000809368002796E2E00C94FA0DA7E0B0E0F0
:10184000E4E2FCE00C94DE0D682FCE0101960E94CC
:101850000E05E981FA8190818F8189232796E2E044
:101860000C94FA0D1F920F920FB60F920BB60F92B7
:101870001124FF920F931F932F933F934F935F93E6
:101880006F937F938F939F93AF93BF93EF93FF9348
:1018900080916B010E941E0CF82E80916D010E94B8
:1018A0001E0C182F80916C010E941E0C082F809135
:1018B0006E010E941E0C4091700160916F01509169
:1018C000720190917101F41651F0209169013091EB
:1018D0006A012F5F3F4F30936A0120936901061719
:1018E00051F02091690130916A01215030403093CC
:1018F0006A0120936901151751F020916701309119
:1019000068012F5F3F4F309368012093670189176B
:1019100051F020916701309168012150304030939F
:10192000680120936701EF2DF0E0772767FD709540
:10193000E617F70759F0602F70E0552747FD5095DF
:101940006417750719F021E020936601412F50E0DC
:10195000292F332727FD30954217530769F0482F69
:1019600050E020917201332727FD3095421753072D
:1019700019F091E090936501F0926F01009370016E
:101980001093710180937201FF91EF91BF91AF911C
:101990009F918F917F916F915F914F913F912F9187
:1019A0001F910F91FF900F900BBE0F900FBE0F90E5
:1019B0001F901895A3E0B0E0E0EEFCE00C94DE0D83
:1019C00080936B0160936C0140936D0120936E01D5
:1019D000F8942B834A8369830E94D90B6981862FEF
:1019E0000E94D90B4A81842F0E94D90B2B81822F10
:1019F0000E94D90B10926A0110926901109268013D
:101A000010926701109266011092650180916B013E
:101A10000E941E0C80936F0180916C010E941E0C2D
:101A20008093700180916D010E941E0C8093710162
:101A300080916E010E941E0C809372018FEF8BBB10
:101A400078942396E2E00C94FA0D0E94DA0C089543
:101A5000F8948091690190916A01789408950E94A8
:101A6000280D0895F8948091670190916801789409
:101A700008950E94320D08956F9364E06A95F1F71E
:101A80006F910197C9F70895A1E0B0E0EAE4FDE0A5
:101A90000C94DD0D182F249909C02C9907C02C9A9D
:101AA0008EE190E069830E943C0D698184B1806A77
:101AB00084B92698812F837080656C7A862B8CBDC3
:101AC00081E012FF80E08DBD81E090E00E946F0B0D
:101AD0002196E3E00C94F90D0F931F93082F162F16
:101AE0000CB406FC04C080E064E00E94440D0CB419
:101AF00004FC03C08CB580618CBD0EBD03C00CB46A
:101B000004FE0BC00DB407FEFACF112321F0812F84
:101B100090E00E943C0D8EB501C080E01F910F91B6
:101B20000895DB018F939F930E94C30DBF91AF91E6
:101B3000A29F800D911DA39F900DB29F900D112427
:101B40000895A1E21A2EAA1BBB1BFD010DC0AA1FFE
:101B5000BB1FEE1FFF1FA217B307E407F50720F016
:101B6000A21BB30BE40BF50B661F771F881F991F91
:101B70001A9469F760957095809590959B01AC01DA
:101B8000BD01CF0108950E94050EA59F900DB49F41
:101B9000900DA49F800D911D112408952F923F92C6
:101BA0004F925F926F927F928F929F92AF92BF926D
:101BB000CF92DF92EF92FF920F931F93CF93DF9319
:101BC000CDB7DEB7CA1BDB0B0FB6F894DEBF0FBE76
:101BD000CDBF09942A88398848885F846E847D84C3
:101BE0008C849B84AA84B984C884DF80EE80FD80C5
:101BF0000C811B81AA81B981CE0FD11D0FB6F8943B
:101C0000DEBF0FBECDBFED010895A29FB001B39F0F
:101C1000C001A39F700D811D1124911DB29F700DF5
:101C2000811D1124911D0895CF93DF93823091057A
:101C300010F482E090E0E091BD01F091BE0120E05F
:101C400030E0A0E0B0E0309739F140815181481791
:101C50005907B8F04817590771F48281938110979A
:101C600029F013969C938E9312972CC09093BE01EB
:101C70008093BD0127C02115310531F0421753076C
:101C800018F0A901DB0101C0EF019A01BD01DF01DC
:101C90000280F381E02DD7CF21153105F9F0281B03
:101CA000390B2430310580F48A819B8161157105DF
:101CB00021F0FB019383828304C09093BE01809343
:101CC000BD01FE01329644C0FE01E20FF31F819375
:101CD000919322503109398328833AC02091BB0166
:101CE0003091BC01232B41F420912201309123013A
:101CF0003093BC012093BB01209120013091210140
:101D00002115310541F42DB73EB740912401509182
:101D10002501241B350BE091BB01F091BC01E217BA
:101D2000F307A0F42E1B3F0B2817390778F0AC01FE
:101D30004E5F5F4F2417350748F04E0F5F1F5093DB
:101D4000BC014093BB018193919302C0E0E0F0E0BD
:101D5000CF01DF91CF910895CF93DF93009709F4DE
:101D600087C0FC01329713821282C091BD01D091CD
:101D7000BE01209781F420813181280F391F809185
:101D8000BB019091BC018217930779F5F093BC01D8
:101D9000E093BB016DC0DE0120E030E0AE17BF076D
:101DA00050F412964D915C9113979D014115510588
:101DB00009F1DA01F3CFB383A28340815181840F0B
:101DC000951F8A179B0771F48D919C911197840F31
:101DD000951F02969183808312968D919C91139703
:101DE000938382832115310529F4F093BE01E0939A
:101DF000BD013EC0D9011396FC93EE9312974D910D
:101E00005D91A40FB51FEA17FB0779F480819181DA
:101E1000840F951F0296D90111969C938E9382810F
:101E2000938113969C938E931297E0E0F0E08A8161
:101E30009B81009719F0FE01EC01F9CFCE010296CB
:101E400028813981820F931F2091BB013091BC0101
:101E50002817390769F4309729F41092BE011092BF
:101E6000BD0102C013821282D093BC01C093BB019A
:101E7000DF91CF9108950F931F93CF93DF93EC01E0
:101E80008B01009731F46115710519F480E090E041
:101E900038C06EE070E081E090E00E949311FC0198
:101EA0000097A1F380E883830115110571F0138772
:101EB000028781E883838091BF019091C001892BC3
:101EC00021F4F093C001E093BF012097C9F0D187BE
:101ED000C0878381826083838091C1019091C20118
:101EE000892B71F4F093C201E093C1018091C30189
:101EF0009091C401892B21F4F093C401E093C301B4
:101F0000CF01DF91CF911F910F910895CF93DF9370
:101F1000CDB7DEB7FE01359661917191AF01809129
:101F2000C1019091C2010E94980FDF91CF91089555
:101F30002F923F924F925F926F927F928F929F92D9
:101F4000AF92BF92CF92DF92EF92FF920F931F93C7
:101F5000CF93DF93CDB7DEB72C970FB6F894DEBFE3
:101F60000FBECDBF7C016B018A01FC011782168276
:101F7000838181FFBDC1CE0101964C01F7019381A0
:101F8000F60193FD859193FF81916F01882309F4F8
:101F9000ABC1853239F493FD859193FF81916F0137
:101FA000853229F4B70190E00E94CC11E7CF512C83
:101FB000312C20E02032A0F48B3269F030F48032F2
:101FC00059F0833269F420612CC08D3239F08033AE
:101FD00039F4216026C02260246023C0286021C01B
:101FE00027FD27C030ED380F3A3078F426FF06C0C1
:101FF000FAE05F9E300D1124532E13C08AE0389E04
:10200000300D1124332E20620CC08E3221F426FDB7
:102010006BC1206406C08C3611F4206802C088367B
:1020200041F4F60193FD859193FF81916F01811138
:10203000C1CF982F9F7D9554933028F40C5F1F4F8C
:10204000FFE3F9830DC0833631F0833771F08335B8
:1020500009F05BC022C0F801808189830E5F1F4FA9
:1020600044244394512C540115C03801F2E06F0E02
:10207000711CF801A080B18026FF03C0652D70E0BF
:1020800002C06FEF7FEFC5012C870E94C1112C01A8
:1020900083012C852F77222E17C03801F2E06F0EB6
:1020A000711CF801A080B18026FF03C0652D70E08F
:1020B00002C06FEF7FEFC5012C870E94AF112C018A
:1020C0002C852068222E830123FC1BC0832D90E0E9
:1020D00048165906B0F4B70180E290E00E94CC1196
:1020E0003A94F4CFF50127FC859127FE81915F0199
:1020F000B70190E00E94CC1131103A94F1E04F1AF0
:1021000051084114510471F7E5C0843611F0893645
:1021100039F5F80127FF07C06081718182819381C1
:102120000C5F1F4F08C060817181882777FD809503
:10213000982F0E5F1F4F2F76B22E97FF09C09095F4
:102140008095709561957F4F8F4F9F4F2068B22E7D
:102150002AE030E0A4010E94FE11A82EA81844C075
:10216000853729F42F7EB22E2AE030E025C0F22FE9
:10217000F97FBF2E8F36C1F018F4883579F0B4C0DE
:10218000803719F0883721F0AFC02F2F2061B22E91
:10219000B4FE0DC08B2D8460B82E09C024FF0AC088
:1021A0009F2F9660B92E06C028E030E005C020E1E0
:1021B00030E002C020E132E0F801B7FE07C06081E4
:1021C0007181828193810C5F1F4F06C06081718194
:1021D00080E090E00E5F1F4FA4010E94FE11A82E28
:1021E000A818FB2DFF77BF2EB6FE0BC02B2D2E7F20
:1021F000A51450F4B4FE0AC0B2FC08C02B2D2E7EEC
:1022000005C07A2C2B2D03C07A2C01C0752C24FF1D
:102210000DC0FE01EA0DF11D8081803311F4297E8D
:1022200009C022FF06C07394739404C0822F86787D
:1022300009F0739423FD13C020FF06C05A2C7314B9
:1022400018F4530C5718732C731468F4B70180E218
:1022500090E02C870E94CC1173942C85F5CF7314D9
:1022600010F4371801C0312C24FF12C0B70180E3ED
:1022700090E02C870E94CC112C8522FF17C021FFF3
:1022800003C088E590E002C088E790E0B7010CC089
:10229000822F867859F021FD02C080E201C08BE2D6
:1022A00027FD8DE2B70190E00E94CC11A51438F40F
:1022B000B70180E390E00E94CC115A94F7CFAA9422
:1022C000F401EA0DF11D8081B70190E00E94CC116C
:1022D000A110F5CF332009F451CEB70180E290E090
:1022E0000E94CC113A94F6CFF7018681978102C003
:1022F0008FEF9FEF2C960FB6F894DEBF0FBECDBFC9
:10230000DF91CF911F910F91FF90EF90DF90CF90D1
:10231000BF90AF909F908F907F906F905F904F9005
:102320003F902F9008950F931F93CF93DF93869F35
:102330008001879F100D969F100D1124C8010E94E7
:10234000140EEC01009729F0A80160E070E00E94F3
:10235000BA11CE01DF91CF911F910F910895FC0129
:102360000590615070400110D8F7809590958E0FC0
:102370009F1F0895DC0101C06D9341505040E0F76C
:102380000895FC016150704001900110D8F78095CC
:1023900090958E0F9F1F08950F931F93CF93DF93F8
:1023A000182F092FEB018B8181FD03C08FEF9FEF69
:1023B00020C082FF10C04E815F812C813D81421779
:1023C00053077CF4E881F9819F012F5F3F4F3983E8
:1023D0002883108306C0E885F985812F0995892B0C
:1023E00029F72E813F812F5F3F4F3F832E83812F1F
:1023F000902FDF91CF911F910F910895FA01AA2795
:10240000283051F1203181F1E8946F936E7F6E5F37
:102410007F4F8F4F9F4FAF4FB1E03ED0B4E03CD0E5
:10242000670F781F891F9A1FA11D680F791F8A1FC8
:10243000911DA11D6A0F711D811D911DA11D20D02F
:1024400009F468943F912AE0269F11243019305DE9
:102450003193DEF6CF010895462F4770405D4193DA
:10246000B3E00FD0C9F7F6CF462F4F70405D4A3327
:1024700018F0495D31FD4052419302D0A9F7EACFEF
:10248000B4E0A6959795879577956795BA95C9F71E
:1024900000976105710508959B01AC010A2E069411
:1024A0005795479537952795BA95C9F7620F731FCA
:0C24B000841F951FA01D0895F894FFCF15
:1024BC0002100000000000000000000000000000FE
:1024CC0000000000000001000000000000000000FF
:1024DC000000C5012000AA0A456E636F64653A00CE
:0A24EC0053706565643A2564000032
:00000001FF
