:100000000C9446000C9465000C9465000C946500FB
:100010000C94A1070C94A1070C94A1070C94A107C0
:100020000C9465000C9465000C9465000C94C30658
:100030000C9465000C9465000C9465000C946500AC
:100040000C9465000C9465000C9465000C9465009C
:100050000C9465000C9465000C9465000C9465008C
:100060000C9465000C9465000C9465000C9465007C
:100070000C9465000C9465000C9465000C9465006C
:100080000C9465000C9465000C94650011241FBE4F
:10009000CFEFD0E4DEBFCDBF11E0A0E0B1E0ECE9EE
:1000A000FAE100E00BBF02C007900D92AC31B1073E
:1000B000D9F721E0ACE1B1E001C01D92AD35B20746
:1000C000E1F70E947A010C944C0D0C940000FF9211
:1000D0000F931F93CF93DF93F82ECAE0D1E002E194
:1000E00011E0209150013091510121153105E1F1CC
:1000F000FF2019F02150310902C02F5F3F4F30938C
:1001000051012093500160E080E00E946A03DF9378
:10011000CF930E94760A0E949E08BC01882777FD33
:100120008095982F0E94470361E080E00E946A0357
:10013000809151018F93809150018F931F930F9362
:100140000E94760A8091500190915101BC010E9459
:10015000F40581E090E00E940B070F900F900F9044
:100160000F900F900F90BDCFDF91CF911F910F9106
:10017000FF900895DF92EF92FF920F931F93CF931A
:10018000DF93D82E882321F090E6E92EF12C04C0CD
:1001900080EAE82EFF24FA94CAE0D1E002E111E0FF
:1001A00020915001309151012E153F05E1F1DD20E4
:1001B00019F02F5F3F4F02C0215031093093510198
:1001C0002093500160E080E00E946A03DF93CF93A8
:1001D0000E94760A0E949E08BC01882777FD8095C0
:1001E000982F0E94470361E080E00E946A0380919B
:1001F00051018F93809150018F931F930F930E9411
:10020000760A8091500190915101BC010E94F40541
:1002100081E090E00E940B070F900F900F900F90DD
:100220000F900F90BDCFDF91CF911F910F91FF9055
:10023000EF90DF90089580E00E94BA000E94A80825
:10024000AA2797FDA095BA2F80934C0190934D015A
:10025000A0934E01B0934F0180914C0190914D01BC
:10026000A0914E01B0914F014091080150910901B8
:1002700080569F4FAF4FBF4F662757FD6095762F33
:1002800084179507A607B7072CF481E090E00E9439
:100290000B07D4CF80E00E94670081E08093520179
:1002A000089581E00E94BA000E94A808AA2797FD3D
:1002B000A095BA2F80934C0190934D01A0934E01CD
:1002C000B0934F0180914C0190914D01A0914E014E
:1002D000B0914F0188389105A105B1052CF081E05E
:1002E00090E00E940B07E0CF81E00E94670010922F
:1002F000520108950E94C4040E94EA0223E042E0F1
:1003000063E082E00E949408CAE0D1E002E111E0DB
:100310000E94A808AA2797FDA095BA2F80934C01A8
:1003200090934D01A0934E01B0934F0160E080E0A7
:100330000E946A03DF93CF930E94760A60914C017A
:1003400070914D0180914E0190914F010E944703A1
:1003500061E080E00E946A03809151018F93809157
:1003600050018F931F930F930E94760A8CE20E9494
:10037000B8060F900F900F900F900F900F90803253
:1003800019F40E941B01C4CF843011F60E94510160
:10039000BFCF80E090E0089581E090E06F9364E04B
:1003A0006A95F1F76F910197C9F708950F931F931D
:1003B000CF93DF9317B13D982898299AC0E0D0E0F9
:1003C0000E94CC012A9A0E94CC0106B12A980E9470
:1003D000CC012A9A0E94CC012A98249605FF10C0CD
:1003E0009E0140E050E08091200190912101A09178
:1003F0002201B0912301281739074A075B0700F350
:100400009E0140E050E08091200190912101A09157
:100410002201B0912301281739074A075B0728F00A
:1004200082E390E0A0E0B0E004C080E395E7A0E0C4
:10043000B0E08093200190932101A0932201B0931A
:10044000230117B9DF91CF911F910F91089528B122
:1004500090E08F709070880F991F880F991F237CF0
:10046000282B28B92A9A0E94CC012A980E94CC01F4
:100470000895A2E0B0E0EFE3F2E00C94DA08182F60
:100480004A8369830E94B4020E94D601F7B008B182
:10049000299869814A81662311F0289A01C0289819
:1004A00087B18C6387B9413029F0812F82958F7095
:1004B0000E942702812F8F700E942702F7B808B987
:1004C0002296E5E00C94F60860E042E00E943902D2
:1004D000089561E042E00E943902089560E041E041
:1004E0000E94390208953D98459A80E395E7A0E07F
:1004F000B0E08093200190932101A0932201B0935A
:100500002301209A219A229A8EE190E00E940B0703
:1005100083E00E946E0286E090E00E940B0783E079
:100520000E946E0282E090E00E940B0783E00E942E
:100530006E0282E090E00E940B0782E00E946E0251
:1005400082E090E00E940B0788E20E94640288E04B
:100550000E94640281E00E94640286E00E946402BC
:100560008CE00E946402089580912401882329F47C
:1005700081E0809324010E947302089581E00E942B
:10058000640280911C0190911D01009711F1A0E07F
:10059000B0E208C0E0911C01F0911D01E20FF31FD1
:1005A000B083AF5F2A2F30E08091000190E0019787
:1005B0006091010170E0869FA001879F500D969F7A
:1005C000500D1124241735072CF310921F0110929F
:1005D0001E0108950E94BE020895AAE0B0E0E3EF74
:1005E000F2E00C94D5089B01AC011AE06AE0C62E3B
:1005F000D12CE12CF12C5E010894A11CB11C022F1E
:10060000CA01B901A70196010E94AB081150F5017A
:10061000E10FF11D005D922F990F892F880F880F30
:10062000890F081B0083211531054105510539F754
:1006300008C0F601E10FF11D80810E9469021F5F71
:1006400004C06E010894C11CD11C1A3090F32A9684
:10065000EAE00C94F108EF92FF920F931F937B0155
:100660008C0197FF0BC010950095F094E094E11C6D
:10067000F11C011D111D8DE20E946902C801B70124
:100680000E94ED021F910F91FF90EF9008950E943C
:100690002B030895A5E0B0E0E0E5F3E00C94DC085E
:1006A000182F80E8898380EC8A8384E98B8384ED2A
:1006B0008C83FE01E60FF11D8181810F6D830E9405
:1006C000640210931F016D8160931E012596E3E083
:1006D0000C94F8080E944A030895A0E0B0E0E3E714
:1006E000F3E00C94D708D82E80911C0190911D0145
:1006F000009709F4FAC02D2D2A3009F443C02830A0
:10070000C9F480911F01815080931F018F3F51F4E4
:1007100080911E01815080931E01809101018150C2
:1007200080931F0180911E018F3F09F0D8C0109265
:100730001E01D3C08D2D0E94690280911E01882365
:10074000B9F090E001974091010150E0849F900141
:10075000859F300D949F300D112480911F01E091F1
:100760001C01F0911D01E20FF31FE80FF11DD08273
:1007700080911F018F5F80931F0190910101891764
:1007800009F0B3C040911E01242F30E08091000198
:1007900090E001972817390709F09CC0C0E0D0E02D
:1007A00041C080E06C2F0E944A03CC248E010F5F71
:1007B0001F4F33C0EC2CFF2430E0C29FC001C39F09
:1007C000900DD29F900D1124E0911C01F0911D011C
:1007D000EE0DFF1DE80FF91F80810E9469028091D4
:1007E0001C0190911D012091010130E0C29FF00198
:1007F000C39FF00DD29FF00D11248E0D9F1DE80FA9
:10080000F91F029FD001039FB00D129FB00D11245C
:10081000A80FB91F8C918083C39420910101C21647
:1008200048F2E80160910001862F90E00297C81716
:10083000D9070CF4B6CF6230E0F1625080E00E943C
:100840004A0300E010E231C0C02FD0E080910001E7
:1008500090E0029750E0849F9001859F300D949F17
:10086000300D1124E0911C01F0911D01EC0FFD1FD2
:10087000E20FF31F80810E9469028091000190E0E5
:1008800002974091010150E0849F9001859F300DB7
:10089000949F300D1124E0911C01F0911D01EC0F8B
:1008A000FD1FE20FF31F10830F5F4091010104173A
:1008B00058F260910001615080E00E944A0310E00C
:1008C00004C080E20E9469021F5F80910101181735
:1008D000C0F303C04F5F40931E0110921F0180912F
:1008E0001F0160911E010E944A032D2D332727FD11
:1008F0003095C901CDB7DEB7E8E00C94F3088091DC
:100900001C0190911D01009711F00E949C092091FB
:10091000000130E0215030408091010190E0AC01B5
:10092000249FC001259F900D349F900D11240E949B
:10093000040990931D0180931C01009721F1A0E010
:10094000B0E208C0E0911C01F0911D01E20FF31F1D
:10095000B083AF5F2A2F30E08091000190E00197D3
:100960006091010170E0869FA001879F500D969FC6
:10097000500D1124241735072CF38DE693E069EC14
:1009800071E00E942B0A08950E947F040895FC01E3
:1009900011821082138212821582148216826830AC
:1009A00068F489E290E0918380838BE290E0938306
:1009B00082838AE290E09583848323C0603180F44F
:1009C00083E290E09183808385E290E09383828349
:1009D00084E290E09583848370E06850704011C099
:1009E0006831C0F486E290E09183808388E290E0F1
:1009F0009383828387E290E09583848370E06051E3
:100A0000704081E090E002C0880F991F6A95E2F77C
:100A1000868308956032C0F480E290E09183808301
:100A200082E290E09383828381E290E095838483E5
:100A30002FE130E0261B310981E090E002C0880FF1
:100A4000991F2A95E2F786830895FC01A481B58158
:100A50008681662321F09C91982B9C9308959C910C
:100A6000809589238C930895FC016F3F31F4A28116
:100A7000B3818C91968189270CC0A281B381868134
:100A8000662321F09C91982B9C9308959C918095CE
:100A900089238C930895A7E0B0E0E1E5F5E00C949C
:100AA000DA08282FF62E8E010F5F1F4FC801622F24
:100AB0000E94C704C8016F2D0E943405C80161E07F
:100AC0000E9425052796E5E00C94F60883E08093C4
:100AD000B00082E08093B100E4EBF0E0108280810E
:100AE0008093B30087E160E00E944B0586E160E0FF
:100AF0000E944B0587E060E00E944B0586E060E0C5
:100B00000E944B05089580912501882329F481E0F6
:100B1000809325010E9466050895CF93DF93EC0131
:100B20000E948305D7FF05C0D095C195DF4F91E0A6
:100B300001C090E0CF3FD10519F014F0CFEFD0E025
:100B4000C093B300209731F48091B0008F778093E9
:100B5000B0000EC08091B00080688093B0009923EF
:100B600019F087E161E002C087E160E00E944B0577
:100B7000DF91CF910895CF93DF93EC010E9483051D
:100B8000D7FF05C0D095C195DF4F91E001C090E03F
:100B9000CF3FD10519F014F0CFEFD0E0C093B400EF
:100BA000209731F48091B0008F7D8093B0000EC00B
:100BB0008091B00080628093B000992319F086E1A3
:100BC00061E002C086E160E00E944B05DF91CF91B9
:100BD0000895CF93DF93EB010E948D05CE010E9413
:100BE000BB05DF91CF9108950E94E905089587B173
:100BF000837D87B988B18C6288B985E090E06F9376
:100C000064E06A95F1F76F910197C9F708958091B3
:100C10002601882329F481E0809326010E94F705AC
:100C20000895BF92CF92DF92EF92FF920F931F939E
:100C3000B82EC6B0DC2CD0940E9445077B018C01F5
:100C40000E94070680913201813021F1813038F015
:100C5000823009F445C0833009F081C063C02B2D78
:100C600030E04D2D50E0409550952423352321153B
:100C7000310509F474C0CB20C0922D01E0922E0101
:100C8000F0922F01009330011093310181E08093A5
:100C9000320165C080912E0190912F01A091300109
:100CA000B0913101E81AF90A0A0B1B0B8FE0E81624
:100CB000F1040105110508F452C040912D018D2D5C
:100CC00090E080959095242F30E082239323009725
:100CD00031F182E080933201C422C0922D013FC0E5
:100CE00040912D018D2D842371F093E0909332017A
:100CF00080932D01E0922E01F0922F01009330019C
:100D0000109331012CC050E08B2D90E02D2D30E060
:100D100020953095822393234817590701F11092AB
:100D200032011DC080912E0190912F01A0913001C0
:100D3000B0913101E81AF90A0A0B1B0B8FE0E81693
:100D4000F1040105110558F080912D018D2119F054
:100D50001092320105C092E09093320101C080E010
:100D60001F910F91FF90EF90DF90CF90BF9008956B
:100D70000E94110608956F9364E06A95F1F76F91F0
:100D80000197C9F708952F928F939F932FB6809163
:100D9000340190913501019680933401909335018F
:100DA00090E080913601891F8093360190913C013B
:100DB0009C5F90933C0180913B0180519742C0F031
:100DC00090933C0180933B018091370190913801D1
:100DD0000196809337019093380190E0809139011A
:100DE000891F8093390180913A01891F80933A01CC
:100DF0002FBE9F918F912F901895CF93DF93EC0189
:100E000005C088EE93E00E94BB0621972097C9F7A2
:100E1000DF91CF9108950E94FD060895E0E7F0E08C
:100E200080818E7F8083A0EBB0E08C9183608C9377
:100E3000A1EBB0E08C91807F8C938C9182608C933D
:100E4000B89A8081816080837894089580913D0173
:100E5000882329F481E080933D010E940E070895C4
:100E60000E942607E0E7F0E080818E7F808320915A
:100E70003701309138014091390150913A01808118
:100E800081608083B901CA0108950E9430070895E6
:100E9000A7E0B0E0EEE4F7E00C94DD08682FCE01A7
:100EA00001960E94C70489819A818032910531F4AC
:100EB00080916B009F81892B80936B0089819A813F
:100EC0008332910531F480916C009F81892B80934E
:100ED0006C0089819A818632910531F480916D0090
:100EE0009F81892B80936D0089819A818932910538
:100EF00031F4809173009F81892B80937300ED8181
:100F0000FE8190818F818095892380838FEF8093EC
:100F100068002796E2E00C94F908A7E0B0E0E3E966
:100F2000F7E00C94DD08682FCE0101960E94C704FB
:100F3000E981FA8190818F8189232796E2E00C94E0
:100F4000F9081F920F920FB60F920BB60F92112451
:100F5000FF920F931F932F933F934F935F936F9342
:100F60007F938F939F93AF93BF93EF93FF93809162
:100F700044010E948D07F82E809146010E948D0742
:100F8000182F809145010E948D07082F80914701FD
:100F90000E948D07409149016091480150914B0199
:100FA00090914A01F41651F0209142013091430191
:100FB0002F5F3F4F3093430120934201061751F0BA
:100FC0002091420130914301215030403093430140
:100FD00020934201151751F02091400130914101B9
:100FE0002F5F3F4F3093410120934001891751F00B
:100FF0002091400130914101215030403093410116
:1010000020934001EF2DF0E0772767FD7095E617FC
:10101000F70759F0602F70E0552747FD509564178A
:10102000750719F021E020933F01412F50E0292F4F
:10103000332727FD30954217530769F0482F50E0BA
:1010400020914B01332727FD30954217530719F0A4
:1010500091E090933E01F092480100934901109372
:101060004A0180934B01FF91EF91BF91AF919F9106
:101070008F917F916F915F914F913F912F911F9130
:101080000F91FF900F900BBE0F900FBE0F901F900F
:101090001895A3E0B0E0EFE4F8E00C94DD0880934D
:1010A0004401609345014093460120934701F89421
:1010B0002B834A8369830E9448076981862F0E9497
:1010C00048074A81842F0E9448072B81822F0E9463
:1010D0004807109243011092420110924101109270
:1010E000400110923F0110923E01809144010E9404
:1010F0008D0780934801809145010E948D07809360
:101100004901809146010E948D0780934A01809198
:1011100047010E948D0780934B018FEF8BBB789422
:101120002396E2E00C94F9080E9449080895F89487
:101130008091420190914301789408950E9497080C
:101140000895F89480914001909141017894089518
:101150000E94A1080895A1E21A2EAA1BBB1BFD0143
:101160000DC0AA1FBB1FEE1FFF1FA217B307E40786
:10117000F50720F0A21BB30BE40BF50B661F771FDE
:10118000881F991F1A9469F76095709580959095BE
:101190009B01AC01BD01CF0108952F923F924F9268
:1011A0005F926F927F928F929F92AF92BF92CF92F7
:1011B000DF92EF92FF920F931F93CF93DF93CDB700
:1011C000DEB7CA1BDB0B0FB6F894DEBF0FBECDBF78
:1011D00009942A88398848885F846E847D848C8449
:1011E0009B84AA84B984C884DF80EE80FD800C8152
:1011F0001B81AA81B981CE0FD11D0FB6F894DEBF35
:101200000FBECDBFED010895CF93DF9382309105DE
:1012100010F482E090E0E0915501F091560120E059
:1012200030E0A0E0B0E0309739F1408151814817BB
:101230005907B8F04817590771F4828193811097C4
:1012400029F013969C938E9312972CC0909356017D
:101250008093550127C02115310531F042175307FE
:1012600018F0A901DB0101C0EF019A01BD01DF0106
:101270000280F381E02DD7CF21153105F9F0281B2D
:10128000390B2430310580F48A819B816115710509
:1012900021F0FB019383828304C0909356018093D5
:1012A0005501FE01329644C0FE01E20FF31F819307
:1012B000919322503109398328833AC020915301F8
:1012C00030915401232B41F4209104013091050108
:1012D0003093540120935301209102013091030176
:1012E0002115310541F42DB73EB7409106015091CB
:1012F0000701241B350BE0915301F0915401E217D3
:10130000F307A0F42E1B3F0B2817390778F0AC0128
:101310004E5F5F4F2417350748F04E0F5F1F509305
:101320005401409353018193919302C0E0E0F0E0B7
:10133000CF01DF91CF910895CF93DF93009709F408
:1013400087C0FC01329713821282C0915501D0915F
:101350005601209781F420813181280F391F809117
:101360005301909154018217930779F5F09354013A
:10137000E09353016DC0DE0120E030E0AE17BF07FF
:1013800050F412964D915C9113979D0141155105B2
:1013900009F1DA01F3CFB383A28340815181840F35
:1013A000951F8A179B0771F48D919C911197840F5B
:1013B000951F02969183808312968D919C9113972D
:1013C000938382832115310529F4F0935601E0932C
:1013D00055013EC0D9011396FC93EE9312974D919F
:1013E0005D91A40FB51FEA17FB0779F48081918105
:1013F000840F951F0296D90111969C938E9382813A
:10140000938113969C938E931297E0E0F0E08A818B
:101410009B81009719F0FE01EC01F9CFCE010296F5
:1014200028813981820F931F2091530130915401FB
:101430002817390769F4309729F410925601109251
:10144000550102C013821282D0935401C0935301FC
:10145000DF91CF9108950F931F93CF93DF93EC010A
:101460008B01009731F46115710519F480E090E06B
:1014700038C06EE070E081E090E00E94830CFC01D7
:101480000097A1F380E883830115110571F013879C
:10149000028781E883838091570190915801892BBD
:1014A00021F4F0935801E09357012097C9F0D187B8
:1014B000C0878381826083838091590190915A0112
:1014C000892B71F4F0935A01E093590180915B01EB
:1014D00090915C01892B21F4F0935C01E0935B0116
:1014E000CF01DF91CF911F910F910895CF93DF939B
:1014F000CDB7DEB7FE01359661917191AF01809154
:10150000590190915A010E94880ADF91CF91089564
:101510002F923F924F925F926F927F928F929F9203
:10152000AF92BF92CF92DF92EF92FF920F931F93F1
:10153000CF93DF93CDB7DEB72C970FB6F894DEBF0D
:101540000FBECDBF7C016B018A01FC0117821682A0
:10155000838181FFBDC1CE0101964C01F7019381CA
:10156000F60193FD859193FF81916F01882309F422
:10157000ABC1853239F493FD859193FF81916F0161
:10158000853229F4B70190E00E94BC0CE7CF512CC2
:10159000312C20E02032A0F48B3269F030F480321C
:1015A00059F0833269F420612CC08D3239F08033D8
:1015B00039F4216026C02260246023C0286021C045
:1015C00027FD27C030ED380F3A3078F426FF06C0EB
:1015D000FAE05F9E300D1124532E13C08AE0389E2E
:1015E000300D1124332E20620CC08E3221F426FDE2
:1015F0006BC1206406C08C3611F4206802C08836A6
:1016000041F4F60193FD859193FF81916F01811162
:10161000C1CF982F9F7D9554933028F40C5F1F4FB6
:10162000FFE3F9830DC0833631F0833771F08335E2
:1016300009F05BC022C0F801808189830E5F1F4FD3
:1016400044244394512C540115C03801F2E06F0E2C
:10165000711CF801A080B18026FF03C0652D70E0E9
:1016600002C06FEF7FEFC5012C870E94B10C2C01E7
:1016700083012C852F77222E17C03801F2E06F0EE0
:10168000711CF801A080B18026FF03C0652D70E0B9
:1016900002C06FEF7FEFC5012C870E949F0C2C01C9
:1016A0002C852068222E830123FC1BC0832D90E013
:1016B00048165906B0F4B70180E290E00E94BC0CD5
:1016C0003A94F4CFF50127FC859127FE81915F01C3
:1016D000B70190E00E94BC0C31103A94F1E04F1A2F
:1016E00051084114510471F7E5C0843611F0893670
:1016F00039F5F80127FF07C06081718182819381EC
:101700000C5F1F4F08C060817181882777FD80952D
:10171000982F0E5F1F4F2F76B22E97FF09C090951E
:101720008095709561957F4F8F4F9F4F2068B22EA7
:101730002AE030E0A4010E94EE0CA82EA81844C0B4
:10174000853729F42F7EB22E2AE030E025C0F22F13
:10175000F97FBF2E8F36C1F018F4883579F0B4C008
:10176000803719F0883721F0AFC02F2F2061B22EBB
:10177000B4FE0DC08B2D8460B82E09C024FF0AC0B2
:101780009F2F9660B92E06C028E030E005C020E10A
:1017900030E002C020E132E0F801B7FE07C060810E
:1017A0007181828193810C5F1F4F06C060817181BE
:1017B00080E090E00E5F1F4FA4010E94EE0CA82E67
:1017C000A818FB2DFF77BF2EB6FE0BC02B2D2E7F4A
:1017D000A51450F4B4FE0AC0B2FC08C02B2D2E7E16
:1017E00005C07A2C2B2D03C07A2C01C0752C24FF48
:1017F0000DC0FE01EA0DF11D8081803311F4297EB8
:1018000009C022FF06C07394739404C0822F8678A7
:1018100009F0739423FD13C020FF06C05A2C7314E3
:1018200018F4530C5718732C731468F4B70180E242
:1018300090E02C870E94BC0C73942C85F5CF731418
:1018400010F4371801C0312C24FF12C0B70180E317
:1018500090E02C870E94BC0C2C8522FF17C021FF32
:1018600003C088E590E002C088E790E0B7010CC0B3
:10187000822F867859F021FD02C080E201C08BE200
:1018800027FD8DE2B70190E00E94BC0CA51438F44E
:10189000B70180E390E00E94BC0C5A94F7CFAA9461
:1018A000F401EA0DF11D8081B70190E00E94BC0CAB
:1018B000A110F5CF332009F451CEB70180E290E0BA
:1018C0000E94BC0C3A94F6CFF7018681978102C042
:1018D0008FEF9FEF2C960FB6F894DEBF0FBECDBFF3
:1018E000DF91CF911F910F91FF90EF90DF90CF90FC
:1018F000BF90AF909F908F907F906F905F904F9030
:101900003F902F9008950F931F93CF93DF93869F5F
:101910008001879F100D969F100D1124C8010E9411
:101920000409EC01009729F0A80160E070E00E9432
:10193000AA0CCE01DF91CF911F910F910895FC0168
:101940000590615070400110D8F7809590958E0FEA
:101950009F1F0895DC0101C06D9341505040E0F796
:101960000895FC016150704001900110D8F78095F6
:1019700090958E0F9F1F08950F931F93CF93DF9322
:10198000182F092FEB018B8181FD03C08FEF9FEF93
:1019900020C082FF10C04E815F812C813D814217A3
:1019A00053077CF4E881F9819F012F5F3F4F398312
:1019B0002883108306C0E885F985812F0995892B36
:1019C00029F72E813F812F5F3F4F3F832E83812F49
:1019D000902FDF91CF911F910F910895FA01AA27BF
:1019E000283051F1203181F1E8946F936E7F6E5F62
:1019F0007F4F8F4F9F4FAF4FB1E03ED0B4E03CD010
:101A0000670F781F891F9A1FA11D680F791F8A1FF2
:101A1000911DA11D6A0F711D811D911DA11D20D059
:101A200009F468943F912AE0269F11243019305D13
:101A30003193DEF6CF010895462F4770405D419304
:101A4000B3E00FD0C9F7F6CF462F4F70405D4A3351
:101A500018F0495D31FD4052419302D0A9F7EACF19
:101A6000B4E0A6959795879577956795BA95C9F748
:101A700000976105710508959B01AC010A2E06943B
:101A80005795479537952795BA95C9F7620F731FF4
:0C1A9000841F951FA01D0895F894FFCF3F
:101A9C00021000005D012000AA0A456E636F6465A8
:0C1AAC003A0053706565643A2564000040
:00000001FF
