:100000000C944C000C946B000C946B000C946B00E3
:100010000C946B000C946B000C946B000C945505C5
:100020000C946B000C946B000C946B000C940111FD
:100030000C946B000C946B000C946B000C946B0094
:100040000C94B8040C946B000C946B000C946B0033
:100050000C94940E0C94A7100C946B000C946B00F1
:100060000C946B000C946B000C946B000C946B0064
:100070000C94BF0E0C94D0100C946B000C946B007D
:100080000C946B000C946B000C946B006364696EB1
:100090006F70737578585B0011241FBECFEFD0E4EA
:1000A000DEBFCDBF11E0A0E0B1E0E4ECF8E300E09A
:1000B0000BBF02C007900D92AE3BB107D9F722E00B
:1000C000AEEBB1E001C01D92A839B207E1F70E9482
:1000D00054060C94601C0C940000883048F491E0A5
:1000E00001C0990F8A95EAF7892FE9E2F0E029C06B
:1000F000803150F498EF980F81E001C0880F9A95F5
:10010000EAF7E3E2F0E01DC0883150F490EF980F79
:1001100081E001C0880F9A95EAF7E6E2F0E011C0AD
:10012000803260F42FE130E0281B310981E001C00A
:10013000880F2A95EAF7E0E2F0E003C080E0E0E013
:10014000F0E09081892308954F925F926F927F92A1
:100150008F929F92AF92BF92CF92DF92EF92FF92D7
:10016000CF93DF9300D000D0CDB7DEB76B017C0119
:1001700060915F0270916002882777FD8095982FCB
:100180000E94C412A70196010E94C0114B015C019C
:1001900020915702309158024091590250915A02D1
:1001A0000E94781369837A838B839C832091470212
:1001B000309148024091490250914A02C501B40170
:1001C0000E94C1114B015C01609347027093480289
:1001D0008093490290934A0240904B0250904C0207
:1001E00060904D0270904E02A30192010E94741320
:1001F000181684F040904F025090500260905102C7
:1002000070905202A3019201C501B4010E9425120F
:1002100087FF08C04092470250924802609249020C
:1002200070924A022091470230914802409149025F
:1002300050914A026091530270915402809155028C
:10024000909156020E9478134B015C01A701960120
:100250006091430270914402809145029091460260
:100260000E94C01120915B0230915C0240915D02BE
:1002700050915E020E9478139B01AC01C092430230
:10028000D0924402E0924502F092460269817A815E
:100290008B819C810E94C111A50194010E94C11112
:1002A0000E9491129B01409161024423A1F0882792
:1002B00077FD8095982F0E94C41223E333E34FEC1F
:1002C00051E40E9429120E94911220916202309101
:1002D0006302260F371FC90181302FEF920714F4F4
:1002E00081E09FEF8F3F910519F014F08FEF90E0C0
:1002F00090936302809362020F900F900F900F9083
:10030000DF91CF91FF90EF90DF90CF90BF90AF90B3
:100310009F908F907F906F905F904F90089597FF80
:1003200005C091958195910921E001C020E080935D
:10033000B400892B31F48091B0008F7D8093B000A0
:1003400008958091B00080628093B000222311F064
:10035000469A0895469808958AE999E9A9E9BEE37D
:1003600080935B0290935C02A0935D02B0935E0267
:100370008093570290935802A0935902B0935A0267
:100380008AE097EDA3E2BCE380935302909354027A
:10039000A0935502B093560281E0809361020895C4
:1003A0008AE999E9A9E9BEE380935B0290935C0234
:1003B000A0935D02B0935E028DEC9CECACE4BEE3D6
:1003C0008093570290935802A0935902B0935A0217
:1003D0008AE097EDA3E2BCE380935302909354022A
:1003E000A0935502B0935602109261020895CF93E4
:1003F000DF930E94D00164E070E081E090E00E9411
:1004000086149093850280938402FC0111821082ED
:1004100022E332E03383228364E070E081E090E005
:100420000E9486149093870280938602C1E0D0E0F8
:10043000FC01D183C08320E533EC3383228364E065
:1004400070E081E090E00E9486149093890280938E
:100450008802FC011182108227E337EF3383228365
:1004600064E070E081E090E00E94861490938B023B
:1004700080938A02FC01D183C08324EF31E033836F
:10048000228364E070E081E090E00E948614909303
:100490008D0280938C02FC01118210822FE130E0EA
:1004A00033832283DF91CF91089582E00E94980CDC
:1004B000811103C00E946E10F8CF0895462FBC0131
:1004C00082E00E94A4100C9455024F925F926F92AA
:1004D0007F92AF92BF92CF92DF92EF92FF920F93F3
:1004E0001F93CF93DF93CDB7DEB7C150D2400FB685
:1004F000F894DEBF0FBECDBF9091DB01E92FF0E095
:1005000024E632E0EC59FD4F80839F5F9093DB013E
:100510008D3009F0FEC18E0101501E4F1F930F93C5
:100520007E018FEFE81A8DEFF80AFF92EF9286E2D4
:1005300091E09F938F933F932F930E945C16F80155
:1005400081818F9380818F93F70180811F928F9398
:100550008CE291E09F938F936E01D394DF92CF92C0
:100560000E942D16BC01C6010E945E020FB6F894CF
:10057000DEBF0FBECDBFF7018081863509F4EDC027
:1005800098F5803509F490C028F5893409F478C0CD
:100590008C3409F4A9C1843409F0ADC1F80160813B
:1005A0007181882777FD8095982F0E94C41220E0E2
:1005B00030E040E251E40E9429129B01AC016091BD
:1005C0005B0270915C0280915D0290915E020E94DC
:1005D000C111AAC0833509F44DC0843509F4B6C0F1
:1005E000823509F088C136C0803709F479C028F512
:1005F000893609F445C08C3609F476C1843609F091
:100600007AC1F80160817181882777FD8095982FE4
:100610000E94C41220E030E040E251E40E9429121E
:100620009B01AC0160915B0270915C0280915D0264
:1006300090915E020E94C01177C08337D9F018F400
:10064000823741F058C1843709F477C0863709F4FE
:1006500084C051C10E94D00110926102F8018081D2
:1006600091819093600280935F021092E501E4E62D
:10067000F2E048C10E94AC0181E080936102EECFBC
:100680000E94F70181E08093E5011092220210920E
:100690002102E0918402F0918502828193819093FE
:1006A000600280935F02E3CFF80160817181882747
:1006B00077FD8095982F0E94C41220E030E040E240
:1006C00051E40E9429129B01AC0160915702709184
:1006D00058028091590290915A020E94C1111BC088
:1006E000F80160817181882777FD8095982F0E949D
:1006F000C41220E030E040E251E40E9429129B0144
:10070000AC0160915702709158028091590290910A
:100710005A020E94C011609357027093580280934E
:10072000590290935A02A3CF60935B0270935C02CC
:1007300080935D0290935E029ACF60E070E0CB01FF
:100740000E94A40081E08093E70191CF1092E7011D
:1007500080E090E00E948F018ACF2091610240905A
:100760005B0250905C0260905D0270905E02C090EF
:100770005702D0905802E0905902F0905A0290919E
:10078000630280916202A0906002B0905F028E01CD
:100790000F5F1F4F222309F450C09F938F936091E6
:1007A000E8017091E9018091EA019091EB010E94CA
:1007B00091127F936F93AF92BF9220E030E040E2BE
:1007C00051E4C301B2010E9478130E9491129AE091
:1007D000A92EB12CCB01B5010E94EB139F938F93EF
:1007E000C301B2010E949112CB01B5010E94EB132B
:1007F0009F938F9320E030E040E251E4C701B601BF
:100800000E9478130E949112CB01B5010E94EB1354
:100810009F938F93C701B6010E949112CB01B5013E
:100820000E94EB139F938F9389E391E09F938F93A3
:100830001F930F930E942D164FC09F938F9380910B
:10084000E2018F938091E1018F938091E0018F937A
:100850008091DF018F93AF92BF9220E030E040E2C1
:1008600051E4C301B2010E9478130E9491128AE000
:10087000A82EB12CCB01B5010E94EB139F938F934F
:10088000C301B2010E949112CB01B5010E94EB138A
:100890009F938F9320E030E040E251E4C701B6011E
:1008A0000E9478130E949112CB01B5010E94EB13B4
:1008B0009F938F93C701B6010E949112CB01B5019E
:1008C0000E94EB139F938F9389E391E09F938F9303
:1008D0001F930F930E942D160FB6F894DEBF0FBE24
:1008E000CDBFBC01C8010BC08091E60191E0892712
:1008F0008093E601BCCE6DE070E086E791E00E9457
:100900005E02B5CE119222E0E438F207D9F71092D8
:10091000DB01CF5FDD4F0FB6F894DEBF0FBECDBF5A
:10092000DF91CF911F910F91FF90EF90DF90CF90CB
:10093000BF90AF907F906F905F904F90089582E04E
:100940000E94880CE091DC018E1789F0F0E0ED5DEB
:10095000FD4F80810E9465028091DC018F3119F486
:100960001092DC01ECCF8F5F8093DC01E8CF08951B
:100970001F920F920FB60F9211240BB60F920F9386
:100980001F932F933F934F935F936F937F938F9317
:100990009F93AF93BF93CF93DF93EF93FF93809198
:1009A000E701882309F467C08091EC019091ED0183
:1009B00001968A30910529F09093ED018093EC0126
:1009C00004C01092ED011092EC01E091EC01F09165
:1009D000ED018091DF019091E001A091E101B091E2
:1009E000E201EF01CC0FDD1FCC0FDD1FC251DE4F46
:1009F00088839983AA83BB8320916102222349F1D2
:100A0000E930F10511F0319602C0E0E0F0E0EE0FC0
:100A1000FF1FEE0FFF1FE251FE4F408151816281A7
:100A200073818C019D01041B150B260B370BC9012B
:100A3000B8010E94C41220E030E040E251E40E947C
:100A400078136093E8017093E9018093EA01909331
:100A5000EB01809117029091180201969093180271
:100A600080931702019739F410921802109217021E
:100A700081E08093160281E080932002FF91EF9144
:100A8000DF91CF91BF91AF919F918F917F916F91A6
:100A90005F914F913F912F911F910F910F900BBE3E
:100AA0000F900FBE0F901F9018951F920F920FB6C8
:100AB0000F9211240BB60F922F933F934F935F9396
:100AC0006F937F938F939F93AF93BF93CF93EF9346
:100AD000FF938091E4010E946D00C82F8091E30193
:100AE0000E946D0031E0C11101C030E021E08111B0
:100AF00001C020E04091DE018091DD01381799F0BE
:100B00008091DF019091E001A091E101B091E201BB
:100B10000196A11DB11D8093DF019093E001A09388
:100B2000E101B093E201241799F08091DF019091E7
:100B3000E001A091E101B091E2010197A109B109A1
:100B40008093DF019093E001A093E101B093E20173
:100B50003093DE012093DD01FF91EF91CF91BF91A2
:100B6000AF919F918F917F916F915F914F913F9145
:100B70002F910F900BBE0F900FBE0F901F901895E6
:100B800083E08093B00082E08093B10046985E9845
:100B9000569A3E9A0895CF93DF931F92CDB7DEB752
:100BA000E8E6F0E0908198609083E3E7F0E09081E0
:100BB0009C6090839FB790689FBF8093E40160938F
:100BC000E3011092DF011092E0011092E101109216
:100BD000E20169830E946D008093DE016981862FA6
:100BE0000E946D008093DD010F90DF91CF910895F9
:100BF00080E090E0A0E8BFE380935B0290935C020A
:100C0000A0935D02B0935E028093570290935802C6
:100C1000A0935902B0935A028093530290935402C6
:100C2000A0935502B09356021092430210924402D0
:100C3000109245021092460210924702109248020A
:100C40001092490210924A0280E090E0AAE7B4E4D0
:100C500080934B0290934C02A0934D02B0934E02AE
:100C600080E090E0AAE7B4EC80934F0290935002AA
:100C7000A0935102B09352021092600210925F0250
:100C800081E08093610210926302109262020895E3
:100C900082E884BD85E085BD83EC87BDEEE6F0E0AB
:100CA0008081826080830895CF93DF93CDB7DEB7D4
:100CB000C150D1400FB6F894DEBF0FBECDBF0E9429
:100CC000850C0E94AB0A0E94C00563E082E00E948E
:100CD000CB050E94F8050E94AC010E94480680E006
:100CE00090E00E948F0140E855E260E070E082E011
:100CF0000E94B30F40E263E272E082E00E94910E34
:100D00009E012F5F3F4F59010AE010E026EA222E94
:100D100021E0322E3FE8832E31E0932E0E946E10A8
:100D20000E949F0460E080E00E942B0BA4E8B1E0E9
:100D3000BF93AF930E941B166091DF017091E00199
:100D40008091E1019091E2010E94080B61E080E056
:100D50000E942B0BACE8B1E0BF93AF930E941B162F
:100D60006091620270916302882777FD8095982FC9
:100D70000E94080B0F900F900F900F908091160219
:100D8000882309F4F3C080916102882349F06091BF
:100D9000E8017091E9018091EA019091EB010AC0AC
:100DA0006091DF017091E0018091E1019091E20199
:100DB0000E94C4120E94A4000E948F018091E6014B
:100DC000882309F4D1C04091610240905B025090A9
:100DD0005C0260905D0270905E02C0905702D090FD
:100DE0005802E0905902F0905A029091630280916B
:100DF00062023091600220915F02442309F45FC0D7
:100E00009F938F936091E8017091E9018091EA01CD
:100E10009091EB01CF5FDE4F2883C150D140C0508D
:100E2000DF4F3883C050D1400E9491127F936F935F
:100E3000C050DF4F3881C050D1403F93CF5FDE4F6D
:100E40002881C150D1402F9320E030E040E251E4AE
:100E5000C301B2010E9478130E949112CB01B80124
:100E60000E94EB139F938F93C301B2010E949112D2
:100E7000CB01B8010E94EB139F938F9320E030E0E9
:100E800040E251E4C701B6010E9478130E9491121A
:100E9000CB01B8010E94EB139F938F93C701B6015A
:100EA0000E949112CB01B8010E94EB139F938F9384
:100EB0009F928F92BF92AF920E942D164AC09F932D
:100EC0008F938091E2018F938091E1018F938091C4
:100ED000E0018F938091DF018F933F932F9320E068
:100EE00030E040E251E4C301B2010E9478130E9455
:100EF0009112CB01B8010E94EB139F938F93C30112
:100F0000B2010E949112CB01B8010E94EB139F9392
:100F10008F9320E030E040E251E4C701B6010E9427
:100F200078130E949112CB01B8010E94EB139F939A
:100F30008F93C701B6010E949112CB01B8010E94A4
:100F4000EB139F938F933F922F92BF92AF920E9489
:100F50002D160FB6F894DEBF0FBECDBFBC01C50184
:100F60000E945E020E94AB0A109216028091E50177
:100F7000882309F4D3CE80912002882309F4CECEB1
:100F80008091E701811105C080911F02882309F437
:100F9000C5CEE0912102F0912202DF01AA0FBB1F12
:100FA000AC57BD4F0D90BC91A02D8D919C9181307F
:100FB000910509F038C18091190290911A020A96A0
:100FC00090931A02809319022091E601222309F4DA
:100FD000D6C064E170E00E94EB13892B09F0CFC00A
:100FE0004091610240905B0250905C0260905D0213
:100FF00070905E02C0905702D0905802E090590263
:10100000F0905A02909163028091620230916002E6
:1010100020915F02442309F45FC09F938F936091F6
:10102000E8017091E9018091EA019091EB01CF5FB5
:10103000DE4F2883C150D140C050DF4F3883C050AD
:10104000D1400E9491127F936F93C050DF4F38813F
:10105000C050D1403F93CF5FDE4F2881C150D14077
:101060002F9320E030E040E251E4C301B2010E943E
:1010700078130E949112CB01B8010E94EB139F9349
:101080008F93C301B2010E949112CB01B8010E945B
:10109000EB139F938F9320E030E040E251E4C701CF
:1010A000B6010E9478130E949112CB01B8010E94F0
:1010B000EB139F938F93C701B6010E949112CB014E
:1010C000B8010E94EB139F938F939F928F92BF92D0
:1010D000AF920E942D164AC09F938F938091E20198
:1010E0008F938091E1018F938091E0018F938091A4
:1010F000DF018F933F932F9320E030E040E251E4F3
:10110000C301B2010E9478130E949112CB01B80171
:101110000E94EB139F938F93C301B2010E9491121F
:10112000CB01B8010E94EB139F938F9320E030E036
:1011300040E251E4C701B6010E9478130E94911267
:10114000CB01B8010E94EB139F938F93C701B601A7
:101150000E949112CB01B8010E94EB139F938F93D1
:101160003F922F92BF92AF920E942D160FB6F89425
:10117000DEBF0FBECDBFBC01C5010E945E02E09183
:101180002102F0912202DF01AA0FBB1FAC57BD4F15
:101190000D90BC91A02D2091190230911A02129647
:1011A0008D919C911397281739070CF4B0C0E43047
:1011B000F10519F410921F02AAC010921A0210929F
:1011C00019023196F0932202E0932102EE0FFF1FE5
:1011D000EC57FD4F0190F081E02D80819181892BAA
:1011E00009F095C010921F020E94F8050E94D001DC
:1011F000E0912102F0912202EE0FFF1FEC57FD4F0C
:101200000190F081E02D8091DF019091E001228139
:101210003381820F931F9093600280935F0281E07D
:101220008093E70174C0892B09F071C0809162023C
:101230009091630220911D0230911E0228173907F8
:1012400051F480911B0290911C02019690931C0214
:1012500080931B0208C090931E0280931D0210927F
:101260001C0210921B0280911D0290911E02079693
:101270000F9708F04CC080911B0290911C020A97B6
:101280000CF445C0E430F10519F41092E7013FC0B9
:101290003196F0932202E0932102EE0FFF1FEC57EC
:1012A000FD4F0190F081E02D808191810097E1F464
:1012B0000E94F8050E94D001E0912102F0912202E3
:1012C000EE0FFF1FEC57FD4F0190F081E02D809154
:1012D000DF019091E00122813381820F931F90936F
:1012E000600280935F0213C0019789F481E08093CC
:1012F0001F0210921A02109219021092E701109226
:1013000063021092620280E090E00E948F011092CE
:10131000200204CD80E090E0089581E090E06F939A
:1013200064E06A95F1F76F910197C9F708950F93FB
:101330001F93CF93DF9317B13D982898299AC0E067
:10134000D0E00E948D092A9A0E948D0906B12A9840
:101350000E948D092A9A0E948D092A98249605FFD9
:1013600010C09E0140E050E08091C2019091C30105
:10137000A091C401B091C501281739074A075B073E
:1013800000F39E0140E050E08091C2019091C301C2
:10139000A091C401B091C501281739074A075B071E
:1013A00028F082E390E0A0E0B0E004C080E395E79D
:1013B000A0E0B0E08093C2019093C301A093C40168
:1013C000B093C50117B9DF91CF911F910F91089587
:1013D00028B190E08F709070880F991F880F991F27
:1013E000237C282B28B92A9A0E948D092A980E94CA
:1013F0008D090895A2E0B0E0E0E0FAE00C94391421
:10140000182F4A8369830E94750A0E949709F7B0D2
:1014100008B1299869814A81662311F0289A01C090
:10142000289887B18C6387B9413029F0812F829544
:101430008F700E94E809812F8F700E94E809F7B829
:1014400008B92296E5E00C94551460E042E00E9451
:10145000FA09089561E042E00E94FA09089560E007
:1014600041E00E94FA0908953D98459A80E395E786
:10147000A0E0B0E08093C2019093C301A093C401A7
:10148000B093C501209A219A229A8EE190E00E94A1
:10149000491183E00E942F0A86E090E00E944911E2
:1014A00083E00E942F0A82E090E00E94491183E0CD
:1014B0000E942F0A82E090E00E94491182E00E947F
:1014C0002F0A82E090E00E94491188E20E94250ADA
:1014D00088E00E94250A81E00E94250A86E00E9499
:1014E000250A8CE00E94250A08958091C601882370
:1014F00029F481E08093C6010E94340A089581E0B6
:101500000E94250A8091BE019091BF01009711F1C0
:10151000A0E0B0E208C0E091BE01F091BF01E20F8F
:10152000F31FB083AF5F2A2F30E08091000190E07D
:1015300001976091010170E0869FA001879F500D87
:10154000969F500D1124241735072CF31092C101DA
:101550001092C00108950E947F0A0895AAE0B0E0A9
:10156000E4EBFAE00C9434149B01AC011AE06AE05D
:10157000C62ED12CE12CF12C5E010894A11CB11CCB
:10158000022FCA01B901A70196010E94FF13115051
:10159000F501E10FF11D005D922F990F892F880F42
:1015A000880F890F081B008321153105410551055E
:1015B00039F708C0F601E10FF11D80810E942A0A67
:1015C0001F5F04C06E010894C11CD11C1A3090F337
:1015D0002A96EAE00C945014EF92FF920F931F9317
:1015E0007B018C0197FF0BC010950095F094E0945F
:1015F000E11CF11C011D111D8DE20E942A0AC80187
:10160000B7010E94AE0A1F910F91FF90EF900895CD
:101610000E94EC0A0895A5E0B0E0E1E1FBE00C9443
:101620003B14182F80E8898380EC8A8384E98B83BC
:1016300084ED8C83FE01E60FF11D8181810F6D83A6
:101640000E94250A1093C1016D816093C001259607
:10165000E3E00C9457140E940B0B0895A0E0B0E057
:10166000E4E3FBE00C943614D82E8091BE019091F7
:10167000BF01009709F4FAC02D2D2A3009F443C0A8
:101680002830C9F48091C10181508093C1018F3FFE
:1016900051F48091C00181508093C001809101017B
:1016A00081508093C1018091C0018F3F09F0D8C063
:1016B0001092C001D3C08D2D0E942A0A8091C001D2
:1016C0008823B9F090E001974091010150E0849F98
:1016D0009001859F300D949F300D11248091C101A0
:1016E000E091BE01F091BF01E20FF31FE80FF11D81
:1016F000D0828091C1018F5F8093C10190910101DF
:10170000891709F0B3C04091C001242F30E08091C7
:10171000000190E001972817390709F09CC0C0E04C
:10172000D0E041C080E06C2F0E940B0BCC248E01D6
:101730000F5F1F4F33C0EC2CFF2430E0C29FC0016D
:10174000C39F900DD29F900D1124E091BE01F091A6
:10175000BF01EE0DFF1DE80FF91F80810E942A0ACC
:101760008091BE019091BF012091010130E0C29FA4
:10177000F001C39FF00DD29FF00D11248E0D9F1D1F
:10178000E80FF91F029FD001039FB00D129FB00D0B
:101790001124A80FB91F8C918083C394209101015B
:1017A000C21648F2E80160910001862F90E002978E
:1017B000C817D9070CF4B6CF6230E0F1625080E070
:1017C0000E940B0B00E010E231C0C02FD0E08091EE
:1017D000000190E0029750E0849F9001859F300DBA
:1017E000949F300D1124E091BE01F091BF01EC0FE8
:1017F000FD1FE20FF31F80810E942A0A80910001E1
:1018000090E002974091010150E0849F9001859FF4
:10181000300D949F300D1124E091BE01F091BF0175
:10182000EC0FFD1FE20FF31F10830F5F40910101CA
:10183000041758F260910001615080E00E940B0B88
:1018400010E004C080E20E942A0A1F5F809101011B
:101850001817C0F303C04F5F4093C0011092C1013D
:101860008091C1016091C0010E940B0B2D2D332787
:1018700027FD3095C901CDB7DEB7E8E00C945214CE
:101880008091BE019091BF01009711F00E943A151E
:101890002091000130E0215030408091010190E022
:1018A000AC01249FC001259F900D349F900D112401
:1018B0000E94A2149093BF018093BE01009721F172
:1018C000A0E0B0E208C0E091BE01F091BF01E20FDC
:1018D000F31FB083AF5F2A2F30E08091000190E0CA
:1018E00001976091010170E0869FA001879F500DD4
:1018F000969F500D1124241735072CF38EE29BE0A0
:101900006AE879E00E94D01508950E94400C08957D
:10191000282F30E0F901EE0FFF1F43E0220F331FA5
:101920004A95E1F7E20FF31FEE5FFE4F82810895C3
:10193000282F30E0F901EE0FFF1F73E0220F331F55
:101940007A95E1F7E20FF31FEE5FFE4F4181282FFA
:1019500030E0F901EE0FFF1F53E0220F331F5A95BD
:10196000E1F7E20FF31FEE5FFE4F81E09381491331
:1019700080E00895282F30E0F901EE0FFF1FB3E05B
:10198000220F331FBA95E1F7E20FF31FEE5FFE4F10
:10199000408551854115510509F452C0282F30E08A
:1019A000F901EE0FFF1F73E0220F331F7A95E1F765
:1019B000E20FF31FEE5FFE4F7281282F30E0F90136
:1019C000EE0FFF1FB3E0220F331FBA95E1F7E20FCE
:1019D000F31FEE5FFE4F9481791790F5282F30E0CA
:1019E000F901EE0FFF1F73E0220F331F7A95E1F725
:1019F000E20FF31FEE5FFE4F9281490F511DFA0176
:101A00006083282F30E0F901EE0FFF1F53E0220F13
:101A1000331F5A95E1F7E20FF31FEE5FFE4F9281FD
:101A20009F5F282F30E0F901EE0FFF1FB3E0220F78
:101A3000331FBA95E1F7E20FF31FEE5FFE4F92837B
:101A4000282F30E0F901EE0FFF1F73E0220F331F44
:101A50007A95E1F7E20FF31FEE5FFE4F4281282FE8
:101A600030E0F901EE0FFF1F53E0220F331F5A95AC
:101A7000E1F7E20FF31FEE5FFE4F9481491701F586
:101A8000282F30E0F901EE0FFF1F93E0220F331FE4
:101A90009A95E1F7E20FF31FEE5FFE4F95819923D0
:101AA00079F0282F30E0F901EE0FFF1FB3E0220F8D
:101AB000331FBA95E1F7E20FF31FEE5FFE4F12827C
:101AC00008950F931F93182F823009F475C088234F
:101AD00019F4E1ECF0E002C0E9ECF0E080818F77EE
:101AE0008083812F90E0FC01EE0FFF1F03E0880F41
:101AF000991F0A95E1F7E80FF91FEE5FFE4F808509
:101B000091850097A9F1212F30E0F901EE0FFF1F19
:101B1000A3E0220F331FAA95E1F7E20FF31FEE5F58
:101B2000FE4F9281212F30E0F901EE0FFF1F63E09D
:101B3000220F331F6A95E1F7E20FF31FEE5FFE4FAE
:101B400084819817A8F4112319F4E0ECF0E002C0A6
:101B5000E8ECF0E0808187FF0BC0112319F4E6EC7C
:101B6000F0E002C0EEECF0E06081812F0E94BA0C40
:101B7000212F30E0F901EE0FFF1F43E0220F331F4A
:101B80004A95E1F7E20FF31FEE5FFE4F8081882355
:101B900009F059C0112319F4E1ECF0E002C0E9ECBE
:101BA000F0E08081806880834EC080911B01882393
:101BB00019F01092180147C080911E0190911F01E9
:101BC000009709F440C09091180180911A0198176C
:101BD000D0F58091C7018823A9F40E945111809308
:101BE000C70110E00BC00E944C11E02FF0E03197CC
:101BF000E11BF109E853FE4F80831F5F0091C7018D
:101C0000101788F3A091C701AA23E9F08091180169
:101C1000E0911E01F0911F01E80FF11DA150A0936A
:101C2000C701B0E0A853BE4F8C918083809118010A
:101C30008F5F809318019091180180911A01981775
:101C400009F0BACFB2CF1F910F910895823051F0B1
:101C5000882319F4E1ECF0E002C0E9ECF0E09081B7
:101C60009F779083A82FB0E0FD01EE0FFF1F53E098
:101C7000AA0FBB1F5A95E1F7EA0FFB1FEE5FFE4F5D
:101C800071876087682F70E0FB01EE0FFF1F93E004
:101C9000660F771F9A95E1F7E60FF71FEE5FFE4F8D
:101CA0001282682F70E0FB01EE0FFF1FA3E0660FAA
:101CB000771FAA95E1F7E60FF71FEE5FFE4F44830B
:101CC000482F50E0FA01EE0FFF1F63E0440F551F4D
:101CD0006A95E1F7E40FF51FEE5FFE4F2583823032
:101CE000D9F0282F30E0F901EE0FFF1F43E0220F5B
:101CF000331F4A95E1F7E20FF31FEE5FFE4F90812D
:101D0000992351F4882319F4E1ECF0E002C0E9ECE6
:101D1000F0E0808180688083089521E00E94260E93
:101D200008950E948D0E08951F920F920FB60F9284
:101D30000BB60F9211242F933F934F935F936F93A2
:101D40007F938F939F93AF93BF93EF93FF93609194
:101D5000C60080E00E94BA0CFF91EF91BF91AF9155
:101D60009F918F917F916F915F914F913F912F91B3
:101D70000F900BBE0F900FBE0F901F9018951F92E3
:101D80000F920FB60F920BB60F9211242F933F9321
:101D90004F935F936F937F938F939F93AF93BF9373
:101DA000EF93FF936091CE0081E00E94BA0CFF9107
:101DB000EF91BF91AF919F918F917F916F915F91C3
:101DC0004F913F912F910F900BBE0F900FBE0F9030
:101DD0001F901895882319F4E1ECF0E002C0E9ECBB
:101DE000F0E08081806280830895882319F4E1EC1B
:101DF000F0E002C0E9ECF0E080818F7D80830895FF
:101E0000282F30E0F901EE0FFF1F93E0220F331F60
:101E10009A95E1F7E20FF31FEE5FFE4F26813781BF
:101E200021153105A1F1282F30E0F901EE0FFF1F38
:101E3000A3E0220F331FAA95E1F7E20FF31FEE5F35
:101E4000FE4F4181282F30E0F901EE0FFF1F63E0C4
:101E5000220F331F6A95E1F7E20FF31FEE5FFE4F8B
:101E600093814917A0F4282F30E0F901EE0FFF1FEE
:101E700043E0220F331F4A95E1F7E20FF31FEE5FB5
:101E8000FE4F9081992319F40E94EA0E08950E9452
:101E9000F50E0895823031F1282F30E0F901EE0F70
:101EA000FF1F53E0220F331F5A95E1F7E20FF31F94
:101EB000EE5FFE4F9081992349F4882319F4E1ECF9
:101EC000F0E002C0E9ECF0E098E908C0882319F4DA
:101ED000E1ECF0E002C0E9ECF0E098E190830E94D0
:101EE000000F78940895882319F0813041F404C0DC
:101EF00080E00E944A0F089581E00E944A0F0895F1
:101F0000A0E0B0E0E6E8FFE00C943714D82E7A01A8
:101F10008B010E94730F8D2D823001F1DD2019F4A9
:101F2000C4ECD0E002C0CCECD0E0C801B70128EF8F
:101F30003FEF4FEF5FEF0E94DB136050734D8E4C0D
:101F40009E4FA8019701E4E0220F331F441F551F45
:101F5000EA95D1F70E94FF1339832883CDB7DEB706
:101F6000E7E00C9453140E94800F0895282F30E06E
:101F7000F901EE0FFF1F73E0220F331F7A95E1F78F
:101F8000E20FF31FEE5FFE4F468157814115510569
:101F900009F465C0282F30E0F901EE0FFF1F93E030
:101FA000220F331F9A95E1F7E20FF31FEE5FFE4F0A
:101FB0006181282F30E0F901EE0FFF1FA3E0220F0F
:101FC000331FAA95E1F7E20FF31FEE5FFE4F9381F7
:101FD000691708F044C0882319F4E0ECF0E002C06F
:101FE000E8ECF0E0908195FF3AC0882319F4A6EC64
:101FF000B0E002C0AEECB0E0282F30E0F901EE0F07
:10200000FF1F63E0220F331F6A95E1F7E20FF31F12
:10201000EE5FFE4F9181490F511DFA0190819C9313
:10202000282F30E0F901EE0FFF1F93E0220F331F3E
:102030009A95E1F7E20FF31FEE5FFE4F91819F5FEC
:10204000282F30E0F901EE0FFF1FA3E0220F331F0E
:10205000AA95E1F7E20FF31FEE5FFE4F91830E9416
:10206000000F08951F93182F823031F00E94F50E53
:10207000812F0E94B60F1DC080911C0190911D01FF
:102080000097B9F03091170120911901321788F4A7
:1020900006C0809117018F5F80931701EDCF2091CB
:1020A0001701820F911DFC0180810E945811882325
:1020B00081F71F91089580E00E94321081E00E9414
:1020C000321082E00E94321080E00E94610D81E0B7
:1020D0000E94610D82E00E94610D08950E945B10D4
:1020E0000895282F30E0F901EE0FFF1F93E0220F33
:1020F000331F9A95E1F7E20FF31FEE5FFE4F7783F0
:102100006683282F30E0F901EE0FFF1FA3E0220FB6
:10211000331FAA95E1F7E20FF31FEE5FFE4F118226
:10212000282F30E0F901EE0FFF1F63E0220F331F6D
:102130006A95E1F7E20FF31FEE5FFE4F43838230B3
:1021400011F00E94000F08950E94711008951F92CF
:102150000F920FB60F920BB60F9211242F933F934D
:102160004F935F936F937F938F939F93AF93BF939F
:10217000EF93FF9380E00E94B60FFF91EF91BF9124
:10218000AF919F918F917F916F915F914F913F910F
:102190002F910F900BBE0F900FBE0F901F901895B0
:1021A0001F920F920FB60F920BB60F9211242F931E
:1021B0003F934F935F936F937F938F939F93AF93CF
:1021C000BF93EF93FF9381E00E94B60FFF91EF91D1
:1021D000BF91AF919F918F917F916F915F914F913F
:1021E0003F912F910F900BBE0F900FBE0F901F903D
:1021F00018956F9364E06A95F1F76F910197C9F7AD
:1022000008952F928F939F932FB68091D101909133
:10221000D20101968093D1019093D20190E08091F8
:10222000D301891F8093D3019091D9019C5F909332
:10223000D9018091D80180519742C0F09093D90183
:102240008093D8018091D4019091D501019680931B
:10225000D4019093D50190E08091D601891F80939D
:10226000D6018091D701891F8093D7012FBE9F91FE
:102270008F912F901895CF93DF93EC0105C088EED6
:1022800093E00E94F91021972097C9F7DF91CF9131
:1022900008950E943B1108958FEF64E00E949B1106
:1022A000089583E867E00E949B110E944C110895F5
:1022B0001F93182F982F9095991F9927991F85E89C
:1022C000891B65E00E949B11812F8F7765E00E943A
:1022D0009B111F9108956F9364E06A95F1F76F91D8
:1022E0000197C9F70895A1E0B0E0E9E7F1E10C94A6
:1022F0003B14182F249909C02C9907C02C9A8EE101
:1023000090E069830E946B11698184B1806A84B90D
:102310002698812F837080656C7A862B8CBD81E036
:1023200012FF80E08DBD81E090E00E943B1121967C
:10233000E3E00C9457140F931F93082F162F0CB43F
:1023400006FC04C080E064E00E9473110CB404FC3D
:1023500003C08CB580618CBD0EBD03C00CB404FEFF
:102360000BC00DB407FEFACF112321F0812F90E0AE
:102370000E946B118EB501C080E01F910F910895EE
:102380005058BB27AA270ED075C166D130F06BD14B
:1023900020F031F49F3F11F41EF45BC10EF4E09580
:1023A000E7FB51C1E92F77D180F3BA1762077307B2
:1023B0008407950718F071F49EF58FC10EF4E0952F
:1023C0000B2EBA2FA02D0B01B90190010C01CA01EF
:1023D000A0011124FF27591B99F0593F50F4503E9A
:1023E00068F11A16F040A22F232F342F4427585F8C
:1023F000F3CF469537952795A795F0405395C9F7A4
:102400007EF41F16BA0B620B730B840BBAF091505B
:10241000A1F0FF0FBB1F661F771F881FC2F70EC0FA
:10242000BA0F621F731F841F48F4879577956795CD
:10243000B795F7959E3F08F0B3CF9395880F08F0B6
:102440009927EE0F979587950895D9D008F481E0E4
:1024500008950CD00FC107D140F0FED030F021F428
:102460005F3F19F0F0C0511139C1F3C014D198F396
:102470009923C9F35523B1F3951B550BBB27AA2705
:1024800062177307840738F09F5F5F4F220F331F77
:10249000441FAA1FA9F333D00E2E3AF0E0E830D043
:1024A00091505040E695001CCAF729D0FE2F27D046
:1024B000660F771F881FBB1F261737074807AB0714
:1024C000B0E809F0BB0B802DBF01FF2793585F4F89
:1024D0002AF09E3F510568F0B6C000C15F3FECF3A3
:1024E000983EDCF3869577956795B795F7959F5F4E
:1024F000C9F7880F911D9695879597F90895E1E0A2
:10250000660F771F881FBB1F621773078407BA0700
:1025100020F0621B730B840BBA0BEE1F88F7E0955B
:10252000089504D06894B111D9C00895BCD088F042
:102530009F5790F0B92F9927B751A0F0D1F0660FAF
:10254000771F881F991F1AF0BA95C9F712C0B130CA
:1025500081F0C3D0B1E00895C0C0672F782F8827DD
:10256000B85F39F0B93FCCF3869577956795B39509
:10257000D9F73EF490958095709561957F4F8F4F78
:102580009F4F0895E89409C097FB3EF4909580957D
:10259000709561957F4F8F4F9F4F9923A9F0F92F29
:1025A00096E9BB279395F695879577956795B795A7
:1025B000F111F8CFFAF4BB0F11F460FF1BC06F5F8D
:1025C0007F4F8F4F9F4F16C0882311F096E911C09F
:1025D000772321F09EE8872F762F05C0662371F0C0
:1025E00096E8862F70E060E02AF09A95660F771FD4
:1025F000881FDAF7880F9695879597F90895990FB0
:102600000008550FAA0BE0E8FEEF16161706E807BC
:10261000F907C0F012161306E407F50798F0621BDD
:10262000730B840B950B39F40A2661F0232B242BB2
:10263000252B21F408950A2609F4A140A6958FEFD1
:10264000811D811D089597F99F6780E870E060E023
:1026500008959FEF80EC089500240A94161617063B
:1026600018060906089500240A9412161306140683
:1026700005060895092E0394000C11F4882352F0E6
:10268000BB0F40F4BF2B11F460FF04C06F5F7F4F9E
:102690008F4F9F4F089557FD9058440F551F59F085
:1026A0005F3F71F04795880F97FB991F61F09F3F3F
:1026B00079F087950895121613061406551FF2CF68
:1026C0004695F1DF08C0161617061806991FF1CFB8
:1026D00086957105610508940895E894BB276627DF
:1026E0007727CB0197F908958ADF08F48FEF0895D3
:1026F0000BD0C0CFB1DF28F0B6DF18F0952309F07A
:10270000A2CFA7CF1124EACFC6DFA0F3959FD1F3C4
:10271000950F50E0551F629FF001729FBB27F00D8F
:10272000B11D639FAA27F00DB11DAA1F649F6627E4
:10273000B00DA11D661F829F2227B00DA11D621F33
:10274000739FB00DA11D621F839FA00D611D221FED
:10275000749F3327A00D611D231F849F600D211DD1
:10276000822F762F6A2F11249F5750408AF0E1F074
:1027700088234AF0EE0FFF1FBB1F661F771F881FBD
:1027800091505040A9F79E3F510570F05CCFA6CF05
:102790005F3FECF3983EDCF3869577956795B795A8
:1027A000F795E7959F5FC1F7FE2B880F911D9695D2
:1027B000879597F90895DB018F939F930E942114C9
:1027C000BF91AF91A29F800D911DA39F900DB29FCD
:1027D000900D1124089597FB072E16F4009407D04E
:1027E00077FD09D00E94631407FC05D03EF4909554
:1027F00081959F4F0895709561957F4F0895A1E24F
:102800001A2EAA1BBB1BFD010DC0AA1FBB1FEE1F6A
:10281000FF1FA217B307E407F50720F0A21BB30BB5
:10282000E40BF50B661F771F881F991F1A9469F731
:1028300060957095809590959B01AC01BD01CF018D
:1028400008950E947714A59F900DB49F900DA49FAA
:10285000800D911D112408952F923F924F925F9207
:102860006F927F928F929F92AF92BF92CF92DF92A0
:10287000EF92FF920F931F93CF93DF93CDB7DEB705
:10288000CA1BDB0B0FB6F894DEBF0FBECDBF099499
:102890002A88398848885F846E847D848C849B84F0
:1028A000AA84B984C884DF80EE80FD800C811B81FE
:1028B000AA81B981CE0FD11D0FB6F894DEBF0FBE2D
:1028C000CDBFED010895AA1BBB1B51E107C0AA1F94
:1028D000BB1FA617B70710F0A61BB70B881F991FC1
:1028E0005A95A9F780959095BC01CD010895A29FB6
:1028F000B001B39FC001A39F700D811D1124911DD4
:10290000B29F700D811D1124911D08950F931F9387
:10291000CF93DF93869F8001879F100D969F100DA8
:102920001124C8010E94A214EC01009729F0A8010B
:1029300060E070E00E94C915CE01DF91CF911F9138
:102940000F910895CF93DF938230910510F482E0C8
:1029500090E0E0919002F091910220E030E0A0E060
:10296000B0E0309739F14081518148175907B8F0EC
:102970004817590771F482819381109729F01396B3
:102980009C938E9312972CC0909391028093900207
:1029900027C02115310531F04217530718F0A9015E
:1029A000DB0101C0EF019A01BD01DF010280F3816B
:1029B000E02DD7CF21153105F9F0281B390B243034
:1029C000310580F48A819B816115710521F0FB013D
:1029D0009383828304C09093910280939002FE01BE
:1029E000329644C0FE01E20FF31F8193919322506F
:1029F0003109398328833AC020918E0230918F02A9
:102A0000232B41F4209122013091230130938F0236
:102A100020938E0220912001309121012115310552
:102A200041F42DB73EB74091240150912501241B5C
:102A3000350BE0918E02F0918F02E217F307A0F4BC
:102A40002E1B3F0B2817390778F0AC014E5F5F4F04
:102A50002417350748F04E0F5F1F50938F024093A5
:102A60008E028193919302C0E0E0F0E0CF01DF910C
:102A7000CF910895CF93DF93009709F487C0FC01AD
:102A8000329713821282C0919002D09191022097C6
:102A900081F420813181280F391F80918E0290911D
:102AA0008F028217930779F5F0938F02E0938E02DD
:102AB0006DC0DE0120E030E0AE17BF0750F4129683
:102AC0004D915C9113979D014115510509F1DA0172
:102AD000F3CFB383A28340815181840F951F8A175E
:102AE0009B0771F48D919C911197840F951F02960D
:102AF0009183808312968D919C9113979383828307
:102B00002115310529F4F0939102E09390023EC023
:102B1000D9011396FC93EE9312974D915D91A40FFA
:102B2000B51FEA17FB0779F480819181840F951F07
:102B30000296D90111969C938E938281938113966C
:102B40009C938E931297E0E0F0E08A819B8100973E
:102B500019F0FE01EC01F9CFCE01029628813981EE
:102B6000820F931F20918E0230918F022817390710
:102B700069F4309729F4109291021092900202C0E9
:102B800013821282D0938F02C0938E02DF91CF9175
:102B90000895DC0101C06D9341505040E0F7089565
:102BA0000F931F93CF93DF93EC018B01009731F4C8
:102BB0006115710519F480E090E038C06EE070E0B6
:102BC00081E090E00E948614FC010097A1F380E868
:102BD00083830115110571F01387028781E88383D0
:102BE0008091920290919302892B21F4F0939302A9
:102BF000E09392022097C9F0D187C08783818260D9
:102C000083838091940290919502892B71F4F093C3
:102C10009502E09394028091960290919702892BFD
:102C200021F4F0939702E0939602CF01DF91CF91C8
:102C30001F910F910895CF93DF93CDB7DEB7FE01BB
:102C4000359661917191AF018091940290919502B6
:102C50000E947E16DF91CF9108950F931F93CF931B
:102C6000DF93CDB7DEB72E970FB6F894DEBF0FBE59
:102C7000CDBF0D891E8986E08C831A8309838FEF6F
:102C80009FE79E838D83AE01475E5F4F6F89788D8E
:102C9000CE0101960E947E16EF81F885E00FF11FAC
:102CA00010822E960FB6F894DEBF0FBECDBFDF9117
:102CB000CF911F910F910895CF93DF93CDB7DEB7DA
:102CC0002E970FB6F894DEBF0FBECDBF85E08C8384
:102CD0008B899C899A838983AE01495E5F4F6D8998
:102CE0007E89CE0101960E94161A2E960FB6F89490
:102CF000DEBF0FBECDBFDF91CF9108952F923F92DF
:102D00004F925F926F927F928F929F92AF92BF92FB
:102D1000CF92DF92EF92FF920F931F93CF93DF93A7
:102D2000CDB7DEB72C970FB6F894DEBF0FBECDBF80
:102D30007C016B018A01FC0117821682838181FF6D
:102D4000BDC1CE0101964C01F7019381F60193FDBF
:102D5000859193FF81916F01882309F4ABC185327E
:102D600039F493FD859193FF81916F01853229F4A8
:102D7000B70190E00E94B41BE7CF512C312C20E02A
:102D80002032A0F48B3269F030F4803259F0833273
:102D900069F420612CC08D3239F0803339F4216020
:102DA00026C02260246023C0286021C027FD27C0E0
:102DB00030ED380F3A3078F426FF06C0FAE05F9E17
:102DC000300D1124532E13C08AE0389E300D11248B
:102DD000332E20620CC08E3221F426FD6BC120649C
:102DE00006C08C3611F4206802C0883641F4F60122
:102DF00093FD859193FF81916F018111C1CF982F30
:102E00009F7D9554933028F40C5F1F4FFFE3F983A7
:102E10000DC0833631F0833771F0833509F05BC024
:102E200022C0F801808189830E5F1F4F44244394A0
:102E3000512C540115C03801F2E06F0E711CF801DD
:102E4000A080B18026FF03C0652D70E002C06FEF47
:102E50007FEFC5012C870E946B1B2C0183012C8501
:102E60002F77222E17C03801F2E06F0E711CF80187
:102E7000A080B18026FF03C0652D70E002C06FEF17
:102E80007FEFC5012C870E94601B2C012C852068D8
:102E9000222E830123FC1BC0832D90E04816590687
:102EA000B0F4B70180E290E00E94B41B3A94F4CFF2
:102EB000F50127FC859127FE81915F01B70190E024
:102EC0000E94B41B31103A94F1E04F1A510841149A
:102ED000510471F7E5C0843611F0893639F5F801EF
:102EE00027FF07C060817181828193810C5F1F4F32
:102EF00008C060817181882777FD8095982F0E5FCB
:102F00001F4F2F76B22E97FF09C090958095709530
:102F100061957F4F8F4F9F4F2068B22E2AE030E09F
:102F2000A4010E94FF1BA82EA81844C0853729F4CD
:102F30002F7EB22E2AE030E025C0F22FF97FBF2E7F
:102F40008F36C1F018F4883579F0B4C0803719F0A5
:102F5000883721F0AFC02F2F2061B22EB4FE0DC0F4
:102F60008B2D8460B82E09C024FF0AC09F2F966065
:102F7000B92E06C028E030E005C020E130E002C0F4
:102F800020E132E0F801B7FE07C0608171818281E3
:102F900093810C5F1F4F06C06081718180E090E0DB
:102FA0000E5F1F4FA4010E94FF1BA82EA818FB2D27
:102FB000FF77BF2EB6FE0BC02B2D2E7FA51450F42D
:102FC000B4FE0AC0B2FC08C02B2D2E7E05C07A2CA0
:102FD0002B2D03C07A2C01C0752C24FF0DC0FE01DF
:102FE000EA0DF11D8081803311F4297E09C022FF92
:102FF00006C07394739404C0822F867809F073948A
:1030000023FD13C020FF06C05A2C731418F4530C70
:103010005718732C731468F4B70180E290E02C8782
:103020000E94B41B73942C85F5CF731410F43718D9
:1030300001C0312C24FF12C0B70180E390E02C873F
:103040000E94B41B2C8522FF17C021FF03C088E516
:1030500090E002C088E790E0B7010CC0822F86782C
:1030600059F021FD02C080E201C08BE227FD8DE214
:10307000B70190E00E94B41BA51438F4B70180E3B7
:1030800090E00E94B41B5A94F7CFAA94F401EA0D81
:10309000F11D8081B70190E00E94B41BA110F5CF13
:1030A000332009F451CEB70180E290E00E94B41BB6
:1030B0003A94F6CFF7018681978102C08FEF9FEF98
:1030C0002C960FB6F894DEBF0FBECDBFDF91CF9127
:1030D0001F910F91FF90EF90DF90CF90BF90AF9036
:1030E0009F908F907F906F905F904F903F902F9028
:1030F000089520FD09C0FC0123FD05C022FF02C088
:103100007383628351834083089544FD10C046FD5C
:1031100010C0DB01FC01AA0FBB1FEE1FFF1F1094A4
:10312000D1F76A0F7B1F8E1F9F1F31E003C033E072
:1031300001C034E0660F771F881F991F3150D1F707
:10314000620F711D811D911D08950F931F93CF93E1
:10315000DF938C01C8010E94761BEC0197FD08C02B
:103160000E944D1B892BB1F7B801CE010E94E61BCE
:10317000CE01DF91CF911F910F9108958F929F9271
:10318000AF92CF92DF92EF92FF920F931F93CF9364
:10319000DF93EC01A62E4A01022F0E94761BAC01A0
:1031A00055274B32510521F04D32510551F400683D
:1031B000AA9411F480E067C0CE010E94761B97FDAF
:1031C000F9CF102F1D7F302F307301F58033F1F4CC
:1031D000FF24FA94FA0C09F442C0CE010E94761B37
:1031E00097FD3DC0382F3F7D383551F41264AA94C5
:1031F000AA94A9F1CE010E94761B97FF07C02FC0A9
:1032000006FF02C0126001C01261AF2CC12CD12C8C
:10321000760120ED280F283080F014FF04C0BE0195
:103220000E94E61B19C02A3040F016FFF8CF2F7D10
:103230003FEE320F363098F72750412FC701B601C5
:103240000E9485186B017C011260AA9459F0CE018E
:103250000E94761B97FFDDCF11FD04C0ABCFC12CC0
:10326000D12C760117FF08C0F094E094D094C0945C
:10327000C11CD11CE11CF11C212FB701A601C40106
:103280000E94791881E0DF91CF911F910F91FF90FB
:10329000EF90DF90CF90AF909F908F9008957F92A6
:1032A0008F929F92AF92BF92CF92DF92EF92FF9256
:1032B0000F931F93CF93DF93CDB7DEB7A1970FB6D0
:1032C000F894DEBF0FBECDBF5C017A018E010F5FA7
:1032D0001F4F680180E2D8011D928A95E9F7F50138
:1032E000738040E050E0812CB0E0912C81E090E0D0
:1032F000F90173FCA59173FEA1918F017A2F9F01B3
:10330000A11103C080E090E07DC0AE3519F44115F5
:10331000510559F1E92DF0E0E417F5073CF4AD351E
:1033200069F1AD3219F4BB2319F103C0B11101C029
:103330008A2EE72FE695E695E69586010E0F111D7C
:10334000F801A72FA7708C0102C0000F111FAA95CA
:10335000E2F7D801B081BA2BB083781559F078150F
:1033600010F47F5FE6CF7150E4CF9924939403C0AB
:10337000B1E001C0B0E04F5F5F4FBACFBB2319F09F
:103380008E8180628E83911003C09924939415C01E
:10339000F601CE018196208120952193E817F90747
:1033A000D1F7F3CFE114F10429F0D7018C93F701A1
:1033B00031967F01615001F1912CC50169A30E94F2
:1033C000761B69A197FD16C0282F26952695269570
:1033D000F601E20FF11D208130E0AC014770552766
:1033E00002C0359527954A95E2F720FDDBCFB50160
:1033F0000E94E61B911086CFE114F10411F0D70171
:103400001C92C801A1960FB6F894DEBF0FBECDBFC7
:10341000DF91CF911F910F91FF90EF90DF90CF90B0
:10342000BF90AF909F908F907F9008954F925F9242
:103430007F928F929F92AF92BF92CF92DF92EF9244
:10344000FF920F931F93CF93DF931F92CDB7DEB7F9
:103450008C012B017A01FC0117821682A12CF80144
:10346000D380F201D3FC8591D3FE8191382F2F01B7
:10347000882309F4FCC090E039830E944D1B3981F8
:10348000892B21F0C8010E94A518E9CF353241F4FB
:10349000F201D3FC3591D3FE31912F01353269F41D
:1034A000C80139830E94761B398197FDDEC0381729
:1034B000B1F2B8010E94E61BDAC03A3241F4D3FC03
:1034C0003591D3FE31912F01BB24B39401C0B12CAF
:1034D000712C20ED230F2A3090F4FB2DF260BF2ECB
:1034E000672D70E080E090E040E20E948518762E23
:1034F000F201D3FC3591D3FE31912F01EACFB1FE19
:1035000003C0711003C0B3C077247A94383619F021
:103510003C3661F014C0F201D3FC3591D3FE3191F9
:103520002F01383661F4FB2DF860BF2E8B2D84609F
:10353000B82EF201D3FC3591D3FE31912F01332304
:1035400009F495C0632F70E08CE890E039830E9405
:10355000551B3981892B09F48AC0B0FC07C0F701DB
:10356000C080D180C70102967C0102C0C12CD12C41
:103570003E3651F4F8014681578160E070E02B2D12
:10358000C6010E9479186BCF3336A1F4B1FC02C09A
:1035900077247394C8010E94761B97FD66C0C114FE
:1035A000D10429F0F6018083C60101966C017A945A
:1035B00089F757C03B3559F49201A601672DC80120
:1035C0000E944F192C01009709F04BC045C0C8015B
:1035D00039830E94A518398197FD47C03F3669F1AC
:1035E00028F4343631F1393679F12BC0333769F0AC
:1035F0003537F9F026C0C114D10429F0F6018082D4
:10360000C60101966C017A9471F0C8010E94761B84
:103610004C0197FD08C00E944D1B892B61F3B80136
:10362000C4010E94E61BC114D104D9F0F601108236
:1036300018C0FB2DF062BF2E07C08B2D8061B82E05
:1036400003C09B2D9064B92E2B2DA601672DC801B8
:103650000E94BE18811105C0F8018381807329F48E
:1036600006C0B0FCFCCEA394FACEAA2019F08A2D95
:1036700090E002C08FEF9FEF0F90DF91CF911F91ED
:103680000F91FF90EF90DF90CF90BF90AF909F9001
:103690008F907F905F904F90089591110EC180326E
:1036A00019F089508550D0F70895FC010590061651
:1036B00021F00020D9F7C00108953197CF01089576
:1036C000FC010590615070400110D8F780959095ED
:1036D0008E0F9F1F0895FC016150704001900110F2
:1036E000D8F7809590958E0F9F1F0895CF93DF9305
:1036F000EC012B8120FF33C026FF0AC02F7B2B83D8
:103700008E819F8101969F838E838A8190E029C05C
:1037100022FF0FC0E881F9818081992787FD90956C
:10372000009719F420622B831AC03196F983E8833D
:103730000EC0EA85FB85099597FF09C02B8101968C
:1037400011F480E101C080E2822B8B8308C02E81BE
:103750003F812F5F3F4F3F832E83992702C08FEF1A
:103760009FEFDF91CF9108950F931F93CF93DF9336
:10377000182F092FEB018B8181FD03C08FEF9FEF85
:1037800020C082FF10C04E815F812C813D81421795
:1037900053077CF4E881F9819F012F5F3F4F398304
:1037A0002883108306C0E885F985812F0995892B28
:1037B00029F72E813F812F5F3F4F3F832E83812F3B
:1037C000902FDF91CF911F910F910895FB012381DD
:1037D00020FF12C026FD10C08F3F3FEF930761F01E
:1037E00082832F7D206423832681378121503109F4
:1037F00037832683992708958FEF9FEF0895FA0165
:10380000AA27283051F1203181F1E8946F936E7F1F
:103810006E5F7F4F8F4F9F4FAF4FB1E03ED0B4E010
:103820003CD0670F781F891F9A1FA11D680F791F51
:103830008A1F911DA11D6A0F711D811D911DA11D62
:1038400020D009F468943F912AE0269F1124301972
:10385000305D3193DEF6CF010895462F4770405D0D
:103860004193B3E00FD0C9F7F6CF462F4F70405DBC
:103870004A3318F0495D31FD4052419302D0A9F717
:10388000EACFB4E0A6959795879577956795BA9511
:10389000C9F700976105710508959B01AC010A2ED7
:1038A00006945795479537952795BA95C9F7620FAE
:1038B000731F841F951FA01D0895992788270895B9
:0438C000F894FFCFAA
:1038C40002100000000000000000000000000000E2
:1038D40000000000000001000000000000000000E3
:1038E4000000980220002563202564004F703A25CB
:1038F4006320563A25640D0A00504761696E3A25E3
:10390400642E256420444761696E3A25642E25643B
:103914002050446573697265643A256420504D658E
:103924006173757265643A256420546F72717565AC
:103934003A25640D0A0042616420436F6D6D616E27
:10394400640D0A00456E636F64653A00543A0025BD
:10395400642E25642025642E256420256420256496
:103964002025640D0A0025642E25642025642E2557
:0E3974006420256420256C642025640D0A0063
:00000001FF
